{
  "contractName": "Catcontract",
  "abi": [
    {
      "inputs": [],
      "stateMutability": "nonpayable",
      "type": "constructor"
    },
    {
      "anonymous": false,
      "inputs": [
        {
          "indexed": true,
          "internalType": "address",
          "name": "owner",
          "type": "address"
        },
        {
          "indexed": true,
          "internalType": "address",
          "name": "approved",
          "type": "address"
        },
        {
          "indexed": true,
          "internalType": "uint256",
          "name": "tokenId",
          "type": "uint256"
        }
      ],
      "name": "Approval",
      "type": "event"
    },
    {
      "anonymous": false,
      "inputs": [
        {
          "indexed": true,
          "internalType": "address",
          "name": "owner",
          "type": "address"
        },
        {
          "indexed": true,
          "internalType": "address",
          "name": "operator",
          "type": "address"
        },
        {
          "indexed": false,
          "internalType": "bool",
          "name": "approved",
          "type": "bool"
        }
      ],
      "name": "ApprovalForAll",
      "type": "event"
    },
    {
      "anonymous": false,
      "inputs": [
        {
          "indexed": false,
          "internalType": "address",
          "name": "owner",
          "type": "address"
        },
        {
          "indexed": false,
          "internalType": "uint256",
          "name": "catId",
          "type": "uint256"
        },
        {
          "indexed": false,
          "internalType": "uint256",
          "name": "mumId",
          "type": "uint256"
        },
        {
          "indexed": false,
          "internalType": "uint256",
          "name": "dadId",
          "type": "uint256"
        },
        {
          "indexed": false,
          "internalType": "uint256",
          "name": "genes",
          "type": "uint256"
        }
      ],
      "name": "Birth",
      "type": "event"
    },
    {
      "anonymous": false,
      "inputs": [
        {
          "indexed": true,
          "internalType": "address",
          "name": "from",
          "type": "address"
        },
        {
          "indexed": true,
          "internalType": "address",
          "name": "to",
          "type": "address"
        },
        {
          "indexed": true,
          "internalType": "uint256",
          "name": "tokenId",
          "type": "uint256"
        }
      ],
      "name": "Transfer",
      "type": "event"
    },
    {
      "inputs": [
        {
          "internalType": "uint256",
          "name": "",
          "type": "uint256"
        }
      ],
      "name": "catIndexToApproved",
      "outputs": [
        {
          "internalType": "address",
          "name": "",
          "type": "address"
        }
      ],
      "stateMutability": "view",
      "type": "function",
      "constant": true
    },
    {
      "inputs": [
        {
          "internalType": "uint256",
          "name": "",
          "type": "uint256"
        }
      ],
      "name": "catIndexToOwner",
      "outputs": [
        {
          "internalType": "address",
          "name": "",
          "type": "address"
        }
      ],
      "stateMutability": "view",
      "type": "function",
      "constant": true
    },
    {
      "inputs": [],
      "name": "contractOwner",
      "outputs": [
        {
          "internalType": "address",
          "name": "",
          "type": "address"
        }
      ],
      "stateMutability": "view",
      "type": "function",
      "constant": true
    },
    {
      "inputs": [],
      "name": "gen0Counter",
      "outputs": [
        {
          "internalType": "uint256",
          "name": "",
          "type": "uint256"
        }
      ],
      "stateMutability": "view",
      "type": "function",
      "constant": true
    },
    {
      "inputs": [
        {
          "internalType": "uint256",
          "name": "_dadId",
          "type": "uint256"
        },
        {
          "internalType": "uint256",
          "name": "_mumId",
          "type": "uint256"
        }
      ],
      "name": "breed",
      "outputs": [],
      "stateMutability": "nonpayable",
      "type": "function"
    },
    {
      "inputs": [
        {
          "internalType": "uint256",
          "name": "_genes",
          "type": "uint256"
        }
      ],
      "name": "createCatGen0",
      "outputs": [],
      "stateMutability": "nonpayable",
      "type": "function"
    },
    {
      "inputs": [
        {
          "internalType": "uint256",
          "name": "_tokenId",
          "type": "uint256"
        }
      ],
      "name": "getCat",
      "outputs": [
        {
          "internalType": "uint256",
          "name": "",
          "type": "uint256"
        },
        {
          "internalType": "uint256",
          "name": "",
          "type": "uint256"
        },
        {
          "internalType": "uint256",
          "name": "",
          "type": "uint256"
        },
        {
          "internalType": "uint256",
          "name": "",
          "type": "uint256"
        },
        {
          "internalType": "uint256",
          "name": "",
          "type": "uint256"
        },
        {
          "internalType": "address",
          "name": "",
          "type": "address"
        }
      ],
      "stateMutability": "view",
      "type": "function",
      "constant": true
    },
    {
      "inputs": [
        {
          "internalType": "bytes4",
          "name": "_interfaceId",
          "type": "bytes4"
        }
      ],
      "name": "supportsInterface",
      "outputs": [
        {
          "internalType": "bool",
          "name": "",
          "type": "bool"
        }
      ],
      "stateMutability": "pure",
      "type": "function",
      "constant": true
    },
    {
      "inputs": [
        {
          "internalType": "address",
          "name": "owner",
          "type": "address"
        }
      ],
      "name": "balanceOf",
      "outputs": [
        {
          "internalType": "uint256",
          "name": "balance",
          "type": "uint256"
        }
      ],
      "stateMutability": "view",
      "type": "function",
      "constant": true
    },
    {
      "inputs": [],
      "name": "totalSupply",
      "outputs": [
        {
          "internalType": "uint256",
          "name": "total",
          "type": "uint256"
        }
      ],
      "stateMutability": "view",
      "type": "function",
      "constant": true
    },
    {
      "inputs": [
        {
          "internalType": "uint256",
          "name": "tokenId",
          "type": "uint256"
        }
      ],
      "name": "ownerOf",
      "outputs": [
        {
          "internalType": "address",
          "name": "owner",
          "type": "address"
        }
      ],
      "stateMutability": "view",
      "type": "function",
      "constant": true
    },
    {
      "inputs": [
        {
          "internalType": "address",
          "name": "to",
          "type": "address"
        },
        {
          "internalType": "uint256",
          "name": "tokenId",
          "type": "uint256"
        }
      ],
      "name": "transfer",
      "outputs": [],
      "stateMutability": "nonpayable",
      "type": "function"
    },
    {
      "inputs": [
        {
          "internalType": "address",
          "name": "to",
          "type": "address"
        },
        {
          "internalType": "uint256",
          "name": "_tokenId",
          "type": "uint256"
        }
      ],
      "name": "approve",
      "outputs": [],
      "stateMutability": "nonpayable",
      "type": "function"
    },
    {
      "inputs": [
        {
          "internalType": "address",
          "name": "operator",
          "type": "address"
        },
        {
          "internalType": "bool",
          "name": "approved",
          "type": "bool"
        }
      ],
      "name": "setApprovalForAll",
      "outputs": [],
      "stateMutability": "nonpayable",
      "type": "function"
    },
    {
      "inputs": [
        {
          "internalType": "uint256",
          "name": "_tokenId",
          "type": "uint256"
        }
      ],
      "name": "getApproved",
      "outputs": [
        {
          "internalType": "address",
          "name": "",
          "type": "address"
        }
      ],
      "stateMutability": "view",
      "type": "function",
      "constant": true
    },
    {
      "inputs": [
        {
          "internalType": "address",
          "name": "_owner",
          "type": "address"
        },
        {
          "internalType": "address",
          "name": "_operator",
          "type": "address"
        }
      ],
      "name": "isApprovedForAll",
      "outputs": [
        {
          "internalType": "bool",
          "name": "",
          "type": "bool"
        }
      ],
      "stateMutability": "view",
      "type": "function",
      "constant": true
    },
    {
      "inputs": [
        {
          "internalType": "address",
          "name": "_from",
          "type": "address"
        },
        {
          "internalType": "address",
          "name": "_to",
          "type": "address"
        },
        {
          "internalType": "uint256",
          "name": "_tokenId",
          "type": "uint256"
        }
      ],
      "name": "safeTransferFrom",
      "outputs": [],
      "stateMutability": "nonpayable",
      "type": "function"
    },
    {
      "inputs": [
        {
          "internalType": "address",
          "name": "_from",
          "type": "address"
        },
        {
          "internalType": "address",
          "name": "_to",
          "type": "address"
        },
        {
          "internalType": "uint256",
          "name": "_tokenId",
          "type": "uint256"
        },
        {
          "internalType": "bytes",
          "name": "data",
          "type": "bytes"
        }
      ],
      "name": "safeTransferFrom",
      "outputs": [],
      "stateMutability": "nonpayable",
      "type": "function"
    },
    {
      "inputs": [
        {
          "internalType": "address",
          "name": "_from",
          "type": "address"
        },
        {
          "internalType": "address",
          "name": "_to",
          "type": "address"
        },
        {
          "internalType": "uint256",
          "name": "_tokenId",
          "type": "uint256"
        }
      ],
      "name": "transferFrom",
      "outputs": [],
      "stateMutability": "nonpayable",
      "type": "function"
    },
    {
      "inputs": [],
      "name": "name",
      "outputs": [
        {
          "internalType": "string",
          "name": "tokenName",
          "type": "string"
        }
      ],
      "stateMutability": "pure",
      "type": "function",
      "constant": true
    },
    {
      "inputs": [],
      "name": "symbol",
      "outputs": [
        {
          "internalType": "string",
          "name": "tokenSymbol",
          "type": "string"
        }
      ],
      "stateMutability": "pure",
      "type": "function",
      "constant": true
    },
    {
      "inputs": [
        {
          "internalType": "address",
          "name": "_owner",
          "type": "address"
        }
      ],
      "name": "ownedTokens",
      "outputs": [
        {
          "internalType": "uint256[]",
          "name": "ownerTokens",
          "type": "uint256[]"
        }
      ],
      "stateMutability": "view",
      "type": "function",
      "constant": true
    }
  ],
  "bytecode": "0x60806040523480156200001157600080fd5b50336000806101000a81548173ffffffffffffffffffffffffffffffffffffffff021916908373ffffffffffffffffffffffffffffffffffffffff16021790555060007fffffffffffffffffffffffffffffffffffffffffffffffffffffffffffffffff90506200008f60008060008460006200009760201b60201c565b5050620005a9565b6000806040518060a001604052808867ffffffffffffffff1681526020014267ffffffffffffffff1681526020018763ffffffff1681526020018663ffffffff1681526020018561ffff16815250905060018190806001815401808255809150506001900390600052602060002090600202016000909190919091506000820151816000015560208201518160010160006101000a81548167ffffffffffffffff021916908367ffffffffffffffff16021790555060408201518160010160086101000a81548163ffffffff021916908363ffffffff160217905550606082015181600101600c6101000a81548163ffffffff021916908363ffffffff16021790555060808201518160010160106101000a81548161ffff021916908361ffff1602179055505050600060018080549050620001d4919062000484565b90507f0a5311bd2a6608f08a180df2ee7c5946819a649b204b554bb8e39825b2c50ad5848289898c6040516200020f95949392919062000427565b60405180910390a16200022b600085836200023960201b60201c565b809250505095945050505050565b600260008373ffffffffffffffffffffffffffffffffffffffff1673ffffffffffffffffffffffffffffffffffffffff16815260200190815260200160002060008154809291906200028b906200052c565b9190505550816003600083815260200190815260200160002060006101000a81548173ffffffffffffffffffffffffffffffffffffffff021916908373ffffffffffffffffffffffffffffffffffffffff160217905550600073ffffffffffffffffffffffffffffffffffffffff168373ffffffffffffffffffffffffffffffffffffffff1614620003a557600260008473ffffffffffffffffffffffffffffffffffffffff1673ffffffffffffffffffffffffffffffffffffffff16815260200190815260200160002060008154809291906200036990620004fd565b91905055506004600082815260200190815260200160002060006101000a81549073ffffffffffffffffffffffffffffffffffffffff02191690555b808273ffffffffffffffffffffffffffffffffffffffff168473ffffffffffffffffffffffffffffffffffffffff167fddf252ad1be2c89b69c2b068fc378daa952ba7f163c4a11628f55a4df523b3ef60405160405180910390a4505050565b6200041081620004bf565b82525050565b6200042181620004f3565b82525050565b600060a0820190506200043e600083018862000405565b6200044d602083018762000416565b6200045c604083018662000416565b6200046b606083018562000416565b6200047a608083018462000416565b9695505050505050565b60006200049182620004f3565b91506200049e83620004f3565b925082821015620004b457620004b36200057a565b5b828203905092915050565b6000620004cc82620004d3565b9050919050565b600073ffffffffffffffffffffffffffffffffffffffff82169050919050565b6000819050919050565b60006200050a82620004f3565b915060008214156200052157620005206200057a565b5b600182039050919050565b60006200053982620004f3565b91507fffffffffffffffffffffffffffffffffffffffffffffffffffffffffffffffff8214156200056f576200056e6200057a565b5b600182019050919050565b7f4e487b7100000000000000000000000000000000000000000000000000000000600052601160045260246000fd5b612a1780620005b96000396000f3fe608060405234801561001057600080fd5b50600436106101415760003560e01c806370a08231116100b8578063b12ab40f1161007c578063b12ab40f1461039d578063b88d4fde146103cd578063ce606ee0146103e9578063d9ecad7b14610407578063e985e9c514610423578063ef5e94aa1461045357610141565b806370a08231146102e757806395d89b4114610317578063a22cb46514610335578063a9059cbb14610351578063abadce781461036d57610141565b806312a55c961161010a57806312a55c961461021057806318160ddd1461022c57806323b872dd1461024a57806342842e0e146102665780634da2b48e146102825780636352211e146102b757610141565b8062fef1041461014657806301ffc9a71461017657806306fdde03146101a6578063081812fc146101c4578063095ea7b3146101f4575b600080fd5b610160600480360381019061015b9190611deb565b610471565b60405161016d919061209e565b60405180910390f35b610190600480360381019061018b9190611d91565b6104a4565b60405161019d91906121ed565b60405180910390f35b6101ae610544565b6040516101bb9190612208565b60405180910390f35b6101de60048036038101906101d99190611deb565b610581565b6040516101eb919061209e565b60405180910390f35b61020e60048036038101906102099190611d24565b6105cf565b005b61022a60048036038101906102259190611deb565b61064b565b005b61023461074d565b60405161024191906122ea565b60405180910390f35b610264600480360381019061025f9190611c09565b61075a565b005b610280600480360381019061027b9190611c09565b61077f565b005b61029c60048036038101906102979190611deb565b6107f3565b6040516102ae96959493929190612305565b60405180910390f35b6102d160048036038101906102cc9190611deb565b61096b565b6040516102de919061209e565b60405180910390f35b61030160048036038101906102fc9190611b9c565b6109a8565b60405161030e91906122ea565b60405180910390f35b61031f6109f1565b60405161032c9190612208565b60405180910390f35b61034f600480360381019061034a9190611ce4565b610a2e565b005b61036b60048036038101906103669190611d24565b610ada565b005b61038760048036038101906103829190611deb565b610c11565b604051610394919061209e565b60405180910390f35b6103b760048036038101906103b29190611b9c565b610c44565b6040516103c491906121cb565b60405180910390f35b6103e760048036038101906103e29190611c5c565b610ec3565b005b6103f1610f2f565b6040516103fe919061209e565b60405180910390f35b610421600480360381019061041c9190611e45565b610f53565b005b61043d60048036038101906104389190611bc9565b6110e2565b60405161044a91906121ed565b60405180910390f35b61045b611176565b60405161046891906122ea565b60405180910390f35b60046020528060005260406000206000915054906101000a900473ffffffffffffffffffffffffffffffffffffffff1681565b60006380ac58cd60e01b7bffffffffffffffffffffffffffffffffffffffffffffffffffffffff1916827bffffffffffffffffffffffffffffffffffffffffffffffffffffffff1916148061053d57506301ffc9a760e01b7bffffffffffffffffffffffffffffffffffffffffffffffffffffffff1916827bffffffffffffffffffffffffffffffffffffffffffffffffffffffff1916145b9050919050565b60606040518060400160405280600881526020017f5075727266656374000000000000000000000000000000000000000000000000815250905090565b6000600180549050821061059457600080fd5b6004600083815260200190815260200160002060009054906101000a900473ffffffffffffffffffffffffffffffffffffffff169050919050565b6105d9338261117c565b6105e257600080fd5b6105ec82826111e8565b808273ffffffffffffffffffffffffffffffffffffffff163373ffffffffffffffffffffffffffffffffffffffff167f8c5be1e5ebec7d5bd14f71427d1e84f3dd0314c0f7b2291e5b200ac8c7c3b92560405160405180910390a45050565b3373ffffffffffffffffffffffffffffffffffffffff1660008054906101000a900473ffffffffffffffffffffffffffffffffffffffff1673ffffffffffffffffffffffffffffffffffffffff16146106d9576040517f08c379a00000000000000000000000000000000000000000000000000000000081526004016106d09061228a565b60405180910390fd5b600a61ffff1660065410610722576040517f08c379a00000000000000000000000000000000000000000000000000000000081526004016107199061222a565b60405180910390fd5b6006600081548092919061073590612613565b91905055506107498160008060003361123e565b5050565b6000600180549050905090565b610766338484846113d4565b61076f57600080fd5b61077a838383611510565b505050565b3073ffffffffffffffffffffffffffffffffffffffff1663b88d4fde8484846040518463ffffffff1660e01b81526004016107bc9392919061212e565b600060405180830381600087803b1580156107d657600080fd5b505af11580156107ea573d6000803e3d6000fd5b50505050505050565b600080600080600080600187815481106108105761080f612746565b5b9060005260206000209060020201600001546001888154811061083657610835612746565b5b906000526020600020906002020160010160009054906101000a900467ffffffffffffffff16600189815481106108705761086f612746565b5b906000526020600020906002020160010160089054906101000a900463ffffffff1660018a815481106108a6576108a5612746565b5b9060005260206000209060020201600101600c9054906101000a900463ffffffff1660018b815481106108dc576108db612746565b5b906000526020600020906002020160010160109054906101000a900461ffff16600360008d815260200190815260200160002060009054906101000a900473ffffffffffffffffffffffffffffffffffffffff168467ffffffffffffffff1694508363ffffffff1693508263ffffffff1692508161ffff16915095509550955095509550955091939550919395565b60006003600083815260200190815260200160002060009054906101000a900473ffffffffffffffffffffffffffffffffffffffff169050919050565b6000600260008373ffffffffffffffffffffffffffffffffffffffff1673ffffffffffffffffffffffffffffffffffffffff168152602001908152602001600020549050919050565b60606040518060400160405280600481526020017f5055525200000000000000000000000000000000000000000000000000000000815250905090565b3373ffffffffffffffffffffffffffffffffffffffff168273ffffffffffffffffffffffffffffffffffffffff161415610a6757600080fd5b610a7182826116d7565b8173ffffffffffffffffffffffffffffffffffffffff163373ffffffffffffffffffffffffffffffffffffffff167f17307eab39ab6107e8899845ad3d59bd9653f200f220920489ca2b5937696c3183604051610ace91906121ed565b60405180910390a35050565b600073ffffffffffffffffffffffffffffffffffffffff168273ffffffffffffffffffffffffffffffffffffffff161415610b4a576040517f08c379a0000000000000000000000000000000000000000000000000000000008152600401610b41906122ca565b60405180910390fd5b3073ffffffffffffffffffffffffffffffffffffffff168273ffffffffffffffffffffffffffffffffffffffff161415610bb9576040517f08c379a0000000000000000000000000000000000000000000000000000000008152600401610bb0906122ca565b60405180910390fd5b610bc3338261117c565b610c02576040517f08c379a0000000000000000000000000000000000000000000000000000000008152600401610bf99061226a565b60405180910390fd5b610c0d338383611510565b5050565b60036020528060005260406000206000915054906101000a900473ffffffffffffffffffffffffffffffffffffffff1681565b606060003073ffffffffffffffffffffffffffffffffffffffff166370a08231846040518263ffffffff1660e01b8152600401610c81919061209e565b60206040518083038186803b158015610c9957600080fd5b505afa158015610cad573d6000803e3d6000fd5b505050506040513d601f19601f82011682018060405250810190610cd19190611e18565b90506000811415610d2e57600067ffffffffffffffff811115610cf757610cf6612775565b5b604051908082528060200260200182016040528015610d255781602001602082028036833780820191505090505b50915050610ebe565b60008167ffffffffffffffff811115610d4a57610d49612775565b5b604051908082528060200260200182016040528015610d785781602001602082028036833780820191505090505b50905060003073ffffffffffffffffffffffffffffffffffffffff166318160ddd6040518163ffffffff1660e01b815260040160206040518083038186803b158015610dc357600080fd5b505afa158015610dd7573d6000803e3d6000fd5b505050506040513d601f19601f82011682018060405250810190610dfb9190611e18565b9050600080600190505b828111610eb5578673ffffffffffffffffffffffffffffffffffffffff166003600083815260200190815260200160002060009054906101000a900473ffffffffffffffffffffffffffffffffffffffff1673ffffffffffffffffffffffffffffffffffffffff161415610ea25780848381518110610e8757610e86612746565b5b6020026020010181815250508180610e9e90612613565b9250505b8080610ead90612613565b915050610e05565b83955050505050505b919050565b610ecf338686866113d4565b610ed857600080fd5b610f2885858585858080601f016020809104026020016040519081016040528093929190818152602001838380828437600081840152601f19601f8201169050808301925050505050505061176f565b5050505050565b60008054906101000a900473ffffffffffffffffffffffffffffffffffffffff1681565b610f5d338361117c565b8015610f6f5750610f6e338261117c565b5b610fae576040517f08c379a0000000000000000000000000000000000000000000000000000000008152600401610fa59061224a565b60405180910390fd5b81811415610ff1576040517f08c379a0000000000000000000000000000000000000000000000000000000008152600401610fe8906122aa565b60405180910390fd5b6000610ffd8383611795565b90506000806001848154811061101657611015612746565b5b906000526020600020906002020160010160109054906101000a900461ffff1661ffff16905060006001868154811061105257611051612746565b5b906000526020600020906002020160010160109054906101000a900461ffff1661ffff1690508181141561109457818061108b90612613565b925092506110cc565b818110156110b05780806110a790612613565b915092506110cb565b600282826110be91906123d7565b6110c8919061242d565b92505b5b6110d9848688863361123e565b50505050505050565b6000600560008473ffffffffffffffffffffffffffffffffffffffff1673ffffffffffffffffffffffffffffffffffffffff16815260200190815260200160002060008373ffffffffffffffffffffffffffffffffffffffff1673ffffffffffffffffffffffffffffffffffffffff16815260200190815260200160002060009054906101000a900460ff16905092915050565b60065481565b60008273ffffffffffffffffffffffffffffffffffffffff166003600084815260200190815260200160002060009054906101000a900473ffffffffffffffffffffffffffffffffffffffff1673ffffffffffffffffffffffffffffffffffffffff1614905092915050565b816004600083815260200190815260200160002060006101000a81548173ffffffffffffffffffffffffffffffffffffffff021916908373ffffffffffffffffffffffffffffffffffffffff1602179055505050565b6000806040518060a001604052808867ffffffffffffffff1681526020014267ffffffffffffffff1681526020018763ffffffff1681526020018663ffffffff1681526020018561ffff16815250905060018190806001815401808255809150506001900390600052602060002090600202016000909190919091506000820151816000015560208201518160010160006101000a81548167ffffffffffffffff021916908367ffffffffffffffff16021790555060408201518160010160086101000a81548163ffffffff021916908363ffffffff160217905550606082015181600101600c6101000a81548163ffffffff021916908363ffffffff16021790555060808201518160010160106101000a81548161ffff021916908361ffff160217905550505060006001808054905061137991906124f3565b90507f0a5311bd2a6608f08a180df2ee7c5946819a649b204b554bb8e39825b2c50ad5848289898c6040516113b2959493929190612178565b60405180910390a16113c660008583611510565b809250505095945050505050565b60006113e0848361117c565b6113e957600080fd5b600073ffffffffffffffffffffffffffffffffffffffff168373ffffffffffffffffffffffffffffffffffffffff16141561142357600080fd5b600180549050821061143457600080fd5b8373ffffffffffffffffffffffffffffffffffffffff168573ffffffffffffffffffffffffffffffffffffffff161480611474575061147385836118f1565b5b8061150657503073ffffffffffffffffffffffffffffffffffffffff1663e985e9c585876040518363ffffffff1660e01b81526004016114b59291906120b9565b60206040518083038186803b1580156114cd57600080fd5b505afa1580156114e1573d6000803e3d6000fd5b505050506040513d601f19601f820116820180604052508101906115059190611d64565b5b9050949350505050565b600260008373ffffffffffffffffffffffffffffffffffffffff1673ffffffffffffffffffffffffffffffffffffffff168152602001908152602001600020600081548092919061156090612613565b9190505550816003600083815260200190815260200160002060006101000a81548173ffffffffffffffffffffffffffffffffffffffff021916908373ffffffffffffffffffffffffffffffffffffffff160217905550600073ffffffffffffffffffffffffffffffffffffffff168373ffffffffffffffffffffffffffffffffffffffff161461167757600260008473ffffffffffffffffffffffffffffffffffffffff1673ffffffffffffffffffffffffffffffffffffffff168152602001908152602001600020600081548092919061163b906125e9565b91905055506004600082815260200190815260200160002060006101000a81549073ffffffffffffffffffffffffffffffffffffffff02191690555b808273ffffffffffffffffffffffffffffffffffffffff168473ffffffffffffffffffffffffffffffffffffffff167fddf252ad1be2c89b69c2b068fc378daa952ba7f163c4a11628f55a4df523b3ef60405160405180910390a4505050565b80600560003373ffffffffffffffffffffffffffffffffffffffff1673ffffffffffffffffffffffffffffffffffffffff16815260200190815260200160002060008473ffffffffffffffffffffffffffffffffffffffff1673ffffffffffffffffffffffffffffffffffffffff16815260200190815260200160002060006101000a81548160ff0219169083151502179055505050565b61177a848484611510565b6117868484848461195d565b61178f57600080fd5b50505050565b600061179f611a90565b60006101ff426117af9190612686565b905060006008905060005b6101008160ff16116118785760008160ff16841661ffff1614611809576064866117e491906126b7565b61ffff168483600981106117fb576117fa612746565b5b602002018181525050611837565b60648761181691906126b7565b61ffff1684836009811061182d5761182c612746565b5b6020020181815250505b606486611844919061242d565b9550606487611853919061242d565b965060018261186291906124f3565b915060028161187191906124b8565b90506117ba565b50600080600090505b60098160ff1610156118e357848160ff16600981106118a3576118a2612746565b5b6020020151826118b391906123d7565b915060088160ff16146118d0576064826118cd919061245e565b91505b80806118db9061265c565b915050611881565b508094505050505092915050565b60008273ffffffffffffffffffffffffffffffffffffffff166004600084815260200190815260200160002060009054906101000a900473ffffffffffffffffffffffffffffffffffffffff1673ffffffffffffffffffffffffffffffffffffffff1614905092915050565b600061196884611a77565b6119755760019050611a6f565b60008473ffffffffffffffffffffffffffffffffffffffff1663150b7a02338887876040518563ffffffff1660e01b81526004016119b694939291906120e2565b602060405180830381600087803b1580156119d057600080fd5b505af11580156119e4573d6000803e3d6000fd5b505050506040513d601f19601f82011682018060405250810190611a089190611dbe565b90507f150b7a023d4804d13e8c85fb27262cb750cf6ba9f9dd3bb30d90f482ceeb4b1f7bffffffffffffffffffffffffffffffffffffffffffffffffffffffff1916817bffffffffffffffffffffffffffffffffffffffffffffffffffffffff1916149150505b949350505050565b600080823b905060008163ffffffff1611915050919050565b604051806101200160405280600990602082028036833780820191505090505090565b600081359050611ac281612985565b92915050565b600081359050611ad78161299c565b92915050565b600081519050611aec8161299c565b92915050565b600081359050611b01816129b3565b92915050565b600081519050611b16816129b3565b92915050565b60008083601f840112611b3257611b316127a9565b5b8235905067ffffffffffffffff811115611b4f57611b4e6127a4565b5b602083019150836001820283011115611b6b57611b6a6127ae565b5b9250929050565b600081359050611b81816129ca565b92915050565b600081519050611b96816129ca565b92915050565b600060208284031215611bb257611bb16127b8565b5b6000611bc084828501611ab3565b91505092915050565b60008060408385031215611be057611bdf6127b8565b5b6000611bee85828601611ab3565b9250506020611bff85828601611ab3565b9150509250929050565b600080600060608486031215611c2257611c216127b8565b5b6000611c3086828701611ab3565b9350506020611c4186828701611ab3565b9250506040611c5286828701611b72565b9150509250925092565b600080600080600060808688031215611c7857611c776127b8565b5b6000611c8688828901611ab3565b9550506020611c9788828901611ab3565b9450506040611ca888828901611b72565b935050606086013567ffffffffffffffff811115611cc957611cc86127b3565b5b611cd588828901611b1c565b92509250509295509295909350565b60008060408385031215611cfb57611cfa6127b8565b5b6000611d0985828601611ab3565b9250506020611d1a85828601611ac8565b9150509250929050565b60008060408385031215611d3b57611d3a6127b8565b5b6000611d4985828601611ab3565b9250506020611d5a85828601611b72565b9150509250929050565b600060208284031215611d7a57611d796127b8565b5b6000611d8884828501611add565b91505092915050565b600060208284031215611da757611da66127b8565b5b6000611db584828501611af2565b91505092915050565b600060208284031215611dd457611dd36127b8565b5b6000611de284828501611b07565b91505092915050565b600060208284031215611e0157611e006127b8565b5b6000611e0f84828501611b72565b91505092915050565b600060208284031215611e2e57611e2d6127b8565b5b6000611e3c84828501611b87565b91505092915050565b60008060408385031215611e5c57611e5b6127b8565b5b6000611e6a85828601611b72565b9250506020611e7b85828601611b72565b9150509250929050565b6000611e918383612080565b60208301905092915050565b611ea681612527565b82525050565b6000611eb782612376565b611ec181856123a4565b9350611ecc83612366565b8060005b83811015611efd578151611ee48882611e85565b9750611eef83612397565b925050600181019050611ed0565b5085935050505092915050565b611f1381612539565b82525050565b6000611f2482612381565b611f2e81856123b5565b9350611f3e8185602086016125b6565b611f47816127bd565b840191505092915050565b6000611f5d8261238c565b611f6781856123c6565b9350611f778185602086016125b6565b611f80816127bd565b840191505092915050565b6000611f986021836123c6565b9150611fa3826127ce565b604082019050919050565b6000611fbb6028836123c6565b9150611fc68261281d565b604082019050919050565b6000611fde6026836123c6565b9150611fe98261286c565b604082019050919050565b60006120016000836123b5565b915061200c826128bb565b600082019050919050565b60006120246025836123c6565b915061202f826128be565b604082019050919050565b6000612047601a836123c6565b91506120528261290d565b602082019050919050565b600061206a6022836123c6565b915061207582612936565b604082019050919050565b6120898161259f565b82525050565b6120988161259f565b82525050565b60006020820190506120b36000830184611e9d565b92915050565b60006040820190506120ce6000830185611e9d565b6120db6020830184611e9d565b9392505050565b60006080820190506120f76000830187611e9d565b6121046020830186611e9d565b612111604083018561208f565b81810360608301526121238184611f19565b905095945050505050565b60006080820190506121436000830186611e9d565b6121506020830185611e9d565b61215d604083018461208f565b818103606083015261216e81611ff4565b9050949350505050565b600060a08201905061218d6000830188611e9d565b61219a602083018761208f565b6121a7604083018661208f565b6121b4606083018561208f565b6121c1608083018461208f565b9695505050505050565b600060208201905081810360008301526121e58184611eac565b905092915050565b60006020820190506122026000830184611f0a565b92915050565b600060208201905081810360008301526122228184611f52565b905092915050565b6000602082019050818103600083015261224381611f8b565b9050919050565b6000602082019050818103600083015261226381611fae565b9050919050565b6000602082019050818103600083015261228381611fd1565b9050919050565b600060208201905081810360008301526122a381612017565b9050919050565b600060208201905081810360008301526122c38161203a565b9050919050565b600060208201905081810360008301526122e38161205d565b9050919050565b60006020820190506122ff600083018461208f565b92915050565b600060c08201905061231a600083018961208f565b612327602083018861208f565b612334604083018761208f565b612341606083018661208f565b61234e608083018561208f565b61235b60a0830184611e9d565b979650505050505050565b6000819050602082019050919050565b600081519050919050565b600081519050919050565b600081519050919050565b6000602082019050919050565b600082825260208201905092915050565b600082825260208201905092915050565b600082825260208201905092915050565b60006123e28261259f565b91506123ed8361259f565b9250827fffffffffffffffffffffffffffffffffffffffffffffffffffffffffffffffff03821115612422576124216126e8565b5b828201905092915050565b60006124388261259f565b91506124438361259f565b92508261245357612452612717565b5b828204905092915050565b60006124698261259f565b91506124748361259f565b9250817fffffffffffffffffffffffffffffffffffffffffffffffffffffffffffffffff04831182151516156124ad576124ac6126e8565b5b828202905092915050565b60006124c3826125a9565b91506124ce836125a9565b92508160ff04831182151516156124e8576124e76126e8565b5b828202905092915050565b60006124fe8261259f565b91506125098361259f565b92508282101561251c5761251b6126e8565b5b828203905092915050565b60006125328261257f565b9050919050565b60008115159050919050565b60007fffffffff0000000000000000000000000000000000000000000000000000000082169050919050565b600061ffff82169050919050565b600073ffffffffffffffffffffffffffffffffffffffff82169050919050565b6000819050919050565b600060ff82169050919050565b60005b838110156125d45780820151818401526020810190506125b9565b838111156125e3576000848401525b50505050565b60006125f48261259f565b91506000821415612608576126076126e8565b5b600182039050919050565b600061261e8261259f565b91507fffffffffffffffffffffffffffffffffffffffffffffffffffffffffffffffff821415612651576126506126e8565b5b600182019050919050565b6000612667826125a9565b915060ff82141561267b5761267a6126e8565b5b600182019050919050565b600061269182612571565b915061269c83612571565b9250826126ac576126ab612717565b5b828206905092915050565b60006126c28261259f565b91506126cd8361259f565b9250826126dd576126dc612717565b5b828206905092915050565b7f4e487b7100000000000000000000000000000000000000000000000000000000600052601160045260246000fd5b7f4e487b7100000000000000000000000000000000000000000000000000000000600052601260045260246000fd5b7f4e487b7100000000000000000000000000000000000000000000000000000000600052603260045260246000fd5b7f4e487b7100000000000000000000000000000000000000000000000000000000600052604160045260246000fd5b600080fd5b600080fd5b600080fd5b600080fd5b600080fd5b6000601f19601f8301169050919050565b7f67656e30436f756e746572203c2047656e305f4372656174696f6e5f4c696d6960008201527f7400000000000000000000000000000000000000000000000000000000000000602082015250565b7f596f75206d757374206f776e20626f7468206361747320696e206f726465722060008201527f746f206272656564000000000000000000000000000000000000000000000000602082015250565b7f596f75204d757374204f776e2054686520546f6b656e20596f7520417265205360008201527f656e64696e670000000000000000000000000000000000000000000000000000602082015250565b50565b7f596f7520617265206e6f7420746865206f776e6572206f662074686520636f6e60008201527f7472616374000000000000000000000000000000000000000000000000000000602082015250565b7f546865206361742063616e277420627265656420697473656c66000000000000600082015250565b7f43616e6e6f742053656e6420546f6b656e7320546f205468697320416464726560008201527f7373000000000000000000000000000000000000000000000000000000000000602082015250565b61298e81612527565b811461299957600080fd5b50565b6129a581612539565b81146129b057600080fd5b50565b6129bc81612545565b81146129c757600080fd5b50565b6129d38161259f565b81146129de57600080fd5b5056fea2646970667358221220d605dc33acabe5458f7190958c5e7a253b8c53956effcdadf97c0ade6a5e32c264736f6c63430008060033",
  "immutableReferences": {},
  "source": "pragma solidity >=0.4.22 <0.9.0;\n\nimport \"./IERC721.sol\";\nimport \"./IERC721Receiver.sol\";\nimport \"../node_modules/@openzeppelin/contracts/access/Ownable.sol\";\ncontract Catcontract is IERC721 {\n\nstring private  constant Name = \"Purrfect\";\nstring private constant Symbol = \"PURR\";\nuint16 private constant Gen0_Creation_Limit = 10;\nbytes4 internal constant MAGIC_ERC721_RECEIVED= bytes4(keccak256(\"onERC721Received(address,address,uint256,bytes)\"));\nbytes4 private constant _INTERFACE_ID_ERC721 = 0x80ac58cd;\nbytes4 private constant _INTERFACE_ID_ERC165 = 0x01ffc9a7;\naddress public contractOwner;\n\nevent Birth(address owner, uint256 catId, uint256 mumId, uint256 dadId, uint256 genes);\n\n\nmodifier onlyOwner{\n    require(contractOwner == msg.sender, \"You are not the owner of the contract\");\n    _;\n}\n\nstruct Cat {\n    uint256 genes;\n    uint64 birthTime;\n    uint32 mumId;\n    uint32 dadId;\n    uint16 generation;\n}\n\nconstructor(){\n    contractOwner = msg.sender;\n    uint256 gen = type(uint256).max;\n    _createCat(0, 0, 0, gen, address(0));//_createCat(0, 0, 0, gen-1, address(0))\n}\n\nCat[] cats;\n//        owner => amount\nmapping(address => uint256) ownerTokenBalance;\n\n//      tokenId => owner of cat\nmapping(uint256 => address) public catIndexToOwner;\n\n// tokenId => another approved address \nmapping(uint256 => address) public catIndexToApproved;\n\nmapping(address => mapping(address => bool)) private operatorApprovals;\n\nuint256 public gen0Counter;\n\n\n\nfunction breed(uint256 _dadId, uint256 _mumId) public {\n    //check ownership\n    //check you got the dna\n    //figure out the generation\n    //create a new cat with new properties, give it to msg.sender\n    require(owns(msg.sender, _dadId) && owns(msg.sender, _mumId), \"You must own both cats in order to breed\");\n    require(_mumId != _dadId, \"The cat can't breed itself\");\n    uint256 newCatDna = mixDna(_dadId, _mumId);\n    \n    uint256 newGen; \n    uint256 mumGen = cats[_mumId].generation;\n    uint256 dadGen = cats[_dadId].generation;\n\n    if(dadGen == mumGen){\n        newGen = mumGen++;\n    }else if(dadGen < mumGen){\n        newGen = dadGen++;\n    }else{\n        newGen = (dadGen + mumGen) / 2;\n    }\n    \n    _createCat(newCatDna, _mumId, _dadId, newGen, msg.sender);\n}\n\nfunction mixDna(uint256 _dadDNA, uint256 _mumDNA) internal view returns(uint256){\n    uint256[9] memory geneArray;\n    //sudo random number\n    uint16 random = uint16(block.timestamp)%511; //binary between 000000000-111111111\n    \n    uint256 index = 8;\n    for(uint8 i = 0; i <= 256; i=i*2){ //1, 2, 4, 8, 16, 32, 64, 128, 256 = 9 pairs\n        if(random & i != 0){\n            geneArray[index] = uint16( _mumDNA % 100);\n        }else{\n            geneArray[index] = uint16( _dadDNA % 100);\n        }\n            _mumDNA = _mumDNA / 100;//removing the last two digits by moving the decimal point\n            _dadDNA = _dadDNA / 100;\n            index = index -1; \n    }\n    uint256 newGene;\n    for(uint8 i = 0; i < 9; i++){\n        newGene = newGene + geneArray[i];\n        if(i != 8){\n            newGene = newGene *100;\n        }\n    }\n    return newGene;\n\n}\n\nfunction createCatGen0(uint256 _genes)public onlyOwner{\n    require(gen0Counter < Gen0_Creation_Limit, \"gen0Counter < Gen0_Creation_Limit\");\n    gen0Counter++;\n\n    _createCat(_genes, 0, 0, 0, msg.sender);\n}\n\nfunction _createCat(\n    uint256 _genes,\n    uint256 _mumId,\n    uint256 _dadId,\n    uint256 _generation,\n    address _owner\n)internal returns(uint256){\n    Cat memory _cat = Cat({\n        genes: uint64(_genes),\n        birthTime: uint64(block.timestamp),\n        mumId: uint32(_mumId),\n        dadId: uint32(_dadId),\n        generation: uint16(_generation)\n    });\n\n    //uint256 newCatId = cats.push(_cat)-1;\n    cats.push(_cat);\n    uint256 newCatId = cats.length - 1;\n     \n\n    emit Birth(_owner, newCatId, _mumId, _dadId, _genes);\n\n    _transfer(address(0), _owner, newCatId);\n\n    return newCatId;\n}\n\n    //returning the values in uint256 due to front end preferences (easier to read)\n    function getCat(uint256 _tokenId) public view returns(uint256, uint256, uint256, uint256, uint256, address){\n        return(cats[_tokenId].genes,\n                cats[_tokenId].birthTime,\n                cats[_tokenId].mumId,\n                cats[_tokenId].dadId,\n                cats[_tokenId].generation,\n                catIndexToOwner[_tokenId]\n                );\n    }\n\n    function supportsInterface(bytes4 _interfaceId) external pure returns (bool){\n        return(_interfaceId ==_INTERFACE_ID_ERC721 || _interfaceId == _INTERFACE_ID_ERC165);\n    }\n\n    function balanceOf(address owner) external view override returns (uint256 balance){\n        balance = ownerTokenBalance[owner];\n        return balance;\n    }\n\n    function totalSupply() external view override returns (uint256 total){\n        total = cats.length;\n        return total; \n    }\n\n    function ownerOf(uint256 tokenId) external view override returns (address owner){\n        return catIndexToOwner[tokenId];\n    }\n\n\n    function transfer(address to, uint256 tokenId) external override{\n        require(to != address(0), \"Cannot Send Tokens To This Address\");\n        require(to != address(this), \"Cannot Send Tokens To This Address\");\n        require(owns(msg.sender, tokenId), \"You Must Own The Token You Are Sending\");\n        _transfer(msg.sender, to, tokenId);\n    }\n\n    function _transfer(address from, address _to, uint256 _tokenId) internal {\n        ownerTokenBalance[_to]++;\n        catIndexToOwner[_tokenId] = _to;\n\n        //(edge case senario) when we mint new cats we dont want to decrease the token count\n        if(from != address (0)) {\n            ownerTokenBalance[from]--;\n            //this makes sure that the approval history for that token is erased\n            delete catIndexToApproved[_tokenId];\n        }\n        emit Transfer(from, _to, _tokenId);\n    }\n\n    function owns(address claimant, uint256 _tokenId) internal view returns (bool){\n        return catIndexToOwner[_tokenId] == claimant;\n    }\n\n    function approve(address to, uint256 _tokenId) external override {\n        require(owns(msg.sender, _tokenId));\n        _approve(to, _tokenId);\n        emit Approval(msg.sender, to, _tokenId);\n    }\n\n    function _approve(address approved, uint256 tokenId) internal {\n        catIndexToApproved[tokenId] = approved;\n    }\n\n    function setApprovalForAll(address operator, bool approved) external override{ \n        require(operator != msg.sender);\n        _setApprovalForAll(operator, approved);\n        emit ApprovalForAll(msg.sender, operator, approved);\n    }\n\n    function _setApprovalForAll(address _operator, bool _approved) internal{\n        operatorApprovals[msg.sender][_operator] = _approved;\n    }\n\n    function getApproved(uint256 _tokenId) external view override returns (address){\n        require(_tokenId < cats.length);//check that the token exists\n        return catIndexToApproved[_tokenId];\n    }\n\n    function isApprovedForAll(address _owner, address _operator) external override view returns (bool){\n        //returns the mapping status for these inputs\n        return operatorApprovals[_owner][_operator];\n    } \n    function safeTransferFrom(address _from, address _to, uint256 _tokenId) external override{\n        this.safeTransferFrom(_from, _to, _tokenId, \"\");\n    }\n\n    function safeTransferFrom(address _from, address _to, uint256 _tokenId, bytes calldata data) external override{\n        require(ownerOrApprovedCheck(msg.sender, _from, _to, _tokenId));\n        _safeTransfer(_from, _to, _tokenId, data);\n    }\n\n    function _safeTransfer(address from, address to, uint256 tokenId, bytes memory data)internal {\n        _transfer(from, to, tokenId);\n        require(_checkERC721Support(from, to, tokenId, data));\n    }\n\n    function transferFrom(address _from, address _to, uint256 _tokenId) external override{\n        require(ownerOrApprovedCheck(msg.sender, _from, _to, _tokenId));\n        _transfer(_from, _to, _tokenId);\n    }\n\n    function _checkERC721Support(address from, address to, uint256 tokenId, bytes memory data) internal returns(bool){\n        if( !isContract(to) ){\n            return true; //if it is not a contract return true\n        }\n        //call onERC721Recieved in the to contract\n        bytes4 returnData = IERC721Receiver(to).onERC721Received(msg.sender, from, tokenId, data);\n        return returnData == MAGIC_ERC721_RECEIVED;\n    }\n\n    function isContract(address _to) internal view returns(bool){\n        uint32 size;\n        assembly{\n            size := extcodesize(_to)\n        }\n\n        return size > 0;\n    }\n\n    function approvedFor(address claimant, uint256 tokenId) internal view returns(bool){\n        return catIndexToApproved[tokenId] == claimant;\n    }\n\n    function name() external pure override returns (string memory tokenName){    return Name;    }\n    function symbol() external pure override returns (string memory tokenSymbol){    return Symbol;  }\n\n    //to reduce code duplication, made an internal function with the require statements and returns true/false\n    function ownerOrApprovedCheck(address spender, address _from, address _to, uint256 _tokenId) internal view returns(bool){\n        require(owns(_from, _tokenId));\n        require(_to != address(0));\n        require(_tokenId < cats.length);\n        return(spender == _from || approvedFor(spender, _tokenId) || this.isApprovedForAll(_from, spender));\n\n    }\n\n    function ownedTokens(address _owner) public view returns(uint256[] memory ownerTokens) {\n    uint256 tokenCount = this.balanceOf(_owner);\n\n    if (tokenCount == 0) {\n        return new uint256[](0);\n    } else {\n        uint256[] memory result = new uint256[](tokenCount);\n        uint256 totalCats = this.totalSupply();\n        uint256 resultIndex = 0;\n\n        uint256 catId;\n\n        for (catId = 1; catId <= totalCats; catId++) {\n            if (catIndexToOwner[catId] == _owner) {\n                result[resultIndex] = catId;\n                resultIndex++;\n            }\n        }\n\n        return result;\n    }\n    \n    }\n}",
  "sourcePath": "/Users/OllieFrancis/Documents/Ethereum/Crypto-Cats-Dapp/contracts/CatContract.sol",
  "compiler": {
    "name": "solc",
    "version": "0.8.6+commit.11564f7e.Emscripten.clang"
  },
  "schemaVersion": "3.4.2",
  "updatedAt": "2021-08-07T14:03:01.766Z",
  "networkType": "ethereum",
  "devdoc": {
    "kind": "dev",
    "methods": {
      "balanceOf(address)": {
        "details": "Returns the number of tokens in ``owner``'s account."
      },
      "getApproved(uint256)": {
        "details": "Throws if `_tokenId` is not a valid NFT.",
        "params": {
          "_tokenId": "The NFT to find the approved address for"
        },
        "returns": {
          "_0": "The approved address for this NFT, or the zero address if there is none"
        }
      },
      "isApprovedForAll(address,address)": {
        "params": {
          "_operator": "The address that acts on behalf of the owner",
          "_owner": "The address that owns the NFTs"
        },
        "returns": {
          "_0": "True if `_operator` is an approved operator for `_owner`, false otherwise"
        }
      },
      "ownerOf(uint256)": {
        "details": "Returns the owner of the `tokenId` token. Requirements: - `tokenId` must exist."
      },
      "safeTransferFrom(address,address,uint256)": {
        "details": "This works identically to the other function with an extra data parameter,  except this function just sets data to \"\".",
        "params": {
          "_from": "The current owner of the NFT",
          "_to": "The new owner",
          "_tokenId": "The NFT to transfer"
        }
      },
      "safeTransferFrom(address,address,uint256,bytes)": {
        "details": "Throws unless `msg.sender` is the current owner, an authorized  operator, or the approved address for this NFT. Throws if `_from` is  not the current owner. Throws if `_to` is the zero address. Throws if  `_tokenId` is not a valid NFT. When transfer is complete, this function  checks if `_to` is a smart contract (code size > 0). If so, it calls  `onERC721Received` on `_to` and throws if the return value is not  `bytes4(keccak256(\"onERC721Received(address,address,uint256,bytes)\"))`.",
        "params": {
          "_from": "The current owner of the NFT",
          "_to": "The new owner",
          "_tokenId": "The NFT to transfer",
          "data": "Additional data with no specified format, sent in call to `_to`"
        }
      },
      "transferFrom(address,address,uint256)": {
        "details": "Throws unless `msg.sender` is the current owner, an authorized  operator, or the approved address for this NFT. Throws if `_from` is  not the current owner. Throws if `_to` is the zero address. Throws if  `_tokenId` is not a valid NFT.",
        "params": {
          "_from": "The current owner of the NFT",
          "_to": "The new owner",
          "_tokenId": "The NFT to transfer"
        }
      }
    },
    "version": 1
  },
  "userdoc": {
    "kind": "user",
    "methods": {
      "getApproved(uint256)": {
        "notice": "Get the approved address for a single NFT"
      },
      "isApprovedForAll(address,address)": {
        "notice": "Query if an address is an authorized operator for another address"
      },
      "safeTransferFrom(address,address,uint256)": {
        "notice": "Transfers the ownership of an NFT from one address to another address"
      },
      "safeTransferFrom(address,address,uint256,bytes)": {
        "notice": "Transfers the ownership of an NFT from one address to another address"
      },
      "transferFrom(address,address,uint256)": {
        "notice": "Transfer ownership of an NFT -- THE CALLER IS RESPONSIBLE  TO CONFIRM THAT `_to` IS CAPABLE OF RECEIVING NFTS OR ELSE  THEY MAY BE PERMANENTLY LOST"
      }
    },
    "version": 1
  }
}