{
  "contractName": "Catcontract",
  "abi": [
    {
      "inputs": [],
      "stateMutability": "nonpayable",
      "type": "constructor"
    },
    {
      "anonymous": false,
      "inputs": [
        {
          "indexed": true,
          "internalType": "address",
          "name": "owner",
          "type": "address"
        },
        {
          "indexed": true,
          "internalType": "address",
          "name": "approved",
          "type": "address"
        },
        {
          "indexed": true,
          "internalType": "uint256",
          "name": "tokenId",
          "type": "uint256"
        }
      ],
      "name": "Approval",
      "type": "event"
    },
    {
      "anonymous": false,
      "inputs": [
        {
          "indexed": true,
          "internalType": "address",
          "name": "owner",
          "type": "address"
        },
        {
          "indexed": true,
          "internalType": "address",
          "name": "operator",
          "type": "address"
        },
        {
          "indexed": false,
          "internalType": "bool",
          "name": "approved",
          "type": "bool"
        }
      ],
      "name": "ApprovalForAll",
      "type": "event"
    },
    {
      "anonymous": false,
      "inputs": [
        {
          "indexed": false,
          "internalType": "address",
          "name": "owner",
          "type": "address"
        },
        {
          "indexed": false,
          "internalType": "uint256",
          "name": "catId",
          "type": "uint256"
        },
        {
          "indexed": false,
          "internalType": "uint256",
          "name": "mumId",
          "type": "uint256"
        },
        {
          "indexed": false,
          "internalType": "uint256",
          "name": "dadId",
          "type": "uint256"
        },
        {
          "indexed": false,
          "internalType": "uint256",
          "name": "genes",
          "type": "uint256"
        }
      ],
      "name": "Birth",
      "type": "event"
    },
    {
      "anonymous": false,
      "inputs": [
        {
          "indexed": true,
          "internalType": "address",
          "name": "from",
          "type": "address"
        },
        {
          "indexed": true,
          "internalType": "address",
          "name": "to",
          "type": "address"
        },
        {
          "indexed": true,
          "internalType": "uint256",
          "name": "tokenId",
          "type": "uint256"
        }
      ],
      "name": "Transfer",
      "type": "event"
    },
    {
      "inputs": [
        {
          "internalType": "uint256",
          "name": "",
          "type": "uint256"
        }
      ],
      "name": "catIndexToApproved",
      "outputs": [
        {
          "internalType": "address",
          "name": "",
          "type": "address"
        }
      ],
      "stateMutability": "view",
      "type": "function",
      "constant": true
    },
    {
      "inputs": [
        {
          "internalType": "uint256",
          "name": "",
          "type": "uint256"
        }
      ],
      "name": "catIndexToOwner",
      "outputs": [
        {
          "internalType": "address",
          "name": "",
          "type": "address"
        }
      ],
      "stateMutability": "view",
      "type": "function",
      "constant": true
    },
    {
      "inputs": [],
      "name": "contractOwner",
      "outputs": [
        {
          "internalType": "address",
          "name": "",
          "type": "address"
        }
      ],
      "stateMutability": "view",
      "type": "function",
      "constant": true
    },
    {
      "inputs": [],
      "name": "gen0Counter",
      "outputs": [
        {
          "internalType": "uint256",
          "name": "",
          "type": "uint256"
        }
      ],
      "stateMutability": "view",
      "type": "function",
      "constant": true
    },
    {
      "inputs": [
        {
          "internalType": "uint256",
          "name": "_dadId",
          "type": "uint256"
        },
        {
          "internalType": "uint256",
          "name": "_mumId",
          "type": "uint256"
        }
      ],
      "name": "breed",
      "outputs": [
        {
          "internalType": "uint256",
          "name": "",
          "type": "uint256"
        }
      ],
      "stateMutability": "nonpayable",
      "type": "function"
    },
    {
      "inputs": [
        {
          "internalType": "uint256",
          "name": "_dadDna",
          "type": "uint256"
        },
        {
          "internalType": "uint256",
          "name": "_mumDna",
          "type": "uint256"
        }
      ],
      "name": "mixDna",
      "outputs": [
        {
          "internalType": "uint256",
          "name": "",
          "type": "uint256"
        }
      ],
      "stateMutability": "view",
      "type": "function",
      "constant": true
    },
    {
      "inputs": [
        {
          "internalType": "uint256",
          "name": "_genes",
          "type": "uint256"
        }
      ],
      "name": "createCatGen0",
      "outputs": [],
      "stateMutability": "nonpayable",
      "type": "function"
    },
    {
      "inputs": [
        {
          "internalType": "uint256",
          "name": "_tokenId",
          "type": "uint256"
        }
      ],
      "name": "getCat",
      "outputs": [
        {
          "internalType": "uint256",
          "name": "genes",
          "type": "uint256"
        },
        {
          "internalType": "uint256",
          "name": "birthTime",
          "type": "uint256"
        },
        {
          "internalType": "uint256",
          "name": "mumId",
          "type": "uint256"
        },
        {
          "internalType": "uint256",
          "name": "dadId",
          "type": "uint256"
        },
        {
          "internalType": "uint256",
          "name": "generation",
          "type": "uint256"
        },
        {
          "internalType": "address",
          "name": "owner",
          "type": "address"
        }
      ],
      "stateMutability": "view",
      "type": "function",
      "constant": true
    },
    {
      "inputs": [
        {
          "internalType": "bytes4",
          "name": "_interfaceId",
          "type": "bytes4"
        }
      ],
      "name": "supportsInterface",
      "outputs": [
        {
          "internalType": "bool",
          "name": "",
          "type": "bool"
        }
      ],
      "stateMutability": "pure",
      "type": "function",
      "constant": true
    },
    {
      "inputs": [
        {
          "internalType": "address",
          "name": "owner",
          "type": "address"
        }
      ],
      "name": "balanceOf",
      "outputs": [
        {
          "internalType": "uint256",
          "name": "balance",
          "type": "uint256"
        }
      ],
      "stateMutability": "view",
      "type": "function",
      "constant": true
    },
    {
      "inputs": [],
      "name": "totalSupply",
      "outputs": [
        {
          "internalType": "uint256",
          "name": "total",
          "type": "uint256"
        }
      ],
      "stateMutability": "view",
      "type": "function",
      "constant": true
    },
    {
      "inputs": [
        {
          "internalType": "uint256",
          "name": "tokenId",
          "type": "uint256"
        }
      ],
      "name": "ownerOf",
      "outputs": [
        {
          "internalType": "address",
          "name": "owner",
          "type": "address"
        }
      ],
      "stateMutability": "view",
      "type": "function",
      "constant": true
    },
    {
      "inputs": [
        {
          "internalType": "address",
          "name": "to",
          "type": "address"
        },
        {
          "internalType": "uint256",
          "name": "_tokenId",
          "type": "uint256"
        }
      ],
      "name": "approve",
      "outputs": [],
      "stateMutability": "nonpayable",
      "type": "function"
    },
    {
      "inputs": [
        {
          "internalType": "address",
          "name": "operator",
          "type": "address"
        },
        {
          "internalType": "bool",
          "name": "approved",
          "type": "bool"
        }
      ],
      "name": "setApprovalForAll",
      "outputs": [],
      "stateMutability": "nonpayable",
      "type": "function"
    },
    {
      "inputs": [
        {
          "internalType": "uint256",
          "name": "_tokenId",
          "type": "uint256"
        }
      ],
      "name": "getApproved",
      "outputs": [
        {
          "internalType": "address",
          "name": "",
          "type": "address"
        }
      ],
      "stateMutability": "view",
      "type": "function",
      "constant": true
    },
    {
      "inputs": [
        {
          "internalType": "address",
          "name": "_owner",
          "type": "address"
        },
        {
          "internalType": "address",
          "name": "_operator",
          "type": "address"
        }
      ],
      "name": "isApprovedForAll",
      "outputs": [
        {
          "internalType": "bool",
          "name": "",
          "type": "bool"
        }
      ],
      "stateMutability": "view",
      "type": "function",
      "constant": true
    },
    {
      "inputs": [
        {
          "internalType": "address",
          "name": "_from",
          "type": "address"
        },
        {
          "internalType": "address",
          "name": "_to",
          "type": "address"
        },
        {
          "internalType": "uint256",
          "name": "_tokenId",
          "type": "uint256"
        }
      ],
      "name": "safeTransferFrom",
      "outputs": [],
      "stateMutability": "nonpayable",
      "type": "function"
    },
    {
      "inputs": [
        {
          "internalType": "address",
          "name": "_from",
          "type": "address"
        },
        {
          "internalType": "address",
          "name": "_to",
          "type": "address"
        },
        {
          "internalType": "uint256",
          "name": "_tokenId",
          "type": "uint256"
        },
        {
          "internalType": "bytes",
          "name": "data",
          "type": "bytes"
        }
      ],
      "name": "safeTransferFrom",
      "outputs": [],
      "stateMutability": "nonpayable",
      "type": "function"
    },
    {
      "inputs": [
        {
          "internalType": "address",
          "name": "_from",
          "type": "address"
        },
        {
          "internalType": "address",
          "name": "_to",
          "type": "address"
        },
        {
          "internalType": "uint256",
          "name": "_tokenId",
          "type": "uint256"
        }
      ],
      "name": "transferFrom",
      "outputs": [],
      "stateMutability": "nonpayable",
      "type": "function"
    },
    {
      "inputs": [
        {
          "internalType": "address",
          "name": "to",
          "type": "address"
        },
        {
          "internalType": "uint256",
          "name": "tokenId",
          "type": "uint256"
        }
      ],
      "name": "transfer",
      "outputs": [],
      "stateMutability": "nonpayable",
      "type": "function"
    },
    {
      "inputs": [],
      "name": "name",
      "outputs": [
        {
          "internalType": "string",
          "name": "tokenName",
          "type": "string"
        }
      ],
      "stateMutability": "pure",
      "type": "function",
      "constant": true
    },
    {
      "inputs": [],
      "name": "symbol",
      "outputs": [
        {
          "internalType": "string",
          "name": "tokenSymbol",
          "type": "string"
        }
      ],
      "stateMutability": "pure",
      "type": "function",
      "constant": true
    },
    {
      "inputs": [
        {
          "internalType": "address",
          "name": "_owner",
          "type": "address"
        }
      ],
      "name": "ownedTokens",
      "outputs": [
        {
          "internalType": "uint256[]",
          "name": "ownerTokens",
          "type": "uint256[]"
        }
      ],
      "stateMutability": "view",
      "type": "function",
      "constant": true
    }
  ],
  "bytecode": "0x60806040523480156200001157600080fd5b50336000806101000a81548173ffffffffffffffffffffffffffffffffffffffff021916908373ffffffffffffffffffffffffffffffffffffffff16021790555060007fffffffffffffffffffffffffffffffffffffffffffffffffffffffffffffffff90506200008f60008060008460006200009760201b60201c565b50506200059f565b6000806040518060a001604052808881526020014267ffffffffffffffff1681526020018763ffffffff1681526020018663ffffffff1681526020018561ffff16815250905060018190806001815401808255809150506001900390600052602060002090600202016000909190919091506000820151816000015560208201518160010160006101000a81548167ffffffffffffffff021916908367ffffffffffffffff16021790555060408201518160010160086101000a81548163ffffffff021916908363ffffffff160217905550606082015181600101600c6101000a81548163ffffffff021916908363ffffffff16021790555060808201518160010160106101000a81548161ffff021916908361ffff1602179055505050600060018080549050620001ca91906200047a565b90507f0a5311bd2a6608f08a180df2ee7c5946819a649b204b554bb8e39825b2c50ad5848289898c604051620002059594939291906200041d565b60405180910390a162000221600085836200022f60201b60201c565b809250505095945050505050565b600260008373ffffffffffffffffffffffffffffffffffffffff1673ffffffffffffffffffffffffffffffffffffffff1681526020019081526020016000206000815480929190620002819062000522565b9190505550816003600083815260200190815260200160002060006101000a81548173ffffffffffffffffffffffffffffffffffffffff021916908373ffffffffffffffffffffffffffffffffffffffff160217905550600073ffffffffffffffffffffffffffffffffffffffff168373ffffffffffffffffffffffffffffffffffffffff16146200039b57600260008473ffffffffffffffffffffffffffffffffffffffff1673ffffffffffffffffffffffffffffffffffffffff16815260200190815260200160002060008154809291906200035f90620004f3565b91905055506004600082815260200190815260200160002060006101000a81549073ffffffffffffffffffffffffffffffffffffffff02191690555b808273ffffffffffffffffffffffffffffffffffffffff168473ffffffffffffffffffffffffffffffffffffffff167fddf252ad1be2c89b69c2b068fc378daa952ba7f163c4a11628f55a4df523b3ef60405160405180910390a4505050565b6200040681620004b5565b82525050565b6200041781620004e9565b82525050565b600060a082019050620004346000830188620003fb565b6200044360208301876200040c565b6200045260408301866200040c565b6200046160608301856200040c565b6200047060808301846200040c565b9695505050505050565b60006200048782620004e9565b91506200049483620004e9565b925082821015620004aa57620004a962000570565b5b828203905092915050565b6000620004c282620004c9565b9050919050565b600073ffffffffffffffffffffffffffffffffffffffff82169050919050565b6000819050919050565b60006200050082620004e9565b9150600082141562000517576200051662000570565b5b600182039050919050565b60006200052f82620004e9565b91507fffffffffffffffffffffffffffffffffffffffffffffffffffffffffffffffff82141562000565576200056462000570565b5b600182019050919050565b7f4e487b7100000000000000000000000000000000000000000000000000000000600052601160045260246000fd5b61276b80620005af6000396000f3fe608060405234801561001057600080fd5b506004361061014c5760003560e01c806370a08231116100c3578063b88d4fde1161007c578063b88d4fde146103d8578063c3133e13146103f4578063ce606ee014610424578063d9ecad7b14610442578063e985e9c514610472578063ef5e94aa146104a25761014c565b806370a08231146102f257806395d89b4114610322578063a22cb46514610340578063a9059cbb1461035c578063abadce7814610378578063b12ab40f146103a85761014c565b806312a55c961161011557806312a55c961461021b57806318160ddd1461023757806323b872dd1461025557806342842e0e146102715780634da2b48e1461028d5780636352211e146102c25761014c565b8062fef1041461015157806301ffc9a71461018157806306fdde03146101b1578063081812fc146101cf578063095ea7b3146101ff575b600080fd5b61016b60048036038101906101669190611c69565b6104c0565b6040516101789190611f0f565b60405180910390f35b61019b60048036038101906101969190611c0f565b6104f3565b6040516101a89190611feb565b60405180910390f35b6101b9610593565b6040516101c69190612006565b60405180910390f35b6101e960048036038101906101e49190611c69565b6105d0565b6040516101f69190611f0f565b60405180910390f35b61021960048036038101906102149190611bcf565b61061e565b005b61023560048036038101906102309190611c69565b61069a565b005b61023f61079c565b60405161024c91906120e8565b60405180910390f35b61026f600480360381019061026a9190611ab4565b6107a9565b005b61028b60048036038101906102869190611ab4565b610804565b005b6102a760048036038101906102a29190611c69565b610839565b6040516102b996959493929190612103565b60405180910390f35b6102dc60048036038101906102d79190611c69565b6109b4565b6040516102e99190611f0f565b60405180910390f35b61030c60048036038101906103079190611a47565b6109f1565b60405161031991906120e8565b60405180910390f35b61032a610a3a565b6040516103379190612006565b60405180910390f35b61035a60048036038101906103559190611b8f565b610a77565b005b61037660048036038101906103719190611bcf565b610b23565b005b610392600480360381019061038d9190611c69565b610c5a565b60405161039f9190611f0f565b60405180910390f35b6103c260048036038101906103bd9190611a47565b610c8d565b6040516103cf9190611fc9565b60405180910390f35b6103f260048036038101906103ed9190611b07565b610e16565b005b61040e60048036038101906104099190611c96565b610e82565b60405161041b91906120e8565b60405180910390f35b61042c611001565b6040516104399190611f0f565b60405180910390f35b61045c60048036038101906104579190611c96565b611025565b60405161046991906120e8565b60405180910390f35b61048c60048036038101906104879190611a74565b61119e565b6040516104999190611feb565b60405180910390f35b6104aa611232565b6040516104b791906120e8565b60405180910390f35b60046020528060005260406000206000915054906101000a900473ffffffffffffffffffffffffffffffffffffffff1681565b60006380ac58cd60e01b7bffffffffffffffffffffffffffffffffffffffffffffffffffffffff1916827bffffffffffffffffffffffffffffffffffffffffffffffffffffffff1916148061058c57506301ffc9a760e01b7bffffffffffffffffffffffffffffffffffffffffffffffffffffffff1916827bffffffffffffffffffffffffffffffffffffffffffffffffffffffff1916145b9050919050565b60606040518060400160405280600881526020017f5075727266656374000000000000000000000000000000000000000000000000815250905090565b600060018054905082106105e357600080fd5b6004600083815260200190815260200160002060009054906101000a900473ffffffffffffffffffffffffffffffffffffffff169050919050565b6106283382611238565b61063157600080fd5b61063b82826112a4565b808273ffffffffffffffffffffffffffffffffffffffff163373ffffffffffffffffffffffffffffffffffffffff167f8c5be1e5ebec7d5bd14f71427d1e84f3dd0314c0f7b2291e5b200ac8c7c3b92560405160405180910390a45050565b3373ffffffffffffffffffffffffffffffffffffffff1660008054906101000a900473ffffffffffffffffffffffffffffffffffffffff1673ffffffffffffffffffffffffffffffffffffffff1614610728576040517f08c379a000000000000000000000000000000000000000000000000000000000815260040161071f906120a8565b60405180910390fd5b600a61ffff1660065410610771576040517f08c379a000000000000000000000000000000000000000000000000000000000815260040161076890612028565b60405180910390fd5b60066000815480929190610784906123bb565b9190505550610798816000806000336112fa565b5050565b6000600180549050905090565b6107b533848484611486565b6107f4576040517f08c379a00000000000000000000000000000000000000000000000000000000081526004016107eb90612068565b60405180910390fd5b6107ff838383611541565b505050565b61081033848484611486565b61081957600080fd5b61083483838360405180602001604052806000815250611708565b505050565b600080600080600080600187815481106108565761085561249d565b5b9060005260206000209060020201600001549550856001888154811061087f5761087e61249d565b5b906000526020600020906002020160010160009054906101000a900467ffffffffffffffff1667ffffffffffffffff16955085600189815481106108c6576108c561249d565b5b906000526020600020906002020160010160089054906101000a900463ffffffff1663ffffffff1695508560018a815481106109055761090461249d565b5b9060005260206000209060020201600101600c9054906101000a900463ffffffff1663ffffffff1695508560018b815481106109445761094361249d565b5b906000526020600020906002020160010160109054906101000a900461ffff1661ffff16955085600360008d815260200190815260200160002060009054906101000a900473ffffffffffffffffffffffffffffffffffffffff1695509550955095509550955091939550919395565b60006003600083815260200190815260200160002060009054906101000a900473ffffffffffffffffffffffffffffffffffffffff169050919050565b6000600260008373ffffffffffffffffffffffffffffffffffffffff1673ffffffffffffffffffffffffffffffffffffffff168152602001908152602001600020549050919050565b60606040518060400160405280600481526020017f5055525200000000000000000000000000000000000000000000000000000000815250905090565b3373ffffffffffffffffffffffffffffffffffffffff168273ffffffffffffffffffffffffffffffffffffffff161415610ab057600080fd5b610aba828261172e565b8173ffffffffffffffffffffffffffffffffffffffff163373ffffffffffffffffffffffffffffffffffffffff167f17307eab39ab6107e8899845ad3d59bd9653f200f220920489ca2b5937696c3183604051610b179190611feb565b60405180910390a35050565b600073ffffffffffffffffffffffffffffffffffffffff168273ffffffffffffffffffffffffffffffffffffffff161415610b93576040517f08c379a0000000000000000000000000000000000000000000000000000000008152600401610b8a906120c8565b60405180910390fd5b3073ffffffffffffffffffffffffffffffffffffffff168273ffffffffffffffffffffffffffffffffffffffff161415610c02576040517f08c379a0000000000000000000000000000000000000000000000000000000008152600401610bf9906120c8565b60405180910390fd5b610c0c3382611238565b610c4b576040517f08c379a0000000000000000000000000000000000000000000000000000000008152600401610c4290612088565b60405180910390fd5b610c56338383611541565b5050565b60036020528060005260406000206000915054906101000a900473ffffffffffffffffffffffffffffffffffffffff1681565b60606000610c9a836109f1565b90506000811415610cf757600067ffffffffffffffff811115610cc057610cbf6124cc565b5b604051908082528060200260200182016040528015610cee5781602001602082028036833780820191505090505b50915050610e11565b60008167ffffffffffffffff811115610d1357610d126124cc565b5b604051908082528060200260200182016040528015610d415781602001602082028036833780820191505090505b5090506000610d4e61079c565b9050600080600190505b828111610e08578673ffffffffffffffffffffffffffffffffffffffff166003600083815260200190815260200160002060009054906101000a900473ffffffffffffffffffffffffffffffffffffffff1673ffffffffffffffffffffffffffffffffffffffff161415610df55780848381518110610dda57610dd961249d565b5b6020026020010181815250508180610df1906123bb565b9250505b8080610e00906123bb565b915050610d58565b83955050505050505b919050565b610e2233868686611486565b610e2b57600080fd5b610e7b85858585858080601f016020809104026020016040519081016040528093929190818152602001838380828437600081840152601f19601f82011690508083019250505050505050611708565b5050505050565b6000610e8c611965565b60006101ff4244604051602001610ea4929190611ee3565b6040516020818303038152906040528051906020012060001c610ec7919061240e565b9050600060019050600060089050600191505b6101008211610f94576000828461ffff161614610f1f57606486610efe919061240e565b848260098110610f1157610f1061249d565b5b602002018181525050610f49565b606487610f2c919061240e565b848260098110610f3f57610f3e61249d565b5b6020020181815250505b606486610f56919061222b565b9550606487610f65919061222b565b96506101008214610f8057600181610f7d91906122b6565b90505b600282610f8d919061225c565b9150610eda565b60008092505b6009831015610ff357848360098110610fb657610fb561249d565b5b602002015181610fc691906121d5565b905060088314610fe057606481610fdd919061225c565b90505b8280610feb906123bb565b935050610f9a565b809550505050505092915050565b60008054906101000a900473ffffffffffffffffffffffffffffffffffffffff1681565b60006110313384611238565b801561104357506110423383611238565b5b611082576040517f08c379a000000000000000000000000000000000000000000000000000000000815260040161107990612048565b60405180910390fd5b6000600184815481106110985761109761249d565b5b906000526020600020906002020190506000600184815481106110be576110bd61249d565b5b9060005260206000209060020201905060006110e283600001548360000154610e82565b905060008260010160109054906101000a900461ffff1661ffff16905060008460010160109054906101000a900461ffff1661ffff1690506000828210156111475760018361113191906121d5565b9050600281611140919061222b565b9050611183565b828211156111725760018261115c91906121d5565b905060028161116b919061222b565b9050611182565b60018361117f91906121d5565b90505b5b61119084898b84336112fa565b965050505050505092915050565b6000600560008473ffffffffffffffffffffffffffffffffffffffff1673ffffffffffffffffffffffffffffffffffffffff16815260200190815260200160002060008373ffffffffffffffffffffffffffffffffffffffff1673ffffffffffffffffffffffffffffffffffffffff16815260200190815260200160002060009054906101000a900460ff16905092915050565b60065481565b60008273ffffffffffffffffffffffffffffffffffffffff166003600084815260200190815260200160002060009054906101000a900473ffffffffffffffffffffffffffffffffffffffff1673ffffffffffffffffffffffffffffffffffffffff1614905092915050565b816004600083815260200190815260200160002060006101000a81548173ffffffffffffffffffffffffffffffffffffffff021916908373ffffffffffffffffffffffffffffffffffffffff1602179055505050565b6000806040518060a001604052808881526020014267ffffffffffffffff1681526020018763ffffffff1681526020018663ffffffff1681526020018561ffff16815250905060018190806001815401808255809150506001900390600052602060002090600202016000909190919091506000820151816000015560208201518160010160006101000a81548167ffffffffffffffff021916908367ffffffffffffffff16021790555060408201518160010160086101000a81548163ffffffff021916908363ffffffff160217905550606082015181600101600c6101000a81548163ffffffff021916908363ffffffff16021790555060808201518160010160106101000a81548161ffff021916908361ffff160217905550505060006001808054905061142b91906122b6565b90507f0a5311bd2a6608f08a180df2ee7c5946819a649b204b554bb8e39825b2c50ad5848289898c604051611464959493929190611f76565b60405180910390a161147860008583611541565b809250505095945050505050565b60006114928483611238565b61149b57600080fd5b600073ffffffffffffffffffffffffffffffffffffffff168373ffffffffffffffffffffffffffffffffffffffff1614156114d557600080fd5b60018054905082106114e657600080fd5b8373ffffffffffffffffffffffffffffffffffffffff168573ffffffffffffffffffffffffffffffffffffffff161480611526575061152585836117c6565b5b806115375750611536848661119e565b5b9050949350505050565b600260008373ffffffffffffffffffffffffffffffffffffffff1673ffffffffffffffffffffffffffffffffffffffff1681526020019081526020016000206000815480929190611591906123bb565b9190505550816003600083815260200190815260200160002060006101000a81548173ffffffffffffffffffffffffffffffffffffffff021916908373ffffffffffffffffffffffffffffffffffffffff160217905550600073ffffffffffffffffffffffffffffffffffffffff168373ffffffffffffffffffffffffffffffffffffffff16146116a857600260008473ffffffffffffffffffffffffffffffffffffffff1673ffffffffffffffffffffffffffffffffffffffff168152602001908152602001600020600081548092919061166c90612391565b91905055506004600082815260200190815260200160002060006101000a81549073ffffffffffffffffffffffffffffffffffffffff02191690555b808273ffffffffffffffffffffffffffffffffffffffff168473ffffffffffffffffffffffffffffffffffffffff167fddf252ad1be2c89b69c2b068fc378daa952ba7f163c4a11628f55a4df523b3ef60405160405180910390a4505050565b611713848484611541565b61171f84848484611832565b61172857600080fd5b50505050565b80600560003373ffffffffffffffffffffffffffffffffffffffff1673ffffffffffffffffffffffffffffffffffffffff16815260200190815260200160002060008473ffffffffffffffffffffffffffffffffffffffff1673ffffffffffffffffffffffffffffffffffffffff16815260200190815260200160002060006101000a81548160ff0219169083151502179055505050565b60008273ffffffffffffffffffffffffffffffffffffffff166004600084815260200190815260200160002060009054906101000a900473ffffffffffffffffffffffffffffffffffffffff1673ffffffffffffffffffffffffffffffffffffffff1614905092915050565b600061183d8461194c565b61184a5760019050611944565b60008473ffffffffffffffffffffffffffffffffffffffff1663150b7a02338887876040518563ffffffff1660e01b815260040161188b9493929190611f2a565b602060405180830381600087803b1580156118a557600080fd5b505af11580156118b9573d6000803e3d6000fd5b505050506040513d601f19601f820116820180604052508101906118dd9190611c3c565b90507f150b7a023d4804d13e8c85fb27262cb750cf6ba9f9dd3bb30d90f482ceeb4b1f7bffffffffffffffffffffffffffffffffffffffffffffffffffffffff1916817bffffffffffffffffffffffffffffffffffffffffffffffffffffffff1916149150505b949350505050565b600080823b905060008163ffffffff1611915050919050565b604051806101200160405280600990602082028036833780820191505090505090565b600081359050611997816126d9565b92915050565b6000813590506119ac816126f0565b92915050565b6000813590506119c181612707565b92915050565b6000815190506119d681612707565b92915050565b60008083601f8401126119f2576119f1612500565b5b8235905067ffffffffffffffff811115611a0f57611a0e6124fb565b5b602083019150836001820283011115611a2b57611a2a612505565b5b9250929050565b600081359050611a418161271e565b92915050565b600060208284031215611a5d57611a5c61250f565b5b6000611a6b84828501611988565b91505092915050565b60008060408385031215611a8b57611a8a61250f565b5b6000611a9985828601611988565b9250506020611aaa85828601611988565b9150509250929050565b600080600060608486031215611acd57611acc61250f565b5b6000611adb86828701611988565b9350506020611aec86828701611988565b9250506040611afd86828701611a32565b9150509250925092565b600080600080600060808688031215611b2357611b2261250f565b5b6000611b3188828901611988565b9550506020611b4288828901611988565b9450506040611b5388828901611a32565b935050606086013567ffffffffffffffff811115611b7457611b7361250a565b5b611b80888289016119dc565b92509250509295509295909350565b60008060408385031215611ba657611ba561250f565b5b6000611bb485828601611988565b9250506020611bc58582860161199d565b9150509250929050565b60008060408385031215611be657611be561250f565b5b6000611bf485828601611988565b9250506020611c0585828601611a32565b9150509250929050565b600060208284031215611c2557611c2461250f565b5b6000611c33848285016119b2565b91505092915050565b600060208284031215611c5257611c5161250f565b5b6000611c60848285016119c7565b91505092915050565b600060208284031215611c7f57611c7e61250f565b5b6000611c8d84828501611a32565b91505092915050565b60008060408385031215611cad57611cac61250f565b5b6000611cbb85828601611a32565b9250506020611ccc85828601611a32565b9150509250929050565b6000611ce28383611eae565b60208301905092915050565b611cf7816122ea565b82525050565b6000611d0882612174565b611d1281856121a2565b9350611d1d83612164565b8060005b83811015611d4e578151611d358882611cd6565b9750611d4083612195565b925050600181019050611d21565b5085935050505092915050565b611d64816122fc565b82525050565b6000611d758261217f565b611d7f81856121b3565b9350611d8f81856020860161235e565b611d9881612514565b840191505092915050565b6000611dae8261218a565b611db881856121c4565b9350611dc881856020860161235e565b611dd181612514565b840191505092915050565b6000611de96021836121c4565b9150611df482612525565b604082019050919050565b6000611e0c6028836121c4565b9150611e1782612574565b604082019050919050565b6000611e2f6020836121c4565b9150611e3a826125c3565b602082019050919050565b6000611e526026836121c4565b9150611e5d826125ec565b604082019050919050565b6000611e756025836121c4565b9150611e808261263b565b604082019050919050565b6000611e986022836121c4565b9150611ea38261268a565b604082019050919050565b611eb781612354565b82525050565b611ec681612354565b82525050565b611edd611ed882612354565b612404565b82525050565b6000611eef8285611ecc565b602082019150611eff8284611ecc565b6020820191508190509392505050565b6000602082019050611f246000830184611cee565b92915050565b6000608082019050611f3f6000830187611cee565b611f4c6020830186611cee565b611f596040830185611ebd565b8181036060830152611f6b8184611d6a565b905095945050505050565b600060a082019050611f8b6000830188611cee565b611f986020830187611ebd565b611fa56040830186611ebd565b611fb26060830185611ebd565b611fbf6080830184611ebd565b9695505050505050565b60006020820190508181036000830152611fe38184611cfd565b905092915050565b60006020820190506120006000830184611d5b565b92915050565b600060208201905081810360008301526120208184611da3565b905092915050565b6000602082019050818103600083015261204181611ddc565b9050919050565b6000602082019050818103600083015261206181611dff565b9050919050565b6000602082019050818103600083015261208181611e22565b9050919050565b600060208201905081810360008301526120a181611e45565b9050919050565b600060208201905081810360008301526120c181611e68565b9050919050565b600060208201905081810360008301526120e181611e8b565b9050919050565b60006020820190506120fd6000830184611ebd565b92915050565b600060c0820190506121186000830189611ebd565b6121256020830188611ebd565b6121326040830187611ebd565b61213f6060830186611ebd565b61214c6080830185611ebd565b61215960a0830184611cee565b979650505050505050565b6000819050602082019050919050565b600081519050919050565b600081519050919050565b600081519050919050565b6000602082019050919050565b600082825260208201905092915050565b600082825260208201905092915050565b600082825260208201905092915050565b60006121e082612354565b91506121eb83612354565b9250827fffffffffffffffffffffffffffffffffffffffffffffffffffffffffffffffff038211156122205761221f61243f565b5b828201905092915050565b600061223682612354565b915061224183612354565b9250826122515761225061246e565b5b828204905092915050565b600061226782612354565b915061227283612354565b9250817fffffffffffffffffffffffffffffffffffffffffffffffffffffffffffffffff04831182151516156122ab576122aa61243f565b5b828202905092915050565b60006122c182612354565b91506122cc83612354565b9250828210156122df576122de61243f565b5b828203905092915050565b60006122f582612334565b9050919050565b60008115159050919050565b60007fffffffff0000000000000000000000000000000000000000000000000000000082169050919050565b600073ffffffffffffffffffffffffffffffffffffffff82169050919050565b6000819050919050565b60005b8381101561237c578082015181840152602081019050612361565b8381111561238b576000848401525b50505050565b600061239c82612354565b915060008214156123b0576123af61243f565b5b600182039050919050565b60006123c682612354565b91507fffffffffffffffffffffffffffffffffffffffffffffffffffffffffffffffff8214156123f9576123f861243f565b5b600182019050919050565b6000819050919050565b600061241982612354565b915061242483612354565b9250826124345761243361246e565b5b828206905092915050565b7f4e487b7100000000000000000000000000000000000000000000000000000000600052601160045260246000fd5b7f4e487b7100000000000000000000000000000000000000000000000000000000600052601260045260246000fd5b7f4e487b7100000000000000000000000000000000000000000000000000000000600052603260045260246000fd5b7f4e487b7100000000000000000000000000000000000000000000000000000000600052604160045260246000fd5b600080fd5b600080fd5b600080fd5b600080fd5b600080fd5b6000601f19601f8301169050919050565b7f67656e30436f756e746572203c2047656e305f4372656174696f6e5f4c696d6960008201527f7400000000000000000000000000000000000000000000000000000000000000602082015250565b7f596f75206d757374206f776e20626f7468206361747320696e206f726465722060008201527f746f206272656564000000000000000000000000000000000000000000000000602082015250565b7f4552433732313a204973206e6f7420617070726f766564206f72206f776e6572600082015250565b7f596f75204d757374204f776e2054686520546f6b656e20596f7520417265205360008201527f656e64696e670000000000000000000000000000000000000000000000000000602082015250565b7f596f7520617265206e6f7420746865206f776e6572206f662074686520636f6e60008201527f7472616374000000000000000000000000000000000000000000000000000000602082015250565b7f43616e6e6f742053656e6420546f6b656e7320546f205468697320416464726560008201527f7373000000000000000000000000000000000000000000000000000000000000602082015250565b6126e2816122ea565b81146126ed57600080fd5b50565b6126f9816122fc565b811461270457600080fd5b50565b61271081612308565b811461271b57600080fd5b50565b61272781612354565b811461273257600080fd5b5056fea26469706673582212207e2fa62a151540dbfa713b2d5b358a2915daea8f158c382db0a1d447797ad90364736f6c63430008070033",
  "immutableReferences": {},
  "source": "pragma solidity >=0.4.22 <0.9.0;\n\nimport \"./IERC721.sol\";\nimport \"./IERC721Receiver.sol\";\nimport \"../node_modules/@openzeppelin/contracts/access/Ownable.sol\";\ncontract Catcontract is IERC721 {\n\nstring private  constant Name = \"Purrfect\";\nstring private constant Symbol = \"PURR\";\nuint16 private constant Gen0_Creation_Limit = 10;\nbytes4 internal constant MAGIC_ERC721_RECEIVED= bytes4(keccak256(\"onERC721Received(address,address,uint256,bytes)\"));\nbytes4 private constant _INTERFACE_ID_ERC721 = 0x80ac58cd;\nbytes4 private constant _INTERFACE_ID_ERC165 = 0x01ffc9a7;\naddress public contractOwner;\n\nevent Birth(address owner, uint256 catId, uint256 mumId, uint256 dadId, uint256 genes);\n\n\nmodifier onlyOwner{\n    require(contractOwner == msg.sender, \"You are not the owner of the contract\");\n    _;\n}\n\nstruct Cat {\n    uint256 genes;\n    uint64 birthTime;\n    uint32 mumId;\n    uint32 dadId;\n    uint16 generation;\n}\n\nconstructor(){\n    contractOwner = msg.sender;\n    uint256 gen = type(uint256).max;\n    _createCat(0, 0, 0, gen, address(0));//_createCat(0, 0, 0, gen-1, address(0))\n}\n\nCat[] cats;\n//        owner => amount\nmapping(address => uint256) ownerTokenBalance;\n\n//      tokenId => owner of cat\nmapping(uint256 => address) public catIndexToOwner;\n\n// tokenId => another approved address \nmapping(uint256 => address) public catIndexToApproved;\n\nmapping(address => mapping(address => bool)) private operatorApprovals;\n\nuint256 public gen0Counter;\n\n\n\nfunction breed(uint256 _dadId, uint256 _mumId) public returns(uint256){\n\n    require(owns(msg.sender, _dadId) && owns(msg.sender, _mumId), \"You must own both cats in order to breed\");\n    Cat storage dad = cats[_dadId];\n    Cat storage mum = cats[_mumId];\n\n    uint256 newCatDna = mixDna(dad.genes, mum.genes);\n    \n    \n    uint256 mumGen = mum.generation;\n    uint256 dadGen = dad.generation;\n    uint256 kidGen = 0; \n\n    if(dadGen < mumGen){\n        kidGen = mumGen+1;\n        kidGen /= 2;\n    }else if(dadGen > mumGen){\n        kidGen = dadGen + 1;\n        kidGen /= 2;\n    }else{\n        kidGen = mumGen + 1;\n    }\n    \n    return _createCat(newCatDna, _mumId, _dadId, kidGen, msg.sender);\n}\n\n\nfunction mixDna(uint256 _dadDna, uint256 _mumDna) public view returns(uint256){\n    uint256[9] memory geneArray;\n    \n    //uint16 random = uint16(block.timestamp % 511);\n    uint16 random = uint16(uint256(keccak256(abi.encodePacked(block.timestamp, block.difficulty))) % 511);//binary between 000000000-111111111\n    uint256 i = 1;\n    uint256 index = 8;\n    \n    for(i=1; i <= 256; i=i*2) {  //1, 2, 4, 8, 16, 32, 64, 128, 256 = 9 pairs\n        if(random & i !=0){\n            geneArray[index] = _mumDna % 100;\n        }else{\n            geneArray[index] = _dadDna % 100;\n        }\n        _mumDna = _mumDna / 100;  //removing the last two digits by moving the decimal point\n        _dadDna = _dadDna / 100;\n        \n        if(i != 256){index = index-1;}\n    }\n    \n    uint256 newGene;\n    \n    for(i=0; i<9; i++){\n        newGene = newGene + geneArray[i];\n        if(i !=8 ){\n            newGene = newGene *100;\n        }\n    } \n    return newGene;\n}\n\nfunction createCatGen0(uint256 _genes)public onlyOwner{\n    require(gen0Counter < Gen0_Creation_Limit, \"gen0Counter < Gen0_Creation_Limit\");\n    gen0Counter++;\n\n    _createCat(_genes, 0, 0, 0, msg.sender);\n}\n\nfunction _createCat(\n    uint256 _genes,\n    uint256 _mumId,\n    uint256 _dadId,\n    uint256 _generation,\n    address _owner\n)internal returns(uint256){\n    Cat memory _cat = Cat({\n        genes: uint256(_genes),\n        birthTime: uint64(block.timestamp),\n        mumId: uint32(_mumId),\n        dadId: uint32(_dadId),\n        generation: uint16(_generation)\n    });\n\n    //uint256 newCatId = cats.push(_cat)-1;\n    cats.push(_cat);\n    uint256 newCatId = cats.length - 1;\n     \n\n    emit Birth(_owner, newCatId, _mumId, _dadId, _genes);\n\n    _transfer(address(0), _owner, newCatId);\n\n    return newCatId;\n}\n\n    //returning the values in uint256 due to front end preferences (easier to read)\n    function getCat(uint256 _tokenId) public view returns(\n        uint256 genes, \n        uint256 birthTime, \n        uint256 mumId, \n        uint256 dadId, \n        uint256 generation, \n        address owner \n        ){\n        return(\n            genes = cats[_tokenId].genes,\n            birthTime = cats[_tokenId].birthTime,\n            mumId = cats[_tokenId].mumId,\n            dadId = cats[_tokenId].dadId,\n            generation = cats[_tokenId].generation,\n            owner = catIndexToOwner[_tokenId]\n        );\n    }\n\n    function supportsInterface(bytes4 _interfaceId) external pure returns (bool){\n        return(_interfaceId ==_INTERFACE_ID_ERC721 || _interfaceId == _INTERFACE_ID_ERC165);\n    }\n\n    function balanceOf(address owner) public view override returns (uint256 balance){\n        balance = ownerTokenBalance[owner];\n        return balance;\n    }\n\n    function totalSupply() public view override returns (uint256 total){\n        total = cats.length;\n        return total; \n    }\n\n    function ownerOf(uint256 tokenId) external view override returns (address owner){\n        return catIndexToOwner[tokenId];\n    }\n\n\n    \n    function owns(address claimant, uint256 _tokenId) internal view returns (bool){\n        return catIndexToOwner[_tokenId] == claimant;\n    }\n\n    function approve(address to, uint256 _tokenId) external override {\n        require(owns(msg.sender, _tokenId));\n        _approve(to, _tokenId);\n        emit Approval(msg.sender, to, _tokenId);\n    }\n\n    function _approve(address approved, uint256 tokenId) internal {\n        catIndexToApproved[tokenId] = approved;\n    }\n\n    function setApprovalForAll(address operator, bool approved) external override{ \n        require(operator != msg.sender);\n        _setApprovalForAll(operator, approved);\n        emit ApprovalForAll(msg.sender, operator, approved);\n    }\n\n    function _setApprovalForAll(address _operator, bool _approved) internal{\n        operatorApprovals[msg.sender][_operator] = _approved;\n    }\n\n    function getApproved(uint256 _tokenId) external view override returns (address){\n        require(_tokenId < cats.length);//check that the token exists\n        return catIndexToApproved[_tokenId];\n    }\n\n    function isApprovedForAll(address _owner, address _operator) public override view returns (bool){\n        //returns the mapping status for these inputs\n        return operatorApprovals[_owner][_operator];\n    } \n    function safeTransferFrom(address _from, address _to, uint256 _tokenId) external override{\n        require(ownerOrApprovedCheck(msg.sender, _from, _to, _tokenId));\n        _safeTransfer(_from, _to, _tokenId, \"\");\n    }\n\n    function safeTransferFrom(address _from, address _to, uint256 _tokenId, bytes calldata data) external override{\n        require(ownerOrApprovedCheck(msg.sender, _from, _to, _tokenId));\n        _safeTransfer(_from, _to, _tokenId, data);\n    }\n\n    function _safeTransfer(address from, address to, uint256 tokenId, bytes memory data)internal {\n        _transfer(from, to, tokenId);\n        require(_checkERC721Support(from, to, tokenId, data));\n    }\n\n    function transferFrom(address _from, address _to, uint256 _tokenId) external override{\n        require(ownerOrApprovedCheck(msg.sender, _from, _to, _tokenId), \"ERC721: Is not approved or owner\");\n        _transfer(_from, _to, _tokenId);\n    }\n\n    function transfer(address to, uint256 tokenId) external override{\n        require(to != address(0), \"Cannot Send Tokens To This Address\");\n        require(to != address(this), \"Cannot Send Tokens To This Address\");\n        require(owns(msg.sender, tokenId), \"You Must Own The Token You Are Sending\");\n        _transfer(msg.sender, to, tokenId);\n    }\n\n    function _transfer(address from, address _to, uint256 _tokenId) internal {\n        ownerTokenBalance[_to]++;\n        catIndexToOwner[_tokenId] = _to;\n\n        //(edge case senario) when we mint new cats we dont want to decrease the token count\n        if(from != address (0)) {\n            ownerTokenBalance[from]--;\n            //this makes sure that the approval history for that token is erased\n            delete catIndexToApproved[_tokenId];\n        }\n        emit Transfer(from, _to, _tokenId);\n    }\n\n    \n    function _checkERC721Support(address from, address to, uint256 tokenId, bytes memory data) internal returns(bool){\n        if( !isContract(to) ){\n            return true; //if it is not a contract return true\n        }\n        //call onERC721Recieved in the to contract\n        bytes4 returnData = IERC721Receiver(to).onERC721Received(msg.sender, from, tokenId, data);\n        return returnData == MAGIC_ERC721_RECEIVED;\n    }\n\n    function isContract(address _to) internal view returns(bool){\n        uint32 size;\n        assembly{\n            size := extcodesize(_to)\n        }\n\n        return size > 0;\n    }\n\n    function approvedFor(address claimant, uint256 tokenId) internal view returns(bool){\n        return catIndexToApproved[tokenId] == claimant;\n    }\n\n    function name() external pure override returns (string memory tokenName){    return Name;    }\n    function symbol() external pure override returns (string memory tokenSymbol){    return Symbol;  }\n\n    //to reduce code duplication, made an internal function with the require statements and returns true/false\n    function ownerOrApprovedCheck(address spender, address _from, address _to, uint256 _tokenId) internal view returns(bool){\n        require(owns(_from, _tokenId));\n        require(_to != address(0));\n        require(_tokenId < cats.length);\n        return(spender == _from || approvedFor(spender, _tokenId) || isApprovedForAll(_from, spender));\n\n    }\n\n    function ownedTokens(address _owner) public view returns(uint256[] memory ownerTokens) {\n    uint256 tokenCount = balanceOf(_owner);\n\n    if (tokenCount == 0) {\n        return new uint256[](0);\n    } else {\n        uint256[] memory result = new uint256[](tokenCount);\n        uint256 totalCats = totalSupply();\n        uint256 resultIndex = 0;\n\n        uint256 catId;\n\n        for (catId = 1; catId <= totalCats; catId++) {\n            if (catIndexToOwner[catId] == _owner) {\n                result[resultIndex] = catId;\n                resultIndex++;\n            }\n        }\n\n        return result;\n    }\n    \n    }\n}",
  "sourcePath": "/Users/OllieFrancis/Documents/Ethereum/Crypto-Cats-Dapp/contracts/CatContract.sol",
  "compiler": {
    "name": "solc",
    "version": "0.8.7+commit.e28d00a7.Emscripten.clang"
  },
  "schemaVersion": "3.4.2",
  "updatedAt": "2021-08-26T11:14:37.732Z",
  "networkType": "ethereum",
  "devdoc": {
    "kind": "dev",
    "methods": {
      "balanceOf(address)": {
        "details": "Returns the number of tokens in ``owner``'s account."
      },
      "getApproved(uint256)": {
        "details": "Throws if `_tokenId` is not a valid NFT.",
        "params": {
          "_tokenId": "The NFT to find the approved address for"
        },
        "returns": {
          "_0": "The approved address for this NFT, or the zero address if there is none"
        }
      },
      "isApprovedForAll(address,address)": {
        "params": {
          "_operator": "The address that acts on behalf of the owner",
          "_owner": "The address that owns the NFTs"
        },
        "returns": {
          "_0": "True if `_operator` is an approved operator for `_owner`, false otherwise"
        }
      },
      "ownerOf(uint256)": {
        "details": "Returns the owner of the `tokenId` token. Requirements: - `tokenId` must exist."
      },
      "safeTransferFrom(address,address,uint256)": {
        "details": "This works identically to the other function with an extra data parameter,  except this function just sets data to \"\".",
        "params": {
          "_from": "The current owner of the NFT",
          "_to": "The new owner",
          "_tokenId": "The NFT to transfer"
        }
      },
      "safeTransferFrom(address,address,uint256,bytes)": {
        "details": "Throws unless `msg.sender` is the current owner, an authorized  operator, or the approved address for this NFT. Throws if `_from` is  not the current owner. Throws if `_to` is the zero address. Throws if  `_tokenId` is not a valid NFT. When transfer is complete, this function  checks if `_to` is a smart contract (code size > 0). If so, it calls  `onERC721Received` on `_to` and throws if the return value is not  `bytes4(keccak256(\"onERC721Received(address,address,uint256,bytes)\"))`.",
        "params": {
          "_from": "The current owner of the NFT",
          "_to": "The new owner",
          "_tokenId": "The NFT to transfer",
          "data": "Additional data with no specified format, sent in call to `_to`"
        }
      },
      "transferFrom(address,address,uint256)": {
        "details": "Throws unless `msg.sender` is the current owner, an authorized  operator, or the approved address for this NFT. Throws if `_from` is  not the current owner. Throws if `_to` is the zero address. Throws if  `_tokenId` is not a valid NFT.",
        "params": {
          "_from": "The current owner of the NFT",
          "_to": "The new owner",
          "_tokenId": "The NFT to transfer"
        }
      }
    },
    "version": 1
  },
  "userdoc": {
    "kind": "user",
    "methods": {
      "getApproved(uint256)": {
        "notice": "Get the approved address for a single NFT"
      },
      "isApprovedForAll(address,address)": {
        "notice": "Query if an address is an authorized operator for another address"
      },
      "safeTransferFrom(address,address,uint256)": {
        "notice": "Transfers the ownership of an NFT from one address to another address"
      },
      "safeTransferFrom(address,address,uint256,bytes)": {
        "notice": "Transfers the ownership of an NFT from one address to another address"
      },
      "transferFrom(address,address,uint256)": {
        "notice": "Transfer ownership of an NFT -- THE CALLER IS RESPONSIBLE  TO CONFIRM THAT `_to` IS CAPABLE OF RECEIVING NFTS OR ELSE  THEY MAY BE PERMANENTLY LOST"
      }
    },
    "version": 1
  }
}