{
  "contractName": "Catcontract",
  "abi": [
    {
      "inputs": [],
      "stateMutability": "nonpayable",
      "type": "constructor"
    },
    {
      "anonymous": false,
      "inputs": [
        {
          "indexed": true,
          "internalType": "address",
          "name": "owner",
          "type": "address"
        },
        {
          "indexed": true,
          "internalType": "address",
          "name": "approved",
          "type": "address"
        },
        {
          "indexed": true,
          "internalType": "uint256",
          "name": "tokenId",
          "type": "uint256"
        }
      ],
      "name": "Approval",
      "type": "event"
    },
    {
      "anonymous": false,
      "inputs": [
        {
          "indexed": true,
          "internalType": "address",
          "name": "owner",
          "type": "address"
        },
        {
          "indexed": true,
          "internalType": "address",
          "name": "operator",
          "type": "address"
        },
        {
          "indexed": false,
          "internalType": "bool",
          "name": "approved",
          "type": "bool"
        }
      ],
      "name": "ApprovalForAll",
      "type": "event"
    },
    {
      "anonymous": false,
      "inputs": [
        {
          "indexed": false,
          "internalType": "address",
          "name": "owner",
          "type": "address"
        },
        {
          "indexed": false,
          "internalType": "uint256",
          "name": "catId",
          "type": "uint256"
        },
        {
          "indexed": false,
          "internalType": "uint256",
          "name": "mumId",
          "type": "uint256"
        },
        {
          "indexed": false,
          "internalType": "uint256",
          "name": "dadId",
          "type": "uint256"
        },
        {
          "indexed": false,
          "internalType": "uint256",
          "name": "genes",
          "type": "uint256"
        }
      ],
      "name": "Birth",
      "type": "event"
    },
    {
      "anonymous": false,
      "inputs": [
        {
          "indexed": true,
          "internalType": "address",
          "name": "from",
          "type": "address"
        },
        {
          "indexed": true,
          "internalType": "address",
          "name": "to",
          "type": "address"
        },
        {
          "indexed": true,
          "internalType": "uint256",
          "name": "tokenId",
          "type": "uint256"
        }
      ],
      "name": "Transfer",
      "type": "event"
    },
    {
      "inputs": [
        {
          "internalType": "uint256",
          "name": "",
          "type": "uint256"
        }
      ],
      "name": "catIndexToApproved",
      "outputs": [
        {
          "internalType": "address",
          "name": "",
          "type": "address"
        }
      ],
      "stateMutability": "view",
      "type": "function",
      "constant": true
    },
    {
      "inputs": [
        {
          "internalType": "uint256",
          "name": "",
          "type": "uint256"
        }
      ],
      "name": "catIndexToOwner",
      "outputs": [
        {
          "internalType": "address",
          "name": "",
          "type": "address"
        }
      ],
      "stateMutability": "view",
      "type": "function",
      "constant": true
    },
    {
      "inputs": [],
      "name": "gen0Counter",
      "outputs": [
        {
          "internalType": "uint256",
          "name": "",
          "type": "uint256"
        }
      ],
      "stateMutability": "view",
      "type": "function",
      "constant": true
    },
    {
      "inputs": [
        {
          "internalType": "uint256",
          "name": "_dadId",
          "type": "uint256"
        },
        {
          "internalType": "uint256",
          "name": "_mumId",
          "type": "uint256"
        }
      ],
      "name": "breed",
      "outputs": [],
      "stateMutability": "nonpayable",
      "type": "function"
    },
    {
      "inputs": [
        {
          "internalType": "uint256",
          "name": "_genes",
          "type": "uint256"
        }
      ],
      "name": "createCatGen0",
      "outputs": [],
      "stateMutability": "nonpayable",
      "type": "function"
    },
    {
      "inputs": [
        {
          "internalType": "uint256",
          "name": "_tokenId",
          "type": "uint256"
        }
      ],
      "name": "getCat",
      "outputs": [
        {
          "internalType": "uint256",
          "name": "",
          "type": "uint256"
        },
        {
          "internalType": "uint256",
          "name": "",
          "type": "uint256"
        },
        {
          "internalType": "uint256",
          "name": "",
          "type": "uint256"
        },
        {
          "internalType": "uint256",
          "name": "",
          "type": "uint256"
        },
        {
          "internalType": "uint256",
          "name": "",
          "type": "uint256"
        },
        {
          "internalType": "address",
          "name": "",
          "type": "address"
        }
      ],
      "stateMutability": "view",
      "type": "function",
      "constant": true
    },
    {
      "inputs": [
        {
          "internalType": "bytes4",
          "name": "_interfaceId",
          "type": "bytes4"
        }
      ],
      "name": "supportsInterface",
      "outputs": [
        {
          "internalType": "bool",
          "name": "",
          "type": "bool"
        }
      ],
      "stateMutability": "pure",
      "type": "function",
      "constant": true
    },
    {
      "inputs": [
        {
          "internalType": "address",
          "name": "owner",
          "type": "address"
        }
      ],
      "name": "balanceOf",
      "outputs": [
        {
          "internalType": "uint256",
          "name": "balance",
          "type": "uint256"
        }
      ],
      "stateMutability": "view",
      "type": "function",
      "constant": true
    },
    {
      "inputs": [],
      "name": "totalSupply",
      "outputs": [
        {
          "internalType": "uint256",
          "name": "total",
          "type": "uint256"
        }
      ],
      "stateMutability": "view",
      "type": "function",
      "constant": true
    },
    {
      "inputs": [
        {
          "internalType": "uint256",
          "name": "tokenId",
          "type": "uint256"
        }
      ],
      "name": "ownerOf",
      "outputs": [
        {
          "internalType": "address",
          "name": "owner",
          "type": "address"
        }
      ],
      "stateMutability": "view",
      "type": "function",
      "constant": true
    },
    {
      "inputs": [
        {
          "internalType": "address",
          "name": "to",
          "type": "address"
        },
        {
          "internalType": "uint256",
          "name": "tokenId",
          "type": "uint256"
        }
      ],
      "name": "transfer",
      "outputs": [],
      "stateMutability": "nonpayable",
      "type": "function"
    },
    {
      "inputs": [
        {
          "internalType": "address",
          "name": "to",
          "type": "address"
        },
        {
          "internalType": "uint256",
          "name": "_tokenId",
          "type": "uint256"
        }
      ],
      "name": "approve",
      "outputs": [],
      "stateMutability": "nonpayable",
      "type": "function"
    },
    {
      "inputs": [
        {
          "internalType": "address",
          "name": "operator",
          "type": "address"
        },
        {
          "internalType": "bool",
          "name": "approved",
          "type": "bool"
        }
      ],
      "name": "setApprovalForAll",
      "outputs": [],
      "stateMutability": "nonpayable",
      "type": "function"
    },
    {
      "inputs": [
        {
          "internalType": "uint256",
          "name": "_tokenId",
          "type": "uint256"
        }
      ],
      "name": "getApproved",
      "outputs": [
        {
          "internalType": "address",
          "name": "",
          "type": "address"
        }
      ],
      "stateMutability": "view",
      "type": "function",
      "constant": true
    },
    {
      "inputs": [
        {
          "internalType": "address",
          "name": "_owner",
          "type": "address"
        },
        {
          "internalType": "address",
          "name": "_operator",
          "type": "address"
        }
      ],
      "name": "isApprovedForAll",
      "outputs": [
        {
          "internalType": "bool",
          "name": "",
          "type": "bool"
        }
      ],
      "stateMutability": "view",
      "type": "function",
      "constant": true
    },
    {
      "inputs": [
        {
          "internalType": "address",
          "name": "_from",
          "type": "address"
        },
        {
          "internalType": "address",
          "name": "_to",
          "type": "address"
        },
        {
          "internalType": "uint256",
          "name": "_tokenId",
          "type": "uint256"
        }
      ],
      "name": "safeTransferFrom",
      "outputs": [],
      "stateMutability": "nonpayable",
      "type": "function"
    },
    {
      "inputs": [
        {
          "internalType": "address",
          "name": "_from",
          "type": "address"
        },
        {
          "internalType": "address",
          "name": "_to",
          "type": "address"
        },
        {
          "internalType": "uint256",
          "name": "_tokenId",
          "type": "uint256"
        },
        {
          "internalType": "bytes",
          "name": "data",
          "type": "bytes"
        }
      ],
      "name": "safeTransferFrom",
      "outputs": [],
      "stateMutability": "nonpayable",
      "type": "function"
    },
    {
      "inputs": [
        {
          "internalType": "address",
          "name": "_from",
          "type": "address"
        },
        {
          "internalType": "address",
          "name": "_to",
          "type": "address"
        },
        {
          "internalType": "uint256",
          "name": "_tokenId",
          "type": "uint256"
        }
      ],
      "name": "transferFrom",
      "outputs": [],
      "stateMutability": "nonpayable",
      "type": "function"
    },
    {
      "inputs": [],
      "name": "name",
      "outputs": [
        {
          "internalType": "string",
          "name": "tokenName",
          "type": "string"
        }
      ],
      "stateMutability": "pure",
      "type": "function",
      "constant": true
    },
    {
      "inputs": [],
      "name": "symbol",
      "outputs": [
        {
          "internalType": "string",
          "name": "tokenSymbol",
          "type": "string"
        }
      ],
      "stateMutability": "pure",
      "type": "function",
      "constant": true
    },
    {
      "inputs": [
        {
          "internalType": "address",
          "name": "_owner",
          "type": "address"
        }
      ],
      "name": "ownedTokens",
      "outputs": [
        {
          "internalType": "uint256[]",
          "name": "ownerTokens",
          "type": "uint256[]"
        }
      ],
      "stateMutability": "view",
      "type": "function",
      "constant": true
    }
  ],
  "bytecode": "0x60806040523480156200001157600080fd5b5060007fffffffffffffffffffffffffffffffffffffffffffffffffffffffffffffffff90506200004f60008060008460006200005760201b60201c565b50506200056a565b6000806040518060a001604052808867ffffffffffffffff1681526020014267ffffffffffffffff1681526020018763ffffffff1681526020018663ffffffff1681526020018561ffff16815250905060008190806001815401808255809150506001900390600052602060002090600202016000909190919091506000820151816000015560208201518160010160006101000a81548167ffffffffffffffff021916908367ffffffffffffffff16021790555060408201518160010160086101000a81548163ffffffff021916908363ffffffff160217905550606082015181600101600c6101000a81548163ffffffff021916908363ffffffff16021790555060808201518160010160106101000a81548161ffff021916908361ffff16021790555050506000600160008054905062000195919062000445565b90507f0a5311bd2a6608f08a180df2ee7c5946819a649b204b554bb8e39825b2c50ad5848289898c604051620001d0959493929190620003e8565b60405180910390a1620001ec60008583620001fa60201b60201c565b809250505095945050505050565b600160008373ffffffffffffffffffffffffffffffffffffffff1673ffffffffffffffffffffffffffffffffffffffff16815260200190815260200160002060008154809291906200024c90620004ed565b9190505550816002600083815260200190815260200160002060006101000a81548173ffffffffffffffffffffffffffffffffffffffff021916908373ffffffffffffffffffffffffffffffffffffffff160217905550600073ffffffffffffffffffffffffffffffffffffffff168373ffffffffffffffffffffffffffffffffffffffff16146200036657600160008473ffffffffffffffffffffffffffffffffffffffff1673ffffffffffffffffffffffffffffffffffffffff16815260200190815260200160002060008154809291906200032a90620004be565b91905055506003600082815260200190815260200160002060006101000a81549073ffffffffffffffffffffffffffffffffffffffff02191690555b808273ffffffffffffffffffffffffffffffffffffffff168473ffffffffffffffffffffffffffffffffffffffff167fddf252ad1be2c89b69c2b068fc378daa952ba7f163c4a11628f55a4df523b3ef60405160405180910390a4505050565b620003d18162000480565b82525050565b620003e281620004b4565b82525050565b600060a082019050620003ff6000830188620003c6565b6200040e6020830187620003d7565b6200041d6040830186620003d7565b6200042c6060830185620003d7565b6200043b6080830184620003d7565b9695505050505050565b60006200045282620004b4565b91506200045f83620004b4565b9250828210156200047557620004746200053b565b5b828203905092915050565b60006200048d8262000494565b9050919050565b600073ffffffffffffffffffffffffffffffffffffffff82169050919050565b6000819050919050565b6000620004cb82620004b4565b91506000821415620004e257620004e16200053b565b5b600182039050919050565b6000620004fa82620004b4565b91507fffffffffffffffffffffffffffffffffffffffffffffffffffffffffffffffff82141562000530576200052f6200053b565b5b600182019050919050565b7f4e487b7100000000000000000000000000000000000000000000000000000000600052601160045260246000fd5b612818806200057a6000396000f3fe608060405234801561001057600080fd5b50600436106101365760003560e01c80636352211e116100b8578063abadce781161007c578063abadce7814610362578063b12ab40f14610392578063b88d4fde146103c2578063d9ecad7b146103de578063e985e9c5146103fa578063ef5e94aa1461042a57610136565b80636352211e146102ac57806370a08231146102dc57806395d89b411461030c578063a22cb4651461032a578063a9059cbb1461034657610136565b806312a55c96116100ff57806312a55c961461020557806318160ddd1461022157806323b872dd1461023f57806342842e0e1461025b5780634da2b48e1461027757610136565b8062fef1041461013b57806301ffc9a71461016b57806306fdde031461019b578063081812fc146101b9578063095ea7b3146101e9575b600080fd5b61015560048036038101906101509190611d10565b610448565b6040516101629190611f7d565b60405180910390f35b61018560048036038101906101809190611cb6565b61047b565b60405161019291906120cc565b60405180910390f35b6101a361051b565b6040516101b091906120e7565b60405180910390f35b6101d360048036038101906101ce9190611d10565b610558565b6040516101e09190611f7d565b60405180910390f35b61020360048036038101906101fe9190611c49565b6105a5565b005b61021f600480360381019061021a9190611d10565b610621565b005b610229610697565b6040516102369190612189565b60405180910390f35b61025960048036038101906102549190611b2e565b6106a3565b005b61027560048036038101906102709190611b2e565b6106c8565b005b610291600480360381019061028c9190611d10565b61073c565b6040516102a3969594939291906121a4565b60405180910390f35b6102c660048036038101906102c19190611d10565b6108b4565b6040516102d39190611f7d565b60405180910390f35b6102f660048036038101906102f19190611ac1565b6108f1565b6040516103039190612189565b60405180910390f35b61031461093a565b60405161032191906120e7565b60405180910390f35b610344600480360381019061033f9190611c09565b610977565b005b610360600480360381019061035b9190611c49565b610a23565b005b61037c60048036038101906103779190611d10565b610b5a565b6040516103899190611f7d565b60405180910390f35b6103ac60048036038101906103a79190611ac1565b610b8d565b6040516103b991906120aa565b60405180910390f35b6103dc60048036038101906103d79190611b81565b610e0c565b005b6103f860048036038101906103f39190611d6a565b610e78565b005b610414600480360381019061040f9190611aee565b611006565b60405161042191906120cc565b60405180910390f35b61043261109a565b60405161043f9190612189565b60405180910390f35b60036020528060005260406000206000915054906101000a900473ffffffffffffffffffffffffffffffffffffffff1681565b60006380ac58cd60e01b7bffffffffffffffffffffffffffffffffffffffffffffffffffffffff1916827bffffffffffffffffffffffffffffffffffffffffffffffffffffffff1916148061051457506301ffc9a760e01b7bffffffffffffffffffffffffffffffffffffffffffffffffffffffff1916827bffffffffffffffffffffffffffffffffffffffffffffffffffffffff1916145b9050919050565b60606040518060400160405280600881526020017f5075727266656374000000000000000000000000000000000000000000000000815250905090565b60008080549050821061056a57600080fd5b6003600083815260200190815260200160002060009054906101000a900473ffffffffffffffffffffffffffffffffffffffff169050919050565b6105af33826110a0565b6105b857600080fd5b6105c2828261110c565b808273ffffffffffffffffffffffffffffffffffffffff163373ffffffffffffffffffffffffffffffffffffffff167f8c5be1e5ebec7d5bd14f71427d1e84f3dd0314c0f7b2291e5b200ac8c7c3b92560405160405180910390a45050565b3073ffffffffffffffffffffffffffffffffffffffff163373ffffffffffffffffffffffffffffffffffffffff161461065957600080fd5b600a61ffff166005541061066c57600080fd5b6005600081548092919061067f906124b2565b919050555061069381600080600033611162565b5050565b60008080549050905090565b6106af338484846112f9565b6106b857600080fd5b6106c3838383611435565b505050565b3073ffffffffffffffffffffffffffffffffffffffff1663b88d4fde8484846040518463ffffffff1660e01b81526004016107059392919061200d565b600060405180830381600087803b15801561071f57600080fd5b505af1158015610733573d6000803e3d6000fd5b50505050505050565b60008060008060008060008781548110610759576107586125e5565b5b9060005260206000209060020201600001546000888154811061077f5761077e6125e5565b5b906000526020600020906002020160010160009054906101000a900467ffffffffffffffff16600089815481106107b9576107b86125e5565b5b906000526020600020906002020160010160089054906101000a900463ffffffff1660008a815481106107ef576107ee6125e5565b5b9060005260206000209060020201600101600c9054906101000a900463ffffffff1660008b81548110610825576108246125e5565b5b906000526020600020906002020160010160109054906101000a900461ffff16600260008d815260200190815260200160002060009054906101000a900473ffffffffffffffffffffffffffffffffffffffff168467ffffffffffffffff1694508363ffffffff1693508263ffffffff1692508161ffff16915095509550955095509550955091939550919395565b60006002600083815260200190815260200160002060009054906101000a900473ffffffffffffffffffffffffffffffffffffffff169050919050565b6000600160008373ffffffffffffffffffffffffffffffffffffffff1673ffffffffffffffffffffffffffffffffffffffff168152602001908152602001600020549050919050565b60606040518060400160405280600481526020017f5055525200000000000000000000000000000000000000000000000000000000815250905090565b3373ffffffffffffffffffffffffffffffffffffffff168273ffffffffffffffffffffffffffffffffffffffff1614156109b057600080fd5b6109ba82826115fc565b8173ffffffffffffffffffffffffffffffffffffffff163373ffffffffffffffffffffffffffffffffffffffff167f17307eab39ab6107e8899845ad3d59bd9653f200f220920489ca2b5937696c3183604051610a1791906120cc565b60405180910390a35050565b600073ffffffffffffffffffffffffffffffffffffffff168273ffffffffffffffffffffffffffffffffffffffff161415610a93576040517f08c379a0000000000000000000000000000000000000000000000000000000008152600401610a8a90612169565b60405180910390fd5b3073ffffffffffffffffffffffffffffffffffffffff168273ffffffffffffffffffffffffffffffffffffffff161415610b02576040517f08c379a0000000000000000000000000000000000000000000000000000000008152600401610af990612169565b60405180910390fd5b610b0c33826110a0565b610b4b576040517f08c379a0000000000000000000000000000000000000000000000000000000008152600401610b4290612129565b60405180910390fd5b610b56338383611435565b5050565b60026020528060005260406000206000915054906101000a900473ffffffffffffffffffffffffffffffffffffffff1681565b606060003073ffffffffffffffffffffffffffffffffffffffff166370a08231846040518263ffffffff1660e01b8152600401610bca9190611f7d565b60206040518083038186803b158015610be257600080fd5b505afa158015610bf6573d6000803e3d6000fd5b505050506040513d601f19601f82011682018060405250810190610c1a9190611d3d565b90506000811415610c7757600067ffffffffffffffff811115610c4057610c3f612614565b5b604051908082528060200260200182016040528015610c6e5781602001602082028036833780820191505090505b50915050610e07565b60008167ffffffffffffffff811115610c9357610c92612614565b5b604051908082528060200260200182016040528015610cc15781602001602082028036833780820191505090505b50905060003073ffffffffffffffffffffffffffffffffffffffff166318160ddd6040518163ffffffff1660e01b815260040160206040518083038186803b158015610d0c57600080fd5b505afa158015610d20573d6000803e3d6000fd5b505050506040513d601f19601f82011682018060405250810190610d449190611d3d565b9050600080600190505b828111610dfe578673ffffffffffffffffffffffffffffffffffffffff166002600083815260200190815260200160002060009054906101000a900473ffffffffffffffffffffffffffffffffffffffff1673ffffffffffffffffffffffffffffffffffffffff161415610deb5780848381518110610dd057610dcf6125e5565b5b6020026020010181815250508180610de7906124b2565b9250505b8080610df6906124b2565b915050610d4e565b83955050505050505b919050565b610e18338686866112f9565b610e2157600080fd5b610e7185858585858080601f016020809104026020016040519081016040528093929190818152602001838380828437600081840152601f19601f82011690508083019250505050505050611694565b5050505050565b610e8233836110a0565b8015610e945750610e9333826110a0565b5b610ed3576040517f08c379a0000000000000000000000000000000000000000000000000000000008152600401610eca90612109565b60405180910390fd5b81811415610f16576040517f08c379a0000000000000000000000000000000000000000000000000000000008152600401610f0d90612149565b60405180910390fd5b6000610f2283836116ba565b905060008060008481548110610f3b57610f3a6125e5565b5b906000526020600020906002020160010160109054906101000a900461ffff1661ffff1690506000808681548110610f7657610f756125e5565b5b906000526020600020906002020160010160109054906101000a900461ffff1661ffff16905081811415610fb8578180610faf906124b2565b92509250610ff0565b81811015610fd4578080610fcb906124b2565b91509250610fef565b60028282610fe29190612276565b610fec91906122cc565b92505b5b610ffd8486888633611162565b50505050505050565b6000600460008473ffffffffffffffffffffffffffffffffffffffff1673ffffffffffffffffffffffffffffffffffffffff16815260200190815260200160002060008373ffffffffffffffffffffffffffffffffffffffff1673ffffffffffffffffffffffffffffffffffffffff16815260200190815260200160002060009054906101000a900460ff16905092915050565b60055481565b60008273ffffffffffffffffffffffffffffffffffffffff166002600084815260200190815260200160002060009054906101000a900473ffffffffffffffffffffffffffffffffffffffff1673ffffffffffffffffffffffffffffffffffffffff1614905092915050565b816003600083815260200190815260200160002060006101000a81548173ffffffffffffffffffffffffffffffffffffffff021916908373ffffffffffffffffffffffffffffffffffffffff1602179055505050565b6000806040518060a001604052808867ffffffffffffffff1681526020014267ffffffffffffffff1681526020018763ffffffff1681526020018663ffffffff1681526020018561ffff16815250905060008190806001815401808255809150506001900390600052602060002090600202016000909190919091506000820151816000015560208201518160010160006101000a81548167ffffffffffffffff021916908367ffffffffffffffff16021790555060408201518160010160086101000a81548163ffffffff021916908363ffffffff160217905550606082015181600101600c6101000a81548163ffffffff021916908363ffffffff16021790555060808201518160010160106101000a81548161ffff021916908361ffff16021790555050506000600160008054905061129e9190612392565b90507f0a5311bd2a6608f08a180df2ee7c5946819a649b204b554bb8e39825b2c50ad5848289898c6040516112d7959493929190612057565b60405180910390a16112eb60008583611435565b809250505095945050505050565b600061130584836110a0565b61130e57600080fd5b600073ffffffffffffffffffffffffffffffffffffffff168373ffffffffffffffffffffffffffffffffffffffff16141561134857600080fd5b600080549050821061135957600080fd5b8373ffffffffffffffffffffffffffffffffffffffff168573ffffffffffffffffffffffffffffffffffffffff16148061139957506113988583611816565b5b8061142b57503073ffffffffffffffffffffffffffffffffffffffff1663e985e9c585876040518363ffffffff1660e01b81526004016113da929190611f98565b60206040518083038186803b1580156113f257600080fd5b505afa158015611406573d6000803e3d6000fd5b505050506040513d601f19601f8201168201806040525081019061142a9190611c89565b5b9050949350505050565b600160008373ffffffffffffffffffffffffffffffffffffffff1673ffffffffffffffffffffffffffffffffffffffff1681526020019081526020016000206000815480929190611485906124b2565b9190505550816002600083815260200190815260200160002060006101000a81548173ffffffffffffffffffffffffffffffffffffffff021916908373ffffffffffffffffffffffffffffffffffffffff160217905550600073ffffffffffffffffffffffffffffffffffffffff168373ffffffffffffffffffffffffffffffffffffffff161461159c57600160008473ffffffffffffffffffffffffffffffffffffffff1673ffffffffffffffffffffffffffffffffffffffff168152602001908152602001600020600081548092919061156090612488565b91905055506003600082815260200190815260200160002060006101000a81549073ffffffffffffffffffffffffffffffffffffffff02191690555b808273ffffffffffffffffffffffffffffffffffffffff168473ffffffffffffffffffffffffffffffffffffffff167fddf252ad1be2c89b69c2b068fc378daa952ba7f163c4a11628f55a4df523b3ef60405160405180910390a4505050565b80600460003373ffffffffffffffffffffffffffffffffffffffff1673ffffffffffffffffffffffffffffffffffffffff16815260200190815260200160002060008473ffffffffffffffffffffffffffffffffffffffff1673ffffffffffffffffffffffffffffffffffffffff16815260200190815260200160002060006101000a81548160ff0219169083151502179055505050565b61169f848484611435565b6116ab84848484611882565b6116b457600080fd5b50505050565b60006116c46119b5565b60006101ff426116d49190612525565b905060006008905060005b6101008160ff161161179d5760008160ff16841661ffff161461172e576064866117099190612556565b61ffff168483600981106117205761171f6125e5565b5b60200201818152505061175c565b60648761173b9190612556565b61ffff16848360098110611752576117516125e5565b5b6020020181815250505b60648661176991906122cc565b955060648761177891906122cc565b96506001826117879190612392565b91506002816117969190612357565b90506116df565b50600080600090505b60098160ff16101561180857848160ff16600981106117c8576117c76125e5565b5b6020020151826117d89190612276565b915060088160ff16146117f5576064826117f291906122fd565b91505b8080611800906124fb565b9150506117a6565b508094505050505092915050565b60008273ffffffffffffffffffffffffffffffffffffffff166003600084815260200190815260200160002060009054906101000a900473ffffffffffffffffffffffffffffffffffffffff1673ffffffffffffffffffffffffffffffffffffffff1614905092915050565b600061188d8461199c565b61189a5760019050611994565b60008473ffffffffffffffffffffffffffffffffffffffff1663150b7a02338887876040518563ffffffff1660e01b81526004016118db9493929190611fc1565b602060405180830381600087803b1580156118f557600080fd5b505af1158015611909573d6000803e3d6000fd5b505050506040513d601f19601f8201168201806040525081019061192d9190611ce3565b90507f150b7a023d4804d13e8c85fb27262cb750cf6ba9f9dd3bb30d90f482ceeb4b1f7bffffffffffffffffffffffffffffffffffffffffffffffffffffffff1916817bffffffffffffffffffffffffffffffffffffffffffffffffffffffff1916149150505b949350505050565b600080823b905060008163ffffffff1611915050919050565b604051806101200160405280600990602082028036833780820191505090505090565b6000813590506119e781612786565b92915050565b6000813590506119fc8161279d565b92915050565b600081519050611a118161279d565b92915050565b600081359050611a26816127b4565b92915050565b600081519050611a3b816127b4565b92915050565b60008083601f840112611a5757611a56612648565b5b8235905067ffffffffffffffff811115611a7457611a73612643565b5b602083019150836001820283011115611a9057611a8f61264d565b5b9250929050565b600081359050611aa6816127cb565b92915050565b600081519050611abb816127cb565b92915050565b600060208284031215611ad757611ad6612657565b5b6000611ae5848285016119d8565b91505092915050565b60008060408385031215611b0557611b04612657565b5b6000611b13858286016119d8565b9250506020611b24858286016119d8565b9150509250929050565b600080600060608486031215611b4757611b46612657565b5b6000611b55868287016119d8565b9350506020611b66868287016119d8565b9250506040611b7786828701611a97565b9150509250925092565b600080600080600060808688031215611b9d57611b9c612657565b5b6000611bab888289016119d8565b9550506020611bbc888289016119d8565b9450506040611bcd88828901611a97565b935050606086013567ffffffffffffffff811115611bee57611bed612652565b5b611bfa88828901611a41565b92509250509295509295909350565b60008060408385031215611c2057611c1f612657565b5b6000611c2e858286016119d8565b9250506020611c3f858286016119ed565b9150509250929050565b60008060408385031215611c6057611c5f612657565b5b6000611c6e858286016119d8565b9250506020611c7f85828601611a97565b9150509250929050565b600060208284031215611c9f57611c9e612657565b5b6000611cad84828501611a02565b91505092915050565b600060208284031215611ccc57611ccb612657565b5b6000611cda84828501611a17565b91505092915050565b600060208284031215611cf957611cf8612657565b5b6000611d0784828501611a2c565b91505092915050565b600060208284031215611d2657611d25612657565b5b6000611d3484828501611a97565b91505092915050565b600060208284031215611d5357611d52612657565b5b6000611d6184828501611aac565b91505092915050565b60008060408385031215611d8157611d80612657565b5b6000611d8f85828601611a97565b9250506020611da085828601611a97565b9150509250929050565b6000611db68383611f5f565b60208301905092915050565b611dcb816123c6565b82525050565b6000611ddc82612215565b611de68185612243565b9350611df183612205565b8060005b83811015611e22578151611e098882611daa565b9750611e1483612236565b925050600181019050611df5565b5085935050505092915050565b611e38816123d8565b82525050565b6000611e4982612220565b611e538185612254565b9350611e63818560208601612455565b611e6c8161265c565b840191505092915050565b6000611e828261222b565b611e8c8185612265565b9350611e9c818560208601612455565b611ea58161265c565b840191505092915050565b6000611ebd602883612265565b9150611ec88261266d565b604082019050919050565b6000611ee0602683612265565b9150611eeb826126bc565b604082019050919050565b6000611f03600083612254565b9150611f0e8261270b565b600082019050919050565b6000611f26601a83612265565b9150611f318261270e565b602082019050919050565b6000611f49602283612265565b9150611f5482612737565b604082019050919050565b611f688161243e565b82525050565b611f778161243e565b82525050565b6000602082019050611f926000830184611dc2565b92915050565b6000604082019050611fad6000830185611dc2565b611fba6020830184611dc2565b9392505050565b6000608082019050611fd66000830187611dc2565b611fe36020830186611dc2565b611ff06040830185611f6e565b81810360608301526120028184611e3e565b905095945050505050565b60006080820190506120226000830186611dc2565b61202f6020830185611dc2565b61203c6040830184611f6e565b818103606083015261204d81611ef6565b9050949350505050565b600060a08201905061206c6000830188611dc2565b6120796020830187611f6e565b6120866040830186611f6e565b6120936060830185611f6e565b6120a06080830184611f6e565b9695505050505050565b600060208201905081810360008301526120c48184611dd1565b905092915050565b60006020820190506120e16000830184611e2f565b92915050565b600060208201905081810360008301526121018184611e77565b905092915050565b6000602082019050818103600083015261212281611eb0565b9050919050565b6000602082019050818103600083015261214281611ed3565b9050919050565b6000602082019050818103600083015261216281611f19565b9050919050565b6000602082019050818103600083015261218281611f3c565b9050919050565b600060208201905061219e6000830184611f6e565b92915050565b600060c0820190506121b96000830189611f6e565b6121c66020830188611f6e565b6121d36040830187611f6e565b6121e06060830186611f6e565b6121ed6080830185611f6e565b6121fa60a0830184611dc2565b979650505050505050565b6000819050602082019050919050565b600081519050919050565b600081519050919050565b600081519050919050565b6000602082019050919050565b600082825260208201905092915050565b600082825260208201905092915050565b600082825260208201905092915050565b60006122818261243e565b915061228c8361243e565b9250827fffffffffffffffffffffffffffffffffffffffffffffffffffffffffffffffff038211156122c1576122c0612587565b5b828201905092915050565b60006122d78261243e565b91506122e28361243e565b9250826122f2576122f16125b6565b5b828204905092915050565b60006123088261243e565b91506123138361243e565b9250817fffffffffffffffffffffffffffffffffffffffffffffffffffffffffffffffff048311821515161561234c5761234b612587565b5b828202905092915050565b600061236282612448565b915061236d83612448565b92508160ff048311821515161561238757612386612587565b5b828202905092915050565b600061239d8261243e565b91506123a88361243e565b9250828210156123bb576123ba612587565b5b828203905092915050565b60006123d18261241e565b9050919050565b60008115159050919050565b60007fffffffff0000000000000000000000000000000000000000000000000000000082169050919050565b600061ffff82169050919050565b600073ffffffffffffffffffffffffffffffffffffffff82169050919050565b6000819050919050565b600060ff82169050919050565b60005b83811015612473578082015181840152602081019050612458565b83811115612482576000848401525b50505050565b60006124938261243e565b915060008214156124a7576124a6612587565b5b600182039050919050565b60006124bd8261243e565b91507fffffffffffffffffffffffffffffffffffffffffffffffffffffffffffffffff8214156124f0576124ef612587565b5b600182019050919050565b600061250682612448565b915060ff82141561251a57612519612587565b5b600182019050919050565b600061253082612410565b915061253b83612410565b92508261254b5761254a6125b6565b5b828206905092915050565b60006125618261243e565b915061256c8361243e565b92508261257c5761257b6125b6565b5b828206905092915050565b7f4e487b7100000000000000000000000000000000000000000000000000000000600052601160045260246000fd5b7f4e487b7100000000000000000000000000000000000000000000000000000000600052601260045260246000fd5b7f4e487b7100000000000000000000000000000000000000000000000000000000600052603260045260246000fd5b7f4e487b7100000000000000000000000000000000000000000000000000000000600052604160045260246000fd5b600080fd5b600080fd5b600080fd5b600080fd5b600080fd5b6000601f19601f8301169050919050565b7f596f75206d757374206f776e20626f7468206361747320696e206f726465722060008201527f746f206272656564000000000000000000000000000000000000000000000000602082015250565b7f596f75204d757374204f776e2054686520546f6b656e20596f7520417265205360008201527f656e64696e670000000000000000000000000000000000000000000000000000602082015250565b50565b7f546865206361742063616e277420627265656420697473656c66000000000000600082015250565b7f43616e6e6f742053656e6420546f6b656e7320546f205468697320416464726560008201527f7373000000000000000000000000000000000000000000000000000000000000602082015250565b61278f816123c6565b811461279a57600080fd5b50565b6127a6816123d8565b81146127b157600080fd5b50565b6127bd816123e4565b81146127c857600080fd5b50565b6127d48161243e565b81146127df57600080fd5b5056fea2646970667358221220c8124497f128d49e94068b6e6461247bfbe99a1fa737e85adfaa6d9c79bb29e264736f6c63430008060033",
  "immutableReferences": {},
  "source": "pragma solidity >=0.4.22 <0.9.0;\n\nimport \"./IERC721.sol\";\nimport \"./IERC721Receiver.sol\";\n\ncontract Catcontract is IERC721 {\n\nstring private  constant Name = \"Purrfect\";\nstring private constant Symbol = \"PURR\";\nuint16 private constant Gen0_Creation_Limit = 10;\nbytes4 internal constant MAGIC_ERC721_RECEIVED= bytes4(keccak256(\"onERC721Received(address,address,uint256,bytes)\"));\nbytes4 private constant _INTERFACE_ID_ERC721 = 0x80ac58cd;\nbytes4 private constant _INTERFACE_ID_ERC165 = 0x01ffc9a7;\n\nevent Birth(address owner, uint256 catId, uint256 mumId, uint256 dadId, uint256 genes);\n\nmodifier onlyOwner{\n    require(msg.sender == address(this));\n    _;\n}\n\nstruct Cat {\n    uint256 genes;\n    uint64 birthTime;\n    uint32 mumId;\n    uint32 dadId;\n    uint16 generation;\n}\n\nCat[] cats;\n//        owner => amount\nmapping(address => uint256) ownerTokenBalance;\n\n//      tokenId => owner of cat\nmapping(uint256 => address) public catIndexToOwner;\n\n// tokenId => another approved address \nmapping(uint256 => address) public catIndexToApproved;\n\nmapping(address => mapping(address => bool)) private operatorApprovals;\n\nuint256 public gen0Counter;\n\nconstructor(){\n    uint256 gen = type(uint256).max;\n    _createCat(0, 0, 0, gen, address(0));//_createCat(0, 0, 0, gen-1, address(0))\n}\n\nfunction breed(uint256 _dadId, uint256 _mumId) public {\n    //check ownership\n    //check you got the dna\n    //figure out the generation\n    //create a new cat with new properties, give it to msg.sender\n    require(owns(msg.sender, _dadId) && owns(msg.sender, _mumId), \"You must own both cats in order to breed\");\n    require(_mumId != _dadId, \"The cat can't breed itself\");\n    uint256 newCatDna = mixDna(_dadId, _mumId);\n    \n    uint256 newGen; \n    uint256 mumGen = cats[_mumId].generation;\n    uint256 dadGen = cats[_dadId].generation;\n\n    if(dadGen == mumGen){\n        newGen = mumGen++;\n    }else if(dadGen < mumGen){\n        newGen = dadGen++;\n    }else{\n        newGen = (dadGen + mumGen) / 2;\n    }\n    \n    _createCat(newCatDna, _mumId, _dadId, newGen, msg.sender);\n}\n\nfunction mixDna(uint256 _dadDNA, uint256 _mumDNA) internal view returns(uint256){\n    uint256[9] memory geneArray;\n    //sudo random number\n    uint16 random = uint16(block.timestamp)%511; //binary between 000000000-111111111\n    \n    uint256 index = 8;\n    for(uint8 i = 0; i <= 256; i=i*2){ //1, 2, 4, 8, 16, 32, 64, 128, 256 = 9 pairs\n        if(random & i != 0){\n            geneArray[index] = uint16( _mumDNA % 100);\n        }else{\n            geneArray[index] = uint16( _dadDNA % 100);\n        }\n            _mumDNA = _mumDNA / 100;//removing the last two digits by moving the decimal point\n            _dadDNA = _dadDNA / 100;\n            index = index -1; \n    }\n    uint256 newGene;\n    for(uint8 i = 0; i < 9; i++){\n        newGene = newGene + geneArray[i];\n        if(i != 8){\n            newGene = newGene *100;\n        }\n    }\n    return newGene;\n\n}\n\nfunction createCatGen0(uint256 _genes)public onlyOwner{\n    require(gen0Counter < Gen0_Creation_Limit);\n    gen0Counter++;\n\n    _createCat(_genes, 0, 0, 0, msg.sender);\n}\n\nfunction _createCat(\n    uint256 _genes,\n    uint256 _mumId,\n    uint256 _dadId,\n    uint256 _generation,\n    address _owner\n)internal returns(uint256){\n    Cat memory _cat = Cat({\n        genes: uint64(_genes),\n        birthTime: uint64(block.timestamp),\n        mumId: uint32(_mumId),\n        dadId: uint32(_dadId),\n        generation: uint16(_generation)\n    });\n\n    //uint256 newCatId = cats.push(_cat)-1;\n    cats.push(_cat);\n    uint256 newCatId = cats.length - 1;\n     \n\n    emit Birth(_owner, newCatId, _mumId, _dadId, _genes);\n\n    _transfer(address(0), _owner, newCatId);\n\n    return newCatId;\n}\n\n    //returning the values in uint256 due to front end preferences (easier to read)\n    function getCat(uint256 _tokenId) public view returns(uint256, uint256, uint256, uint256, uint256, address){\n        return(cats[_tokenId].genes,\n                cats[_tokenId].birthTime,\n                cats[_tokenId].mumId,\n                cats[_tokenId].dadId,\n                cats[_tokenId].generation,\n                catIndexToOwner[_tokenId]\n                );\n    }\n\n    function supportsInterface(bytes4 _interfaceId) external pure returns (bool){\n        return(_interfaceId ==_INTERFACE_ID_ERC721 || _interfaceId == _INTERFACE_ID_ERC165);\n    }\n\n    function balanceOf(address owner) external view override returns (uint256 balance){\n        balance = ownerTokenBalance[owner];\n        return balance;\n    }\n\n    function totalSupply() external view override returns (uint256 total){\n        total = cats.length;\n        return total; \n    }\n\n    function ownerOf(uint256 tokenId) external view override returns (address owner){\n        return catIndexToOwner[tokenId];\n    }\n\n\n    function transfer(address to, uint256 tokenId) external override{\n        require(to != address(0), \"Cannot Send Tokens To This Address\");\n        require(to != address(this), \"Cannot Send Tokens To This Address\");\n        require(owns(msg.sender, tokenId), \"You Must Own The Token You Are Sending\");\n        _transfer(msg.sender, to, tokenId);\n    }\n\n    function _transfer(address from, address _to, uint256 _tokenId) internal {\n        ownerTokenBalance[_to]++;\n        catIndexToOwner[_tokenId] = _to;\n\n        //(edge case senario) when we mint new cats we dont want to decrease the token count\n        if(from != address (0)) {\n            ownerTokenBalance[from]--;\n            //this makes sure that the approval history for that token is erased\n            delete catIndexToApproved[_tokenId];\n        }\n        emit Transfer(from, _to, _tokenId);\n    }\n\n    function owns(address claimant, uint256 _tokenId) internal view returns (bool){\n        return catIndexToOwner[_tokenId] == claimant;\n    }\n\n    function approve(address to, uint256 _tokenId) external override {\n        require(owns(msg.sender, _tokenId));\n        _approve(to, _tokenId);\n        emit Approval(msg.sender, to, _tokenId);\n    }\n\n    function _approve(address approved, uint256 tokenId) internal {\n        catIndexToApproved[tokenId] = approved;\n    }\n\n    function setApprovalForAll(address operator, bool approved) external override{ \n        require(operator != msg.sender);\n        _setApprovalForAll(operator, approved);\n        emit ApprovalForAll(msg.sender, operator, approved);\n    }\n\n    function _setApprovalForAll(address _operator, bool _approved) internal{\n        operatorApprovals[msg.sender][_operator] = _approved;\n    }\n\n    function getApproved(uint256 _tokenId) external view override returns (address){\n        require(_tokenId < cats.length);//check that the token exists\n        return catIndexToApproved[_tokenId];\n    }\n\n    function isApprovedForAll(address _owner, address _operator) external override view returns (bool){\n        //returns the mapping status for these inputs\n        return operatorApprovals[_owner][_operator];\n    } \n    function safeTransferFrom(address _from, address _to, uint256 _tokenId) external override{\n        this.safeTransferFrom(_from, _to, _tokenId, \"\");\n    }\n\n    function safeTransferFrom(address _from, address _to, uint256 _tokenId, bytes calldata data) external override{\n        require(ownerOrApprovedCheck(msg.sender, _from, _to, _tokenId));\n        _safeTransfer(_from, _to, _tokenId, data);\n    }\n\n    function _safeTransfer(address from, address to, uint256 tokenId, bytes memory data)internal {\n        _transfer(from, to, tokenId);\n        require(_checkERC721Support(from, to, tokenId, data));\n    }\n\n    function transferFrom(address _from, address _to, uint256 _tokenId) external override{\n        require(ownerOrApprovedCheck(msg.sender, _from, _to, _tokenId));\n        _transfer(_from, _to, _tokenId);\n    }\n\n    function _checkERC721Support(address from, address to, uint256 tokenId, bytes memory data) internal returns(bool){\n        if( !isContract(to) ){\n            return true; //if it is not a contract return true\n        }\n        //call onERC721Recieved in the to contract\n        bytes4 returnData = IERC721Receiver(to).onERC721Received(msg.sender, from, tokenId, data);\n        return returnData == MAGIC_ERC721_RECEIVED;\n    }\n\n    function isContract(address _to) internal view returns(bool){\n        uint32 size;\n        assembly{\n            size := extcodesize(_to)\n        }\n\n        return size > 0;\n    }\n\n    function approvedFor(address claimant, uint256 tokenId) internal view returns(bool){\n        return catIndexToApproved[tokenId] == claimant;\n    }\n\n    function name() external pure override returns (string memory tokenName){    return Name;    }\n    function symbol() external pure override returns (string memory tokenSymbol){    return Symbol;  }\n\n    //to reduce code duplication, made an internal function with the require statements and returns true/false\n    function ownerOrApprovedCheck(address spender, address _from, address _to, uint256 _tokenId) internal view returns(bool){\n        require(owns(_from, _tokenId));\n        require(_to != address(0));\n        require(_tokenId < cats.length);\n        return(spender == _from || approvedFor(spender, _tokenId) || this.isApprovedForAll(_from, spender));\n\n    }\n\n    function ownedTokens(address _owner) public view returns(uint256[] memory ownerTokens) {\n    uint256 tokenCount = this.balanceOf(_owner);\n\n    if (tokenCount == 0) {\n        return new uint256[](0);\n    } else {\n        uint256[] memory result = new uint256[](tokenCount);\n        uint256 totalCats = this.totalSupply();\n        uint256 resultIndex = 0;\n\n        uint256 catId;\n\n        for (catId = 1; catId <= totalCats; catId++) {\n            if (catIndexToOwner[catId] == _owner) {\n                result[resultIndex] = catId;\n                resultIndex++;\n            }\n        }\n\n        return result;\n    }\n    \n    }\n}",
  "sourcePath": "/Users/OllieFrancis/Documents/Ethereum/Crypto-Cats-Dapp/contracts/CatContract.sol",
  "compiler": {
    "name": "solc",
    "version": "0.8.6+commit.11564f7e.Emscripten.clang"
  },
  "schemaVersion": "3.4.2",
  "updatedAt": "2021-08-06T10:46:17.469Z",
  "networkType": "ethereum",
  "devdoc": {
    "kind": "dev",
    "methods": {
      "balanceOf(address)": {
        "details": "Returns the number of tokens in ``owner``'s account."
      },
      "getApproved(uint256)": {
        "details": "Throws if `_tokenId` is not a valid NFT.",
        "params": {
          "_tokenId": "The NFT to find the approved address for"
        },
        "returns": {
          "_0": "The approved address for this NFT, or the zero address if there is none"
        }
      },
      "isApprovedForAll(address,address)": {
        "params": {
          "_operator": "The address that acts on behalf of the owner",
          "_owner": "The address that owns the NFTs"
        },
        "returns": {
          "_0": "True if `_operator` is an approved operator for `_owner`, false otherwise"
        }
      },
      "ownerOf(uint256)": {
        "details": "Returns the owner of the `tokenId` token. Requirements: - `tokenId` must exist."
      },
      "safeTransferFrom(address,address,uint256)": {
        "details": "This works identically to the other function with an extra data parameter,  except this function just sets data to \"\".",
        "params": {
          "_from": "The current owner of the NFT",
          "_to": "The new owner",
          "_tokenId": "The NFT to transfer"
        }
      },
      "safeTransferFrom(address,address,uint256,bytes)": {
        "details": "Throws unless `msg.sender` is the current owner, an authorized  operator, or the approved address for this NFT. Throws if `_from` is  not the current owner. Throws if `_to` is the zero address. Throws if  `_tokenId` is not a valid NFT. When transfer is complete, this function  checks if `_to` is a smart contract (code size > 0). If so, it calls  `onERC721Received` on `_to` and throws if the return value is not  `bytes4(keccak256(\"onERC721Received(address,address,uint256,bytes)\"))`.",
        "params": {
          "_from": "The current owner of the NFT",
          "_to": "The new owner",
          "_tokenId": "The NFT to transfer",
          "data": "Additional data with no specified format, sent in call to `_to`"
        }
      },
      "transferFrom(address,address,uint256)": {
        "details": "Throws unless `msg.sender` is the current owner, an authorized  operator, or the approved address for this NFT. Throws if `_from` is  not the current owner. Throws if `_to` is the zero address. Throws if  `_tokenId` is not a valid NFT.",
        "params": {
          "_from": "The current owner of the NFT",
          "_to": "The new owner",
          "_tokenId": "The NFT to transfer"
        }
      }
    },
    "version": 1
  },
  "userdoc": {
    "kind": "user",
    "methods": {
      "getApproved(uint256)": {
        "notice": "Get the approved address for a single NFT"
      },
      "isApprovedForAll(address,address)": {
        "notice": "Query if an address is an authorized operator for another address"
      },
      "safeTransferFrom(address,address,uint256)": {
        "notice": "Transfers the ownership of an NFT from one address to another address"
      },
      "safeTransferFrom(address,address,uint256,bytes)": {
        "notice": "Transfers the ownership of an NFT from one address to another address"
      },
      "transferFrom(address,address,uint256)": {
        "notice": "Transfer ownership of an NFT -- THE CALLER IS RESPONSIBLE  TO CONFIRM THAT `_to` IS CAPABLE OF RECEIVING NFTS OR ELSE  THEY MAY BE PERMANENTLY LOST"
      }
    },
    "version": 1
  }
}