{
  "contractName": "Catcontract",
  "abi": [
    {
      "inputs": [],
      "stateMutability": "nonpayable",
      "type": "constructor"
    },
    {
      "anonymous": false,
      "inputs": [
        {
          "indexed": true,
          "internalType": "address",
          "name": "owner",
          "type": "address"
        },
        {
          "indexed": true,
          "internalType": "address",
          "name": "approved",
          "type": "address"
        },
        {
          "indexed": true,
          "internalType": "uint256",
          "name": "tokenId",
          "type": "uint256"
        }
      ],
      "name": "Approval",
      "type": "event"
    },
    {
      "anonymous": false,
      "inputs": [
        {
          "indexed": true,
          "internalType": "address",
          "name": "owner",
          "type": "address"
        },
        {
          "indexed": true,
          "internalType": "address",
          "name": "operator",
          "type": "address"
        },
        {
          "indexed": false,
          "internalType": "bool",
          "name": "approved",
          "type": "bool"
        }
      ],
      "name": "ApprovalForAll",
      "type": "event"
    },
    {
      "anonymous": false,
      "inputs": [
        {
          "indexed": false,
          "internalType": "address",
          "name": "owner",
          "type": "address"
        },
        {
          "indexed": false,
          "internalType": "uint256",
          "name": "catId",
          "type": "uint256"
        },
        {
          "indexed": false,
          "internalType": "uint256",
          "name": "mumId",
          "type": "uint256"
        },
        {
          "indexed": false,
          "internalType": "uint256",
          "name": "dadId",
          "type": "uint256"
        },
        {
          "indexed": false,
          "internalType": "uint256",
          "name": "genes",
          "type": "uint256"
        }
      ],
      "name": "Birth",
      "type": "event"
    },
    {
      "anonymous": false,
      "inputs": [
        {
          "indexed": true,
          "internalType": "address",
          "name": "from",
          "type": "address"
        },
        {
          "indexed": true,
          "internalType": "address",
          "name": "to",
          "type": "address"
        },
        {
          "indexed": true,
          "internalType": "uint256",
          "name": "tokenId",
          "type": "uint256"
        }
      ],
      "name": "Transfer",
      "type": "event"
    },
    {
      "inputs": [
        {
          "internalType": "uint256",
          "name": "",
          "type": "uint256"
        }
      ],
      "name": "catIndexToApproved",
      "outputs": [
        {
          "internalType": "address",
          "name": "",
          "type": "address"
        }
      ],
      "stateMutability": "view",
      "type": "function",
      "constant": true
    },
    {
      "inputs": [
        {
          "internalType": "uint256",
          "name": "",
          "type": "uint256"
        }
      ],
      "name": "catIndexToOwner",
      "outputs": [
        {
          "internalType": "address",
          "name": "",
          "type": "address"
        }
      ],
      "stateMutability": "view",
      "type": "function",
      "constant": true
    },
    {
      "inputs": [],
      "name": "contractOwner",
      "outputs": [
        {
          "internalType": "address",
          "name": "",
          "type": "address"
        }
      ],
      "stateMutability": "view",
      "type": "function",
      "constant": true
    },
    {
      "inputs": [],
      "name": "gen0Counter",
      "outputs": [
        {
          "internalType": "uint256",
          "name": "",
          "type": "uint256"
        }
      ],
      "stateMutability": "view",
      "type": "function",
      "constant": true
    },
    {
      "inputs": [
        {
          "internalType": "uint256",
          "name": "_dadId",
          "type": "uint256"
        },
        {
          "internalType": "uint256",
          "name": "_mumId",
          "type": "uint256"
        }
      ],
      "name": "breed",
      "outputs": [
        {
          "internalType": "uint256",
          "name": "",
          "type": "uint256"
        }
      ],
      "stateMutability": "nonpayable",
      "type": "function"
    },
    {
      "inputs": [
        {
          "internalType": "uint256",
          "name": "_dadDna",
          "type": "uint256"
        },
        {
          "internalType": "uint256",
          "name": "_mumDna",
          "type": "uint256"
        }
      ],
      "name": "mixDna",
      "outputs": [
        {
          "internalType": "uint256",
          "name": "",
          "type": "uint256"
        }
      ],
      "stateMutability": "view",
      "type": "function",
      "constant": true
    },
    {
      "inputs": [
        {
          "internalType": "uint256",
          "name": "_genes",
          "type": "uint256"
        }
      ],
      "name": "createCatGen0",
      "outputs": [],
      "stateMutability": "nonpayable",
      "type": "function"
    },
    {
      "inputs": [
        {
          "internalType": "uint256",
          "name": "_tokenId",
          "type": "uint256"
        }
      ],
      "name": "getCat",
      "outputs": [
        {
          "internalType": "uint256",
          "name": "genes",
          "type": "uint256"
        },
        {
          "internalType": "uint256",
          "name": "birthTime",
          "type": "uint256"
        },
        {
          "internalType": "uint256",
          "name": "mumId",
          "type": "uint256"
        },
        {
          "internalType": "uint256",
          "name": "dadId",
          "type": "uint256"
        },
        {
          "internalType": "uint256",
          "name": "generation",
          "type": "uint256"
        },
        {
          "internalType": "address",
          "name": "owner",
          "type": "address"
        }
      ],
      "stateMutability": "view",
      "type": "function",
      "constant": true
    },
    {
      "inputs": [
        {
          "internalType": "bytes4",
          "name": "_interfaceId",
          "type": "bytes4"
        }
      ],
      "name": "supportsInterface",
      "outputs": [
        {
          "internalType": "bool",
          "name": "",
          "type": "bool"
        }
      ],
      "stateMutability": "pure",
      "type": "function",
      "constant": true
    },
    {
      "inputs": [
        {
          "internalType": "address",
          "name": "owner",
          "type": "address"
        }
      ],
      "name": "balanceOf",
      "outputs": [
        {
          "internalType": "uint256",
          "name": "balance",
          "type": "uint256"
        }
      ],
      "stateMutability": "view",
      "type": "function",
      "constant": true
    },
    {
      "inputs": [],
      "name": "totalSupply",
      "outputs": [
        {
          "internalType": "uint256",
          "name": "total",
          "type": "uint256"
        }
      ],
      "stateMutability": "view",
      "type": "function",
      "constant": true
    },
    {
      "inputs": [
        {
          "internalType": "uint256",
          "name": "tokenId",
          "type": "uint256"
        }
      ],
      "name": "ownerOf",
      "outputs": [
        {
          "internalType": "address",
          "name": "owner",
          "type": "address"
        }
      ],
      "stateMutability": "view",
      "type": "function",
      "constant": true
    },
    {
      "inputs": [
        {
          "internalType": "address",
          "name": "to",
          "type": "address"
        },
        {
          "internalType": "uint256",
          "name": "tokenId",
          "type": "uint256"
        }
      ],
      "name": "transfer",
      "outputs": [],
      "stateMutability": "nonpayable",
      "type": "function"
    },
    {
      "inputs": [
        {
          "internalType": "address",
          "name": "to",
          "type": "address"
        },
        {
          "internalType": "uint256",
          "name": "_tokenId",
          "type": "uint256"
        }
      ],
      "name": "approve",
      "outputs": [],
      "stateMutability": "nonpayable",
      "type": "function"
    },
    {
      "inputs": [
        {
          "internalType": "address",
          "name": "operator",
          "type": "address"
        },
        {
          "internalType": "bool",
          "name": "approved",
          "type": "bool"
        }
      ],
      "name": "setApprovalForAll",
      "outputs": [],
      "stateMutability": "nonpayable",
      "type": "function"
    },
    {
      "inputs": [
        {
          "internalType": "uint256",
          "name": "_tokenId",
          "type": "uint256"
        }
      ],
      "name": "getApproved",
      "outputs": [
        {
          "internalType": "address",
          "name": "",
          "type": "address"
        }
      ],
      "stateMutability": "view",
      "type": "function",
      "constant": true
    },
    {
      "inputs": [
        {
          "internalType": "address",
          "name": "_owner",
          "type": "address"
        },
        {
          "internalType": "address",
          "name": "_operator",
          "type": "address"
        }
      ],
      "name": "isApprovedForAll",
      "outputs": [
        {
          "internalType": "bool",
          "name": "",
          "type": "bool"
        }
      ],
      "stateMutability": "view",
      "type": "function",
      "constant": true
    },
    {
      "inputs": [
        {
          "internalType": "address",
          "name": "_from",
          "type": "address"
        },
        {
          "internalType": "address",
          "name": "_to",
          "type": "address"
        },
        {
          "internalType": "uint256",
          "name": "_tokenId",
          "type": "uint256"
        }
      ],
      "name": "safeTransferFrom",
      "outputs": [],
      "stateMutability": "nonpayable",
      "type": "function"
    },
    {
      "inputs": [
        {
          "internalType": "address",
          "name": "_from",
          "type": "address"
        },
        {
          "internalType": "address",
          "name": "_to",
          "type": "address"
        },
        {
          "internalType": "uint256",
          "name": "_tokenId",
          "type": "uint256"
        },
        {
          "internalType": "bytes",
          "name": "data",
          "type": "bytes"
        }
      ],
      "name": "safeTransferFrom",
      "outputs": [],
      "stateMutability": "nonpayable",
      "type": "function"
    },
    {
      "inputs": [
        {
          "internalType": "address",
          "name": "_from",
          "type": "address"
        },
        {
          "internalType": "address",
          "name": "_to",
          "type": "address"
        },
        {
          "internalType": "uint256",
          "name": "_tokenId",
          "type": "uint256"
        }
      ],
      "name": "transferFrom",
      "outputs": [],
      "stateMutability": "nonpayable",
      "type": "function"
    },
    {
      "inputs": [],
      "name": "name",
      "outputs": [
        {
          "internalType": "string",
          "name": "tokenName",
          "type": "string"
        }
      ],
      "stateMutability": "pure",
      "type": "function",
      "constant": true
    },
    {
      "inputs": [],
      "name": "symbol",
      "outputs": [
        {
          "internalType": "string",
          "name": "tokenSymbol",
          "type": "string"
        }
      ],
      "stateMutability": "pure",
      "type": "function",
      "constant": true
    },
    {
      "inputs": [
        {
          "internalType": "address",
          "name": "_owner",
          "type": "address"
        }
      ],
      "name": "ownedTokens",
      "outputs": [
        {
          "internalType": "uint256[]",
          "name": "ownerTokens",
          "type": "uint256[]"
        }
      ],
      "stateMutability": "view",
      "type": "function",
      "constant": true
    }
  ],
  "bytecode": "0x60806040523480156200001157600080fd5b50336000806101000a81548173ffffffffffffffffffffffffffffffffffffffff021916908373ffffffffffffffffffffffffffffffffffffffff16021790555060007fffffffffffffffffffffffffffffffffffffffffffffffffffffffffffffffff90506200008f60008060008460006200009760201b60201c565b50506200059f565b6000806040518060a001604052808881526020014267ffffffffffffffff1681526020018763ffffffff1681526020018663ffffffff1681526020018561ffff16815250905060018190806001815401808255809150506001900390600052602060002090600202016000909190919091506000820151816000015560208201518160010160006101000a81548167ffffffffffffffff021916908367ffffffffffffffff16021790555060408201518160010160086101000a81548163ffffffff021916908363ffffffff160217905550606082015181600101600c6101000a81548163ffffffff021916908363ffffffff16021790555060808201518160010160106101000a81548161ffff021916908361ffff1602179055505050600060018080549050620001ca91906200047a565b90507f0a5311bd2a6608f08a180df2ee7c5946819a649b204b554bb8e39825b2c50ad5848289898c604051620002059594939291906200041d565b60405180910390a162000221600085836200022f60201b60201c565b809250505095945050505050565b600260008373ffffffffffffffffffffffffffffffffffffffff1673ffffffffffffffffffffffffffffffffffffffff1681526020019081526020016000206000815480929190620002819062000522565b9190505550816003600083815260200190815260200160002060006101000a81548173ffffffffffffffffffffffffffffffffffffffff021916908373ffffffffffffffffffffffffffffffffffffffff160217905550600073ffffffffffffffffffffffffffffffffffffffff168373ffffffffffffffffffffffffffffffffffffffff16146200039b57600260008473ffffffffffffffffffffffffffffffffffffffff1673ffffffffffffffffffffffffffffffffffffffff16815260200190815260200160002060008154809291906200035f90620004f3565b91905055506004600082815260200190815260200160002060006101000a81549073ffffffffffffffffffffffffffffffffffffffff02191690555b808273ffffffffffffffffffffffffffffffffffffffff168473ffffffffffffffffffffffffffffffffffffffff167fddf252ad1be2c89b69c2b068fc378daa952ba7f163c4a11628f55a4df523b3ef60405160405180910390a4505050565b6200040681620004b5565b82525050565b6200041781620004e9565b82525050565b600060a082019050620004346000830188620003fb565b6200044360208301876200040c565b6200045260408301866200040c565b6200046160608301856200040c565b6200047060808301846200040c565b9695505050505050565b60006200048782620004e9565b91506200049483620004e9565b925082821015620004aa57620004a962000570565b5b828203905092915050565b6000620004c282620004c9565b9050919050565b600073ffffffffffffffffffffffffffffffffffffffff82169050919050565b6000819050919050565b60006200050082620004e9565b9150600082141562000517576200051662000570565b5b600182039050919050565b60006200052f82620004e9565b91507fffffffffffffffffffffffffffffffffffffffffffffffffffffffffffffffff82141562000565576200056462000570565b5b600182019050919050565b7f4e487b7100000000000000000000000000000000000000000000000000000000600052601160045260246000fd5b6126c980620005af6000396000f3fe608060405234801561001057600080fd5b506004361061014c5760003560e01c806370a08231116100c3578063b88d4fde1161007c578063b88d4fde146103d8578063c3133e13146103f4578063ce606ee014610424578063d9ecad7b14610442578063e985e9c514610472578063ef5e94aa146104a25761014c565b806370a08231146102f257806395d89b4114610322578063a22cb46514610340578063a9059cbb1461035c578063abadce7814610378578063b12ab40f146103a85761014c565b806312a55c961161011557806312a55c961461021b57806318160ddd1461023757806323b872dd1461025557806342842e0e146102715780634da2b48e1461028d5780636352211e146102c25761014c565b8062fef1041461015157806301ffc9a71461018157806306fdde03146101b1578063081812fc146101cf578063095ea7b3146101ff575b600080fd5b61016b60048036038101906101669190611c33565b6104c0565b6040516101789190611eb6565b60405180910390f35b61019b60048036038101906101969190611bd9565b6104f3565b6040516101a89190611f92565b60405180910390f35b6101b9610593565b6040516101c69190611fad565b60405180910390f35b6101e960048036038101906101e49190611c33565b6105d0565b6040516101f69190611eb6565b60405180910390f35b61021960048036038101906102149190611b99565b61061e565b005b61023560048036038101906102309190611c33565b61069a565b005b61023f61079c565b60405161024c919061206f565b60405180910390f35b61026f600480360381019061026a9190611a7e565b6107a9565b005b61028b60048036038101906102869190611a7e565b6107ce565b005b6102a760048036038101906102a29190611c33565b610803565b6040516102b99695949392919061208a565b60405180910390f35b6102dc60048036038101906102d79190611c33565b61097e565b6040516102e99190611eb6565b60405180910390f35b61030c60048036038101906103079190611a11565b6109bb565b604051610319919061206f565b60405180910390f35b61032a610a04565b6040516103379190611fad565b60405180910390f35b61035a60048036038101906103559190611b59565b610a41565b005b61037660048036038101906103719190611b99565b610aed565b005b610392600480360381019061038d9190611c33565b610c24565b60405161039f9190611eb6565b60405180910390f35b6103c260048036038101906103bd9190611a11565b610c57565b6040516103cf9190611f70565b60405180910390f35b6103f260048036038101906103ed9190611ad1565b610de0565b005b61040e60048036038101906104099190611c60565b610e4c565b60405161041b919061206f565b60405180910390f35b61042c610fcb565b6040516104399190611eb6565b60405180910390f35b61045c60048036038101906104579190611c60565b610fef565b604051610469919061206f565b60405180910390f35b61048c60048036038101906104879190611a3e565b611168565b6040516104999190611f92565b60405180910390f35b6104aa6111fc565b6040516104b7919061206f565b60405180910390f35b60046020528060005260406000206000915054906101000a900473ffffffffffffffffffffffffffffffffffffffff1681565b60006380ac58cd60e01b7bffffffffffffffffffffffffffffffffffffffffffffffffffffffff1916827bffffffffffffffffffffffffffffffffffffffffffffffffffffffff1916148061058c57506301ffc9a760e01b7bffffffffffffffffffffffffffffffffffffffffffffffffffffffff1916827bffffffffffffffffffffffffffffffffffffffffffffffffffffffff1916145b9050919050565b60606040518060400160405280600881526020017f5075727266656374000000000000000000000000000000000000000000000000815250905090565b600060018054905082106105e357600080fd5b6004600083815260200190815260200160002060009054906101000a900473ffffffffffffffffffffffffffffffffffffffff169050919050565b6106283382611202565b61063157600080fd5b61063b828261126e565b808273ffffffffffffffffffffffffffffffffffffffff163373ffffffffffffffffffffffffffffffffffffffff167f8c5be1e5ebec7d5bd14f71427d1e84f3dd0314c0f7b2291e5b200ac8c7c3b92560405160405180910390a45050565b3373ffffffffffffffffffffffffffffffffffffffff1660008054906101000a900473ffffffffffffffffffffffffffffffffffffffff1673ffffffffffffffffffffffffffffffffffffffff1614610728576040517f08c379a000000000000000000000000000000000000000000000000000000000815260040161071f9061202f565b60405180910390fd5b600a61ffff1660065410610771576040517f08c379a000000000000000000000000000000000000000000000000000000000815260040161076890611fcf565b60405180910390fd5b6006600081548092919061078490612342565b9190505550610798816000806000336112c4565b5050565b6000600180549050905090565b6107b533848484611450565b6107be57600080fd5b6107c983838361150b565b505050565b6107da33848484611450565b6107e357600080fd5b6107fe838383604051806020016040528060008152506116d2565b505050565b600080600080600080600187815481106108205761081f612424565b5b9060005260206000209060020201600001549550856001888154811061084957610848612424565b5b906000526020600020906002020160010160009054906101000a900467ffffffffffffffff1667ffffffffffffffff16955085600189815481106108905761088f612424565b5b906000526020600020906002020160010160089054906101000a900463ffffffff1663ffffffff1695508560018a815481106108cf576108ce612424565b5b9060005260206000209060020201600101600c9054906101000a900463ffffffff1663ffffffff1695508560018b8154811061090e5761090d612424565b5b906000526020600020906002020160010160109054906101000a900461ffff1661ffff16955085600360008d815260200190815260200160002060009054906101000a900473ffffffffffffffffffffffffffffffffffffffff1695509550955095509550955091939550919395565b60006003600083815260200190815260200160002060009054906101000a900473ffffffffffffffffffffffffffffffffffffffff169050919050565b6000600260008373ffffffffffffffffffffffffffffffffffffffff1673ffffffffffffffffffffffffffffffffffffffff168152602001908152602001600020549050919050565b60606040518060400160405280600481526020017f5055525200000000000000000000000000000000000000000000000000000000815250905090565b3373ffffffffffffffffffffffffffffffffffffffff168273ffffffffffffffffffffffffffffffffffffffff161415610a7a57600080fd5b610a8482826116f8565b8173ffffffffffffffffffffffffffffffffffffffff163373ffffffffffffffffffffffffffffffffffffffff167f17307eab39ab6107e8899845ad3d59bd9653f200f220920489ca2b5937696c3183604051610ae19190611f92565b60405180910390a35050565b600073ffffffffffffffffffffffffffffffffffffffff168273ffffffffffffffffffffffffffffffffffffffff161415610b5d576040517f08c379a0000000000000000000000000000000000000000000000000000000008152600401610b549061204f565b60405180910390fd5b3073ffffffffffffffffffffffffffffffffffffffff168273ffffffffffffffffffffffffffffffffffffffff161415610bcc576040517f08c379a0000000000000000000000000000000000000000000000000000000008152600401610bc39061204f565b60405180910390fd5b610bd63382611202565b610c15576040517f08c379a0000000000000000000000000000000000000000000000000000000008152600401610c0c9061200f565b60405180910390fd5b610c2033838361150b565b5050565b60036020528060005260406000206000915054906101000a900473ffffffffffffffffffffffffffffffffffffffff1681565b60606000610c64836109bb565b90506000811415610cc157600067ffffffffffffffff811115610c8a57610c89612453565b5b604051908082528060200260200182016040528015610cb85781602001602082028036833780820191505090505b50915050610ddb565b60008167ffffffffffffffff811115610cdd57610cdc612453565b5b604051908082528060200260200182016040528015610d0b5781602001602082028036833780820191505090505b5090506000610d1861079c565b9050600080600190505b828111610dd2578673ffffffffffffffffffffffffffffffffffffffff166003600083815260200190815260200160002060009054906101000a900473ffffffffffffffffffffffffffffffffffffffff1673ffffffffffffffffffffffffffffffffffffffff161415610dbf5780848381518110610da457610da3612424565b5b6020026020010181815250508180610dbb90612342565b9250505b8080610dca90612342565b915050610d22565b83955050505050505b919050565b610dec33868686611450565b610df557600080fd5b610e4585858585858080601f016020809104026020016040519081016040528093929190818152602001838380828437600081840152601f19601f820116905080830192505050505050506116d2565b5050505050565b6000610e5661192f565b60006101ff4244604051602001610e6e929190611e8a565b6040516020818303038152906040528051906020012060001c610e919190612395565b9050600060019050600060089050600191505b6101008211610f5e576000828461ffff161614610ee957606486610ec89190612395565b848260098110610edb57610eda612424565b5b602002018181525050610f13565b606487610ef69190612395565b848260098110610f0957610f08612424565b5b6020020181815250505b606486610f2091906121b2565b9550606487610f2f91906121b2565b96506101008214610f4a57600181610f47919061223d565b90505b600282610f5791906121e3565b9150610ea4565b60008092505b6009831015610fbd57848360098110610f8057610f7f612424565b5b602002015181610f90919061215c565b905060088314610faa57606481610fa791906121e3565b90505b8280610fb590612342565b935050610f64565b809550505050505092915050565b60008054906101000a900473ffffffffffffffffffffffffffffffffffffffff1681565b6000610ffb3384611202565b801561100d575061100c3383611202565b5b61104c576040517f08c379a000000000000000000000000000000000000000000000000000000000815260040161104390611fef565b60405180910390fd5b60006001848154811061106257611061612424565b5b9060005260206000209060020201905060006001848154811061108857611087612424565b5b9060005260206000209060020201905060006110ac83600001548360000154610e4c565b905060008260010160109054906101000a900461ffff1661ffff16905060008460010160109054906101000a900461ffff1661ffff169050600082821015611111576001836110fb919061215c565b905060028161110a91906121b2565b905061114d565b8282111561113c57600182611126919061215c565b905060028161113591906121b2565b905061114c565b600183611149919061215c565b90505b5b61115a84898b84336112c4565b965050505050505092915050565b6000600560008473ffffffffffffffffffffffffffffffffffffffff1673ffffffffffffffffffffffffffffffffffffffff16815260200190815260200160002060008373ffffffffffffffffffffffffffffffffffffffff1673ffffffffffffffffffffffffffffffffffffffff16815260200190815260200160002060009054906101000a900460ff16905092915050565b60065481565b60008273ffffffffffffffffffffffffffffffffffffffff166003600084815260200190815260200160002060009054906101000a900473ffffffffffffffffffffffffffffffffffffffff1673ffffffffffffffffffffffffffffffffffffffff1614905092915050565b816004600083815260200190815260200160002060006101000a81548173ffffffffffffffffffffffffffffffffffffffff021916908373ffffffffffffffffffffffffffffffffffffffff1602179055505050565b6000806040518060a001604052808881526020014267ffffffffffffffff1681526020018763ffffffff1681526020018663ffffffff1681526020018561ffff16815250905060018190806001815401808255809150506001900390600052602060002090600202016000909190919091506000820151816000015560208201518160010160006101000a81548167ffffffffffffffff021916908367ffffffffffffffff16021790555060408201518160010160086101000a81548163ffffffff021916908363ffffffff160217905550606082015181600101600c6101000a81548163ffffffff021916908363ffffffff16021790555060808201518160010160106101000a81548161ffff021916908361ffff16021790555050506000600180805490506113f5919061223d565b90507f0a5311bd2a6608f08a180df2ee7c5946819a649b204b554bb8e39825b2c50ad5848289898c60405161142e959493929190611f1d565b60405180910390a16114426000858361150b565b809250505095945050505050565b600061145c8483611202565b61146557600080fd5b600073ffffffffffffffffffffffffffffffffffffffff168373ffffffffffffffffffffffffffffffffffffffff16141561149f57600080fd5b60018054905082106114b057600080fd5b8373ffffffffffffffffffffffffffffffffffffffff168573ffffffffffffffffffffffffffffffffffffffff1614806114f057506114ef8583611790565b5b8061150157506115008486611168565b5b9050949350505050565b600260008373ffffffffffffffffffffffffffffffffffffffff1673ffffffffffffffffffffffffffffffffffffffff168152602001908152602001600020600081548092919061155b90612342565b9190505550816003600083815260200190815260200160002060006101000a81548173ffffffffffffffffffffffffffffffffffffffff021916908373ffffffffffffffffffffffffffffffffffffffff160217905550600073ffffffffffffffffffffffffffffffffffffffff168373ffffffffffffffffffffffffffffffffffffffff161461167257600260008473ffffffffffffffffffffffffffffffffffffffff1673ffffffffffffffffffffffffffffffffffffffff168152602001908152602001600020600081548092919061163690612318565b91905055506004600082815260200190815260200160002060006101000a81549073ffffffffffffffffffffffffffffffffffffffff02191690555b808273ffffffffffffffffffffffffffffffffffffffff168473ffffffffffffffffffffffffffffffffffffffff167fddf252ad1be2c89b69c2b068fc378daa952ba7f163c4a11628f55a4df523b3ef60405160405180910390a4505050565b6116dd84848461150b565b6116e9848484846117fc565b6116f257600080fd5b50505050565b80600560003373ffffffffffffffffffffffffffffffffffffffff1673ffffffffffffffffffffffffffffffffffffffff16815260200190815260200160002060008473ffffffffffffffffffffffffffffffffffffffff1673ffffffffffffffffffffffffffffffffffffffff16815260200190815260200160002060006101000a81548160ff0219169083151502179055505050565b60008273ffffffffffffffffffffffffffffffffffffffff166004600084815260200190815260200160002060009054906101000a900473ffffffffffffffffffffffffffffffffffffffff1673ffffffffffffffffffffffffffffffffffffffff1614905092915050565b600061180784611916565b611814576001905061190e565b60008473ffffffffffffffffffffffffffffffffffffffff1663150b7a02338887876040518563ffffffff1660e01b81526004016118559493929190611ed1565b602060405180830381600087803b15801561186f57600080fd5b505af1158015611883573d6000803e3d6000fd5b505050506040513d601f19601f820116820180604052508101906118a79190611c06565b90507f150b7a023d4804d13e8c85fb27262cb750cf6ba9f9dd3bb30d90f482ceeb4b1f7bffffffffffffffffffffffffffffffffffffffffffffffffffffffff1916817bffffffffffffffffffffffffffffffffffffffffffffffffffffffff1916149150505b949350505050565b600080823b905060008163ffffffff1611915050919050565b604051806101200160405280600990602082028036833780820191505090505090565b60008135905061196181612637565b92915050565b6000813590506119768161264e565b92915050565b60008135905061198b81612665565b92915050565b6000815190506119a081612665565b92915050565b60008083601f8401126119bc576119bb612487565b5b8235905067ffffffffffffffff8111156119d9576119d8612482565b5b6020830191508360018202830111156119f5576119f461248c565b5b9250929050565b600081359050611a0b8161267c565b92915050565b600060208284031215611a2757611a26612496565b5b6000611a3584828501611952565b91505092915050565b60008060408385031215611a5557611a54612496565b5b6000611a6385828601611952565b9250506020611a7485828601611952565b9150509250929050565b600080600060608486031215611a9757611a96612496565b5b6000611aa586828701611952565b9350506020611ab686828701611952565b9250506040611ac7868287016119fc565b9150509250925092565b600080600080600060808688031215611aed57611aec612496565b5b6000611afb88828901611952565b9550506020611b0c88828901611952565b9450506040611b1d888289016119fc565b935050606086013567ffffffffffffffff811115611b3e57611b3d612491565b5b611b4a888289016119a6565b92509250509295509295909350565b60008060408385031215611b7057611b6f612496565b5b6000611b7e85828601611952565b9250506020611b8f85828601611967565b9150509250929050565b60008060408385031215611bb057611baf612496565b5b6000611bbe85828601611952565b9250506020611bcf858286016119fc565b9150509250929050565b600060208284031215611bef57611bee612496565b5b6000611bfd8482850161197c565b91505092915050565b600060208284031215611c1c57611c1b612496565b5b6000611c2a84828501611991565b91505092915050565b600060208284031215611c4957611c48612496565b5b6000611c57848285016119fc565b91505092915050565b60008060408385031215611c7757611c76612496565b5b6000611c85858286016119fc565b9250506020611c96858286016119fc565b9150509250929050565b6000611cac8383611e55565b60208301905092915050565b611cc181612271565b82525050565b6000611cd2826120fb565b611cdc8185612129565b9350611ce7836120eb565b8060005b83811015611d18578151611cff8882611ca0565b9750611d0a8361211c565b925050600181019050611ceb565b5085935050505092915050565b611d2e81612283565b82525050565b6000611d3f82612106565b611d49818561213a565b9350611d598185602086016122e5565b611d628161249b565b840191505092915050565b6000611d7882612111565b611d82818561214b565b9350611d928185602086016122e5565b611d9b8161249b565b840191505092915050565b6000611db360218361214b565b9150611dbe826124ac565b604082019050919050565b6000611dd660288361214b565b9150611de1826124fb565b604082019050919050565b6000611df960268361214b565b9150611e048261254a565b604082019050919050565b6000611e1c60258361214b565b9150611e2782612599565b604082019050919050565b6000611e3f60228361214b565b9150611e4a826125e8565b604082019050919050565b611e5e816122db565b82525050565b611e6d816122db565b82525050565b611e84611e7f826122db565b61238b565b82525050565b6000611e968285611e73565b602082019150611ea68284611e73565b6020820191508190509392505050565b6000602082019050611ecb6000830184611cb8565b92915050565b6000608082019050611ee66000830187611cb8565b611ef36020830186611cb8565b611f006040830185611e64565b8181036060830152611f128184611d34565b905095945050505050565b600060a082019050611f326000830188611cb8565b611f3f6020830187611e64565b611f4c6040830186611e64565b611f596060830185611e64565b611f666080830184611e64565b9695505050505050565b60006020820190508181036000830152611f8a8184611cc7565b905092915050565b6000602082019050611fa76000830184611d25565b92915050565b60006020820190508181036000830152611fc78184611d6d565b905092915050565b60006020820190508181036000830152611fe881611da6565b9050919050565b6000602082019050818103600083015261200881611dc9565b9050919050565b6000602082019050818103600083015261202881611dec565b9050919050565b6000602082019050818103600083015261204881611e0f565b9050919050565b6000602082019050818103600083015261206881611e32565b9050919050565b60006020820190506120846000830184611e64565b92915050565b600060c08201905061209f6000830189611e64565b6120ac6020830188611e64565b6120b96040830187611e64565b6120c66060830186611e64565b6120d36080830185611e64565b6120e060a0830184611cb8565b979650505050505050565b6000819050602082019050919050565b600081519050919050565b600081519050919050565b600081519050919050565b6000602082019050919050565b600082825260208201905092915050565b600082825260208201905092915050565b600082825260208201905092915050565b6000612167826122db565b9150612172836122db565b9250827fffffffffffffffffffffffffffffffffffffffffffffffffffffffffffffffff038211156121a7576121a66123c6565b5b828201905092915050565b60006121bd826122db565b91506121c8836122db565b9250826121d8576121d76123f5565b5b828204905092915050565b60006121ee826122db565b91506121f9836122db565b9250817fffffffffffffffffffffffffffffffffffffffffffffffffffffffffffffffff0483118215151615612232576122316123c6565b5b828202905092915050565b6000612248826122db565b9150612253836122db565b925082821015612266576122656123c6565b5b828203905092915050565b600061227c826122bb565b9050919050565b60008115159050919050565b60007fffffffff0000000000000000000000000000000000000000000000000000000082169050919050565b600073ffffffffffffffffffffffffffffffffffffffff82169050919050565b6000819050919050565b60005b838110156123035780820151818401526020810190506122e8565b83811115612312576000848401525b50505050565b6000612323826122db565b91506000821415612337576123366123c6565b5b600182039050919050565b600061234d826122db565b91507fffffffffffffffffffffffffffffffffffffffffffffffffffffffffffffffff8214156123805761237f6123c6565b5b600182019050919050565b6000819050919050565b60006123a0826122db565b91506123ab836122db565b9250826123bb576123ba6123f5565b5b828206905092915050565b7f4e487b7100000000000000000000000000000000000000000000000000000000600052601160045260246000fd5b7f4e487b7100000000000000000000000000000000000000000000000000000000600052601260045260246000fd5b7f4e487b7100000000000000000000000000000000000000000000000000000000600052603260045260246000fd5b7f4e487b7100000000000000000000000000000000000000000000000000000000600052604160045260246000fd5b600080fd5b600080fd5b600080fd5b600080fd5b600080fd5b6000601f19601f8301169050919050565b7f67656e30436f756e746572203c2047656e305f4372656174696f6e5f4c696d6960008201527f7400000000000000000000000000000000000000000000000000000000000000602082015250565b7f596f75206d757374206f776e20626f7468206361747320696e206f726465722060008201527f746f206272656564000000000000000000000000000000000000000000000000602082015250565b7f596f75204d757374204f776e2054686520546f6b656e20596f7520417265205360008201527f656e64696e670000000000000000000000000000000000000000000000000000602082015250565b7f596f7520617265206e6f7420746865206f776e6572206f662074686520636f6e60008201527f7472616374000000000000000000000000000000000000000000000000000000602082015250565b7f43616e6e6f742053656e6420546f6b656e7320546f205468697320416464726560008201527f7373000000000000000000000000000000000000000000000000000000000000602082015250565b61264081612271565b811461264b57600080fd5b50565b61265781612283565b811461266257600080fd5b50565b61266e8161228f565b811461267957600080fd5b50565b612685816122db565b811461269057600080fd5b5056fea264697066735822122047f79337964b2fce73b17beac1865ba7a449d40f83e8f4fe068b8f7ce2a7a6d964736f6c63430008070033",
  "immutableReferences": {},
  "source": "pragma solidity >=0.4.22 <0.9.0;\n\nimport \"./IERC721.sol\";\nimport \"./IERC721Receiver.sol\";\nimport \"../node_modules/@openzeppelin/contracts/access/Ownable.sol\";\ncontract Catcontract is IERC721 {\n\nstring private  constant Name = \"Purrfect\";\nstring private constant Symbol = \"PURR\";\nuint16 private constant Gen0_Creation_Limit = 10;\nbytes4 internal constant MAGIC_ERC721_RECEIVED= bytes4(keccak256(\"onERC721Received(address,address,uint256,bytes)\"));\nbytes4 private constant _INTERFACE_ID_ERC721 = 0x80ac58cd;\nbytes4 private constant _INTERFACE_ID_ERC165 = 0x01ffc9a7;\naddress public contractOwner;\n\nevent Birth(address owner, uint256 catId, uint256 mumId, uint256 dadId, uint256 genes);\n\n\nmodifier onlyOwner{\n    require(contractOwner == msg.sender, \"You are not the owner of the contract\");\n    _;\n}\n\nstruct Cat {\n    uint256 genes;\n    uint64 birthTime;\n    uint32 mumId;\n    uint32 dadId;\n    uint16 generation;\n}\n\nconstructor(){\n    contractOwner = msg.sender;\n    uint256 gen = type(uint256).max;\n    _createCat(0, 0, 0, gen, address(0));//_createCat(0, 0, 0, gen-1, address(0))\n}\n\nCat[] cats;\n//        owner => amount\nmapping(address => uint256) ownerTokenBalance;\n\n//      tokenId => owner of cat\nmapping(uint256 => address) public catIndexToOwner;\n\n// tokenId => another approved address \nmapping(uint256 => address) public catIndexToApproved;\n\nmapping(address => mapping(address => bool)) private operatorApprovals;\n\nuint256 public gen0Counter;\n\n\n\nfunction breed(uint256 _dadId, uint256 _mumId) public returns(uint256){\n\n    require(owns(msg.sender, _dadId) && owns(msg.sender, _mumId), \"You must own both cats in order to breed\");\n    Cat storage dad = cats[_dadId];\n    Cat storage mum = cats[_mumId];\n\n    uint256 newCatDna = mixDna(dad.genes, mum.genes);\n    \n    \n    uint256 mumGen = mum.generation;\n    uint256 dadGen = dad.generation;\n    uint256 kidGen = 0; \n\n    if(dadGen < mumGen){\n        kidGen = mumGen+1;\n        kidGen /= 2;\n    }else if(dadGen > mumGen){\n        kidGen = dadGen + 1;\n        kidGen /= 2;\n    }else{\n        kidGen = mumGen + 1;\n    }\n    \n    return _createCat(newCatDna, _mumId, _dadId, kidGen, msg.sender);\n}\n\n\nfunction mixDna(uint256 _dadDna, uint256 _mumDna) public view returns(uint256){\n    uint256[9] memory geneArray;\n    \n    //uint16 random = uint16(block.timestamp % 511);\n    uint16 random = uint16(uint256(keccak256(abi.encodePacked(block.timestamp, block.difficulty))) % 511);//binary between 000000000-111111111\n    uint256 i = 1;\n    uint256 index = 8;\n    \n    for(i=1; i <= 256; i=i*2) {  //1, 2, 4, 8, 16, 32, 64, 128, 256 = 9 pairs\n        if(random & i !=0){\n            geneArray[index] = _mumDna % 100;\n        }else{\n            geneArray[index] = _dadDna % 100;\n        }\n        _mumDna = _mumDna / 100;  //removing the last two digits by moving the decimal point\n        _dadDna = _dadDna / 100;\n        \n        if(i != 256){index = index-1;}\n    }\n    \n    uint256 newGene;\n    \n    for(i=0; i<9; i++){\n        newGene = newGene + geneArray[i];\n        if(i !=8 ){\n            newGene = newGene *100;\n        }\n    } \n    return newGene;\n}\n\nfunction createCatGen0(uint256 _genes)public onlyOwner{\n    require(gen0Counter < Gen0_Creation_Limit, \"gen0Counter < Gen0_Creation_Limit\");\n    gen0Counter++;\n\n    _createCat(_genes, 0, 0, 0, msg.sender);\n}\n\nfunction _createCat(\n    uint256 _genes,\n    uint256 _mumId,\n    uint256 _dadId,\n    uint256 _generation,\n    address _owner\n)internal returns(uint256){\n    Cat memory _cat = Cat({\n        genes: uint256(_genes),\n        birthTime: uint64(block.timestamp),\n        mumId: uint32(_mumId),\n        dadId: uint32(_dadId),\n        generation: uint16(_generation)\n    });\n\n    //uint256 newCatId = cats.push(_cat)-1;\n    cats.push(_cat);\n    uint256 newCatId = cats.length - 1;\n     \n\n    emit Birth(_owner, newCatId, _mumId, _dadId, _genes);\n\n    _transfer(address(0), _owner, newCatId);\n\n    return newCatId;\n}\n\n    //returning the values in uint256 due to front end preferences (easier to read)\n    function getCat(uint256 _tokenId) public view returns(\n        uint256 genes, \n        uint256 birthTime, \n        uint256 mumId, \n        uint256 dadId, \n        uint256 generation, \n        address owner \n        ){\n        return(\n            genes = cats[_tokenId].genes,\n            birthTime = cats[_tokenId].birthTime,\n            mumId = cats[_tokenId].mumId,\n            dadId = cats[_tokenId].dadId,\n            generation = cats[_tokenId].generation,\n            owner = catIndexToOwner[_tokenId]\n        );\n    }\n\n    function supportsInterface(bytes4 _interfaceId) external pure returns (bool){\n        return(_interfaceId ==_INTERFACE_ID_ERC721 || _interfaceId == _INTERFACE_ID_ERC165);\n    }\n\n    function balanceOf(address owner) public view override returns (uint256 balance){\n        balance = ownerTokenBalance[owner];\n        return balance;\n    }\n\n    function totalSupply() public view override returns (uint256 total){\n        total = cats.length;\n        return total; \n    }\n\n    function ownerOf(uint256 tokenId) external view override returns (address owner){\n        return catIndexToOwner[tokenId];\n    }\n\n\n    function transfer(address to, uint256 tokenId) external override{\n        require(to != address(0), \"Cannot Send Tokens To This Address\");\n        require(to != address(this), \"Cannot Send Tokens To This Address\");\n        require(owns(msg.sender, tokenId), \"You Must Own The Token You Are Sending\");\n        _transfer(msg.sender, to, tokenId);\n    }\n\n    function _transfer(address from, address _to, uint256 _tokenId) internal {\n        ownerTokenBalance[_to]++;\n        catIndexToOwner[_tokenId] = _to;\n\n        //(edge case senario) when we mint new cats we dont want to decrease the token count\n        if(from != address (0)) {\n            ownerTokenBalance[from]--;\n            //this makes sure that the approval history for that token is erased\n            delete catIndexToApproved[_tokenId];\n        }\n        emit Transfer(from, _to, _tokenId);\n    }\n\n    function owns(address claimant, uint256 _tokenId) internal view returns (bool){\n        return catIndexToOwner[_tokenId] == claimant;\n    }\n\n    function approve(address to, uint256 _tokenId) external override {\n        require(owns(msg.sender, _tokenId));\n        _approve(to, _tokenId);\n        emit Approval(msg.sender, to, _tokenId);\n    }\n\n    function _approve(address approved, uint256 tokenId) internal {\n        catIndexToApproved[tokenId] = approved;\n    }\n\n    function setApprovalForAll(address operator, bool approved) external override{ \n        require(operator != msg.sender);\n        _setApprovalForAll(operator, approved);\n        emit ApprovalForAll(msg.sender, operator, approved);\n    }\n\n    function _setApprovalForAll(address _operator, bool _approved) internal{\n        operatorApprovals[msg.sender][_operator] = _approved;\n    }\n\n    function getApproved(uint256 _tokenId) external view override returns (address){\n        require(_tokenId < cats.length);//check that the token exists\n        return catIndexToApproved[_tokenId];\n    }\n\n    function isApprovedForAll(address _owner, address _operator) public override view returns (bool){\n        //returns the mapping status for these inputs\n        return operatorApprovals[_owner][_operator];\n    } \n    function safeTransferFrom(address _from, address _to, uint256 _tokenId) external override{\n        require(ownerOrApprovedCheck(msg.sender, _from, _to, _tokenId));\n        _safeTransfer(_from, _to, _tokenId, \"\");\n    }\n\n    function safeTransferFrom(address _from, address _to, uint256 _tokenId, bytes calldata data) external override{\n        require(ownerOrApprovedCheck(msg.sender, _from, _to, _tokenId));\n        _safeTransfer(_from, _to, _tokenId, data);\n    }\n\n    function _safeTransfer(address from, address to, uint256 tokenId, bytes memory data)internal {\n        _transfer(from, to, tokenId);\n        require(_checkERC721Support(from, to, tokenId, data));\n    }\n\n    function transferFrom(address _from, address _to, uint256 _tokenId) external override{\n        require(ownerOrApprovedCheck(msg.sender, _from, _to, _tokenId));\n        _transfer(_from, _to, _tokenId);\n    }\n\n    function _checkERC721Support(address from, address to, uint256 tokenId, bytes memory data) internal returns(bool){\n        if( !isContract(to) ){\n            return true; //if it is not a contract return true\n        }\n        //call onERC721Recieved in the to contract\n        bytes4 returnData = IERC721Receiver(to).onERC721Received(msg.sender, from, tokenId, data);\n        return returnData == MAGIC_ERC721_RECEIVED;\n    }\n\n    function isContract(address _to) internal view returns(bool){\n        uint32 size;\n        assembly{\n            size := extcodesize(_to)\n        }\n\n        return size > 0;\n    }\n\n    function approvedFor(address claimant, uint256 tokenId) internal view returns(bool){\n        return catIndexToApproved[tokenId] == claimant;\n    }\n\n    function name() external pure override returns (string memory tokenName){    return Name;    }\n    function symbol() external pure override returns (string memory tokenSymbol){    return Symbol;  }\n\n    //to reduce code duplication, made an internal function with the require statements and returns true/false\n    function ownerOrApprovedCheck(address spender, address _from, address _to, uint256 _tokenId) internal view returns(bool){\n        require(owns(_from, _tokenId));\n        require(_to != address(0));\n        require(_tokenId < cats.length);\n        return(spender == _from || approvedFor(spender, _tokenId) || isApprovedForAll(_from, spender));\n\n    }\n\n    function ownedTokens(address _owner) public view returns(uint256[] memory ownerTokens) {\n    uint256 tokenCount = balanceOf(_owner);\n\n    if (tokenCount == 0) {\n        return new uint256[](0);\n    } else {\n        uint256[] memory result = new uint256[](tokenCount);\n        uint256 totalCats = totalSupply();\n        uint256 resultIndex = 0;\n\n        uint256 catId;\n\n        for (catId = 1; catId <= totalCats; catId++) {\n            if (catIndexToOwner[catId] == _owner) {\n                result[resultIndex] = catId;\n                resultIndex++;\n            }\n        }\n\n        return result;\n    }\n    \n    }\n}",
  "sourcePath": "/Users/OllieFrancis/Documents/Ethereum/Crypto-Cats-Dapp/contracts/CatContract.sol",
  "compiler": {
    "name": "solc",
    "version": "0.8.7+commit.e28d00a7.Emscripten.clang"
  },
  "schemaVersion": "3.4.2",
  "updatedAt": "2021-08-24T11:58:53.695Z",
  "networkType": "ethereum",
  "devdoc": {
    "kind": "dev",
    "methods": {
      "balanceOf(address)": {
        "details": "Returns the number of tokens in ``owner``'s account."
      },
      "getApproved(uint256)": {
        "details": "Throws if `_tokenId` is not a valid NFT.",
        "params": {
          "_tokenId": "The NFT to find the approved address for"
        },
        "returns": {
          "_0": "The approved address for this NFT, or the zero address if there is none"
        }
      },
      "isApprovedForAll(address,address)": {
        "params": {
          "_operator": "The address that acts on behalf of the owner",
          "_owner": "The address that owns the NFTs"
        },
        "returns": {
          "_0": "True if `_operator` is an approved operator for `_owner`, false otherwise"
        }
      },
      "ownerOf(uint256)": {
        "details": "Returns the owner of the `tokenId` token. Requirements: - `tokenId` must exist."
      },
      "safeTransferFrom(address,address,uint256)": {
        "details": "This works identically to the other function with an extra data parameter,  except this function just sets data to \"\".",
        "params": {
          "_from": "The current owner of the NFT",
          "_to": "The new owner",
          "_tokenId": "The NFT to transfer"
        }
      },
      "safeTransferFrom(address,address,uint256,bytes)": {
        "details": "Throws unless `msg.sender` is the current owner, an authorized  operator, or the approved address for this NFT. Throws if `_from` is  not the current owner. Throws if `_to` is the zero address. Throws if  `_tokenId` is not a valid NFT. When transfer is complete, this function  checks if `_to` is a smart contract (code size > 0). If so, it calls  `onERC721Received` on `_to` and throws if the return value is not  `bytes4(keccak256(\"onERC721Received(address,address,uint256,bytes)\"))`.",
        "params": {
          "_from": "The current owner of the NFT",
          "_to": "The new owner",
          "_tokenId": "The NFT to transfer",
          "data": "Additional data with no specified format, sent in call to `_to`"
        }
      },
      "transferFrom(address,address,uint256)": {
        "details": "Throws unless `msg.sender` is the current owner, an authorized  operator, or the approved address for this NFT. Throws if `_from` is  not the current owner. Throws if `_to` is the zero address. Throws if  `_tokenId` is not a valid NFT.",
        "params": {
          "_from": "The current owner of the NFT",
          "_to": "The new owner",
          "_tokenId": "The NFT to transfer"
        }
      }
    },
    "version": 1
  },
  "userdoc": {
    "kind": "user",
    "methods": {
      "getApproved(uint256)": {
        "notice": "Get the approved address for a single NFT"
      },
      "isApprovedForAll(address,address)": {
        "notice": "Query if an address is an authorized operator for another address"
      },
      "safeTransferFrom(address,address,uint256)": {
        "notice": "Transfers the ownership of an NFT from one address to another address"
      },
      "safeTransferFrom(address,address,uint256,bytes)": {
        "notice": "Transfers the ownership of an NFT from one address to another address"
      },
      "transferFrom(address,address,uint256)": {
        "notice": "Transfer ownership of an NFT -- THE CALLER IS RESPONSIBLE  TO CONFIRM THAT `_to` IS CAPABLE OF RECEIVING NFTS OR ELSE  THEY MAY BE PERMANENTLY LOST"
      }
    },
    "version": 1
  }
}