{
  "contractName": "Catcontract",
  "abi": [
    {
      "inputs": [],
      "stateMutability": "nonpayable",
      "type": "constructor"
    },
    {
      "anonymous": false,
      "inputs": [
        {
          "indexed": true,
          "internalType": "address",
          "name": "owner",
          "type": "address"
        },
        {
          "indexed": true,
          "internalType": "address",
          "name": "approved",
          "type": "address"
        },
        {
          "indexed": true,
          "internalType": "uint256",
          "name": "tokenId",
          "type": "uint256"
        }
      ],
      "name": "Approval",
      "type": "event"
    },
    {
      "anonymous": false,
      "inputs": [
        {
          "indexed": true,
          "internalType": "address",
          "name": "owner",
          "type": "address"
        },
        {
          "indexed": true,
          "internalType": "address",
          "name": "operator",
          "type": "address"
        },
        {
          "indexed": false,
          "internalType": "bool",
          "name": "approved",
          "type": "bool"
        }
      ],
      "name": "ApprovalForAll",
      "type": "event"
    },
    {
      "anonymous": false,
      "inputs": [
        {
          "indexed": false,
          "internalType": "address",
          "name": "owner",
          "type": "address"
        },
        {
          "indexed": false,
          "internalType": "uint256",
          "name": "catId",
          "type": "uint256"
        },
        {
          "indexed": false,
          "internalType": "uint256",
          "name": "mumId",
          "type": "uint256"
        },
        {
          "indexed": false,
          "internalType": "uint256",
          "name": "dadId",
          "type": "uint256"
        },
        {
          "indexed": false,
          "internalType": "uint256",
          "name": "genes",
          "type": "uint256"
        }
      ],
      "name": "Birth",
      "type": "event"
    },
    {
      "anonymous": false,
      "inputs": [
        {
          "indexed": true,
          "internalType": "address",
          "name": "from",
          "type": "address"
        },
        {
          "indexed": true,
          "internalType": "address",
          "name": "to",
          "type": "address"
        },
        {
          "indexed": true,
          "internalType": "uint256",
          "name": "tokenId",
          "type": "uint256"
        }
      ],
      "name": "Transfer",
      "type": "event"
    },
    {
      "inputs": [
        {
          "internalType": "uint256",
          "name": "",
          "type": "uint256"
        }
      ],
      "name": "catIndexToApproved",
      "outputs": [
        {
          "internalType": "address",
          "name": "",
          "type": "address"
        }
      ],
      "stateMutability": "view",
      "type": "function",
      "constant": true
    },
    {
      "inputs": [
        {
          "internalType": "uint256",
          "name": "",
          "type": "uint256"
        }
      ],
      "name": "catIndexToOwner",
      "outputs": [
        {
          "internalType": "address",
          "name": "",
          "type": "address"
        }
      ],
      "stateMutability": "view",
      "type": "function",
      "constant": true
    },
    {
      "inputs": [],
      "name": "contractOwner",
      "outputs": [
        {
          "internalType": "address",
          "name": "",
          "type": "address"
        }
      ],
      "stateMutability": "view",
      "type": "function",
      "constant": true
    },
    {
      "inputs": [],
      "name": "gen0Counter",
      "outputs": [
        {
          "internalType": "uint256",
          "name": "",
          "type": "uint256"
        }
      ],
      "stateMutability": "view",
      "type": "function",
      "constant": true
    },
    {
      "inputs": [
        {
          "internalType": "uint256",
          "name": "",
          "type": "uint256"
        }
      ],
      "name": "ownedTokensIndex",
      "outputs": [
        {
          "internalType": "uint256",
          "name": "",
          "type": "uint256"
        }
      ],
      "stateMutability": "view",
      "type": "function",
      "constant": true
    },
    {
      "inputs": [
        {
          "internalType": "uint256",
          "name": "_dadId",
          "type": "uint256"
        },
        {
          "internalType": "uint256",
          "name": "_mumId",
          "type": "uint256"
        }
      ],
      "name": "breed",
      "outputs": [
        {
          "internalType": "uint256",
          "name": "",
          "type": "uint256"
        }
      ],
      "stateMutability": "nonpayable",
      "type": "function"
    },
    {
      "inputs": [
        {
          "internalType": "uint256",
          "name": "_dadDna",
          "type": "uint256"
        },
        {
          "internalType": "uint256",
          "name": "_mumDna",
          "type": "uint256"
        }
      ],
      "name": "mixDna",
      "outputs": [
        {
          "internalType": "uint256",
          "name": "",
          "type": "uint256"
        }
      ],
      "stateMutability": "view",
      "type": "function",
      "constant": true
    },
    {
      "inputs": [
        {
          "internalType": "uint256",
          "name": "_genes",
          "type": "uint256"
        }
      ],
      "name": "createCatGen0",
      "outputs": [],
      "stateMutability": "nonpayable",
      "type": "function"
    },
    {
      "inputs": [
        {
          "internalType": "uint256",
          "name": "_tokenId",
          "type": "uint256"
        }
      ],
      "name": "getCat",
      "outputs": [
        {
          "internalType": "uint256",
          "name": "genes",
          "type": "uint256"
        },
        {
          "internalType": "uint256",
          "name": "birthTime",
          "type": "uint256"
        },
        {
          "internalType": "uint256",
          "name": "mumId",
          "type": "uint256"
        },
        {
          "internalType": "uint256",
          "name": "dadId",
          "type": "uint256"
        },
        {
          "internalType": "uint256",
          "name": "generation",
          "type": "uint256"
        },
        {
          "internalType": "address",
          "name": "owner",
          "type": "address"
        }
      ],
      "stateMutability": "view",
      "type": "function",
      "constant": true
    },
    {
      "inputs": [
        {
          "internalType": "bytes4",
          "name": "_interfaceId",
          "type": "bytes4"
        }
      ],
      "name": "supportsInterface",
      "outputs": [
        {
          "internalType": "bool",
          "name": "",
          "type": "bool"
        }
      ],
      "stateMutability": "pure",
      "type": "function",
      "constant": true
    },
    {
      "inputs": [
        {
          "internalType": "address",
          "name": "owner",
          "type": "address"
        }
      ],
      "name": "balanceOf",
      "outputs": [
        {
          "internalType": "uint256",
          "name": "balance",
          "type": "uint256"
        }
      ],
      "stateMutability": "view",
      "type": "function",
      "constant": true
    },
    {
      "inputs": [],
      "name": "totalSupply",
      "outputs": [
        {
          "internalType": "uint256",
          "name": "total",
          "type": "uint256"
        }
      ],
      "stateMutability": "view",
      "type": "function",
      "constant": true
    },
    {
      "inputs": [
        {
          "internalType": "uint256",
          "name": "tokenId",
          "type": "uint256"
        }
      ],
      "name": "ownerOf",
      "outputs": [
        {
          "internalType": "address",
          "name": "owner",
          "type": "address"
        }
      ],
      "stateMutability": "view",
      "type": "function",
      "constant": true
    },
    {
      "inputs": [
        {
          "internalType": "address",
          "name": "to",
          "type": "address"
        },
        {
          "internalType": "uint256",
          "name": "_tokenId",
          "type": "uint256"
        }
      ],
      "name": "approve",
      "outputs": [],
      "stateMutability": "nonpayable",
      "type": "function"
    },
    {
      "inputs": [
        {
          "internalType": "address",
          "name": "operator",
          "type": "address"
        },
        {
          "internalType": "bool",
          "name": "approved",
          "type": "bool"
        }
      ],
      "name": "setApprovalForAll",
      "outputs": [],
      "stateMutability": "nonpayable",
      "type": "function"
    },
    {
      "inputs": [
        {
          "internalType": "uint256",
          "name": "_tokenId",
          "type": "uint256"
        }
      ],
      "name": "getApproved",
      "outputs": [
        {
          "internalType": "address",
          "name": "",
          "type": "address"
        }
      ],
      "stateMutability": "view",
      "type": "function",
      "constant": true
    },
    {
      "inputs": [
        {
          "internalType": "address",
          "name": "_owner",
          "type": "address"
        },
        {
          "internalType": "address",
          "name": "_operator",
          "type": "address"
        }
      ],
      "name": "isApprovedForAll",
      "outputs": [
        {
          "internalType": "bool",
          "name": "",
          "type": "bool"
        }
      ],
      "stateMutability": "view",
      "type": "function",
      "constant": true
    },
    {
      "inputs": [
        {
          "internalType": "address",
          "name": "_from",
          "type": "address"
        },
        {
          "internalType": "address",
          "name": "_to",
          "type": "address"
        },
        {
          "internalType": "uint256",
          "name": "_tokenId",
          "type": "uint256"
        }
      ],
      "name": "safeTransferFrom",
      "outputs": [],
      "stateMutability": "nonpayable",
      "type": "function"
    },
    {
      "inputs": [
        {
          "internalType": "address",
          "name": "_from",
          "type": "address"
        },
        {
          "internalType": "address",
          "name": "_to",
          "type": "address"
        },
        {
          "internalType": "uint256",
          "name": "_tokenId",
          "type": "uint256"
        },
        {
          "internalType": "bytes",
          "name": "data",
          "type": "bytes"
        }
      ],
      "name": "safeTransferFrom",
      "outputs": [],
      "stateMutability": "nonpayable",
      "type": "function"
    },
    {
      "inputs": [
        {
          "internalType": "address",
          "name": "_from",
          "type": "address"
        },
        {
          "internalType": "address",
          "name": "_to",
          "type": "address"
        },
        {
          "internalType": "uint256",
          "name": "_tokenId",
          "type": "uint256"
        }
      ],
      "name": "transferFrom",
      "outputs": [],
      "stateMutability": "nonpayable",
      "type": "function"
    },
    {
      "inputs": [
        {
          "internalType": "address",
          "name": "to",
          "type": "address"
        },
        {
          "internalType": "uint256",
          "name": "tokenId",
          "type": "uint256"
        }
      ],
      "name": "transfer",
      "outputs": [],
      "stateMutability": "nonpayable",
      "type": "function"
    },
    {
      "inputs": [],
      "name": "name",
      "outputs": [
        {
          "internalType": "string",
          "name": "tokenName",
          "type": "string"
        }
      ],
      "stateMutability": "pure",
      "type": "function",
      "constant": true
    },
    {
      "inputs": [],
      "name": "symbol",
      "outputs": [
        {
          "internalType": "string",
          "name": "tokenSymbol",
          "type": "string"
        }
      ],
      "stateMutability": "pure",
      "type": "function",
      "constant": true
    },
    {
      "inputs": [
        {
          "internalType": "address",
          "name": "_owner",
          "type": "address"
        }
      ],
      "name": "ownedTokens",
      "outputs": [
        {
          "internalType": "uint256[]",
          "name": "ownerTokens",
          "type": "uint256[]"
        }
      ],
      "stateMutability": "view",
      "type": "function",
      "constant": true
    }
  ],
  "bytecode": "0x60806040523480156200001157600080fd5b50336000806101000a81548173ffffffffffffffffffffffffffffffffffffffff021916908373ffffffffffffffffffffffffffffffffffffffff16021790555060007fffffffffffffffffffffffffffffffffffffffffffffffffffffffffffffffff90506200008f60008060008460006200009760201b60201c565b505062000779565b6000806040518060a001604052808881526020014267ffffffffffffffff1681526020018763ffffffff1681526020018663ffffffff1681526020018561ffff16815250905060018190806001815401808255809150506001900390600052602060002090600202016000909190919091506000820151816000015560208201518160010160006101000a81548167ffffffffffffffff021916908367ffffffffffffffff16021790555060408201518160010160086101000a81548163ffffffff021916908363ffffffff160217905550606082015181600101600c6101000a81548163ffffffff021916908363ffffffff16021790555060808201518160010160106101000a81548161ffff021916908361ffff1602179055505050600060018080549050620001ca919062000673565b90507f0a5311bd2a6608f08a180df2ee7c5946819a649b204b554bb8e39825b2c50ad5848289898c6040516200020595949392919062000616565b60405180910390a162000221600085836200022f60201b60201c565b809250505095945050505050565b600073ffffffffffffffffffffffffffffffffffffffff168373ffffffffffffffffffffffffffffffffffffffff16146200042857600060016200027985620005a860201b60201c565b62000285919062000673565b905060006004600084815260200190815260200160002054905081811462000387576000600260008773ffffffffffffffffffffffffffffffffffffffff1673ffffffffffffffffffffffffffffffffffffffff1681526020019081526020016000208381548110620002fd57620002fc6200074a565b5b9060005260206000200154905080600260008873ffffffffffffffffffffffffffffffffffffffff1673ffffffffffffffffffffffffffffffffffffffff16815260200190815260200160002083815481106200035f576200035e6200074a565b5b9060005260206000200181905550816004600083815260200190815260200160002081905550505b600260008673ffffffffffffffffffffffffffffffffffffffff1673ffffffffffffffffffffffffffffffffffffffff168152602001908152602001600020805480620003d957620003d86200071b565b5b600190038181906000526020600020016000905590556005600084815260200190815260200160002060006101000a81549073ffffffffffffffffffffffffffffffffffffffff021916905550505b600260008373ffffffffffffffffffffffffffffffffffffffff1673ffffffffffffffffffffffffffffffffffffffff1681526020019081526020016000208190806001815401808255809150506001900390600052602060002001600090919091909150556001600260008473ffffffffffffffffffffffffffffffffffffffff1673ffffffffffffffffffffffffffffffffffffffff16815260200190815260200160002080549050620004df919062000673565b6004600083815260200190815260200160002081905550816003600083815260200190815260200160002060006101000a81548173ffffffffffffffffffffffffffffffffffffffff021916908373ffffffffffffffffffffffffffffffffffffffff160217905550808273ffffffffffffffffffffffffffffffffffffffff168473ffffffffffffffffffffffffffffffffffffffff167fddf252ad1be2c89b69c2b068fc378daa952ba7f163c4a11628f55a4df523b3ef60405160405180910390a4505050565b6000600260008373ffffffffffffffffffffffffffffffffffffffff1673ffffffffffffffffffffffffffffffffffffffff168152602001908152602001600020805490509050919050565b620005ff81620006ae565b82525050565b6200061081620006e2565b82525050565b600060a0820190506200062d6000830188620005f4565b6200063c602083018762000605565b6200064b604083018662000605565b6200065a606083018562000605565b62000669608083018462000605565b9695505050505050565b60006200068082620006e2565b91506200068d83620006e2565b925082821015620006a357620006a2620006ec565b5b828203905092915050565b6000620006bb82620006c2565b9050919050565b600073ffffffffffffffffffffffffffffffffffffffff82169050919050565b6000819050919050565b7f4e487b7100000000000000000000000000000000000000000000000000000000600052601160045260246000fd5b7f4e487b7100000000000000000000000000000000000000000000000000000000600052603160045260246000fd5b7f4e487b7100000000000000000000000000000000000000000000000000000000600052603260045260246000fd5b61296180620007896000396000f3fe608060405234801561001057600080fd5b50600436106101575760003560e01c806374e24367116100c3578063b88d4fde1161007c578063b88d4fde14610413578063c3133e131461042f578063ce606ee01461045f578063d9ecad7b1461047d578063e985e9c5146104ad578063ef5e94aa146104dd57610157565b806374e243671461032d57806395d89b411461035d578063a22cb4651461037b578063a9059cbb14610397578063abadce78146103b3578063b12ab40f146103e357610157565b806318160ddd1161011557806318160ddd1461024257806323b872dd1461026057806342842e0e1461027c5780634da2b48e146102985780636352211e146102cd57806370a08231146102fd57610157565b8062fef1041461015c57806301ffc9a71461018c57806306fdde03146101bc578063081812fc146101da578063095ea7b31461020a57806312a55c9614610226575b600080fd5b61017660048036038101906101719190611e5a565b6104fb565b6040516101839190612100565b60405180910390f35b6101a660048036038101906101a19190611e00565b61052e565b6040516101b391906121dc565b60405180910390f35b6101c46105ce565b6040516101d191906121f7565b60405180910390f35b6101f460048036038101906101ef9190611e5a565b61060b565b6040516102019190612100565b60405180910390f35b610224600480360381019061021f9190611dc0565b610659565b005b610240600480360381019061023b9190611e5a565b6106d5565b005b61024a6107d7565b60405161025791906122d9565b60405180910390f35b61027a60048036038101906102759190611ca5565b6107e4565b005b61029660048036038101906102919190611ca5565b61083f565b005b6102b260048036038101906102ad9190611e5a565b610874565b6040516102c4969594939291906122f4565b60405180910390f35b6102e760048036038101906102e29190611e5a565b6109ef565b6040516102f49190612100565b60405180910390f35b61031760048036038101906103129190611c38565b610a2c565b60405161032491906122d9565b60405180910390f35b61034760048036038101906103429190611e5a565b610a78565b60405161035491906122d9565b60405180910390f35b610365610a90565b60405161037291906121f7565b60405180910390f35b61039560048036038101906103909190611d80565b610acd565b005b6103b160048036038101906103ac9190611dc0565b610b79565b005b6103cd60048036038101906103c89190611e5a565b610cb0565b6040516103da9190612100565b60405180910390f35b6103fd60048036038101906103f89190611c38565b610ce3565b60405161040a91906121ba565b60405180910390f35b61042d60048036038101906104289190611cf8565b610e6c565b005b61044960048036038101906104449190611e87565b610ed8565b60405161045691906122d9565b60405180910390f35b610467611057565b6040516104749190612100565b60405180910390f35b61049760048036038101906104929190611e87565b61107b565b6040516104a491906122d9565b60405180910390f35b6104c760048036038101906104c29190611c65565b6111f4565b6040516104d491906121dc565b60405180910390f35b6104e5611288565b6040516104f291906122d9565b60405180910390f35b60056020528060005260406000206000915054906101000a900473ffffffffffffffffffffffffffffffffffffffff1681565b60006380ac58cd60e01b7bffffffffffffffffffffffffffffffffffffffffffffffffffffffff1916827bffffffffffffffffffffffffffffffffffffffffffffffffffffffff191614806105c757506301ffc9a760e01b7bffffffffffffffffffffffffffffffffffffffffffffffffffffffff1916827bffffffffffffffffffffffffffffffffffffffffffffffffffffffff1916145b9050919050565b60606040518060400160405280600881526020017f5075727266656374000000000000000000000000000000000000000000000000815250905090565b6000600180549050821061061e57600080fd5b6005600083815260200190815260200160002060009054906101000a900473ffffffffffffffffffffffffffffffffffffffff169050919050565b610663338261128e565b61066c57600080fd5b61067682826112fa565b808273ffffffffffffffffffffffffffffffffffffffff163373ffffffffffffffffffffffffffffffffffffffff167f8c5be1e5ebec7d5bd14f71427d1e84f3dd0314c0f7b2291e5b200ac8c7c3b92560405160405180910390a45050565b3373ffffffffffffffffffffffffffffffffffffffff1660008054906101000a900473ffffffffffffffffffffffffffffffffffffffff1673ffffffffffffffffffffffffffffffffffffffff1614610763576040517f08c379a000000000000000000000000000000000000000000000000000000000815260040161075a90612299565b60405180910390fd5b600a61ffff16600754106107ac576040517f08c379a00000000000000000000000000000000000000000000000000000000081526004016107a390612219565b60405180910390fd5b600760008154809291906107bf90612582565b91905055506107d381600080600033611350565b5050565b6000600180549050905090565b6107f0338484846114dc565b61082f576040517f08c379a000000000000000000000000000000000000000000000000000000000815260040161082690612259565b60405180910390fd5b61083a838383611597565b505050565b61084b338484846114dc565b61085457600080fd5b61086f838383604051806020016040528060008152506118f9565b505050565b6000806000806000806001878154811061089157610890612693565b5b906000526020600020906002020160000154955085600188815481106108ba576108b9612693565b5b906000526020600020906002020160010160009054906101000a900467ffffffffffffffff1667ffffffffffffffff169550856001898154811061090157610900612693565b5b906000526020600020906002020160010160089054906101000a900463ffffffff1663ffffffff1695508560018a815481106109405761093f612693565b5b9060005260206000209060020201600101600c9054906101000a900463ffffffff1663ffffffff1695508560018b8154811061097f5761097e612693565b5b906000526020600020906002020160010160109054906101000a900461ffff1661ffff16955085600360008d815260200190815260200160002060009054906101000a900473ffffffffffffffffffffffffffffffffffffffff1695509550955095509550955091939550919395565b60006003600083815260200190815260200160002060009054906101000a900473ffffffffffffffffffffffffffffffffffffffff169050919050565b6000600260008373ffffffffffffffffffffffffffffffffffffffff1673ffffffffffffffffffffffffffffffffffffffff168152602001908152602001600020805490509050919050565b60046020528060005260406000206000915090505481565b60606040518060400160405280600481526020017f5055525200000000000000000000000000000000000000000000000000000000815250905090565b3373ffffffffffffffffffffffffffffffffffffffff168273ffffffffffffffffffffffffffffffffffffffff161415610b0657600080fd5b610b10828261191f565b8173ffffffffffffffffffffffffffffffffffffffff163373ffffffffffffffffffffffffffffffffffffffff167f17307eab39ab6107e8899845ad3d59bd9653f200f220920489ca2b5937696c3183604051610b6d91906121dc565b60405180910390a35050565b600073ffffffffffffffffffffffffffffffffffffffff168273ffffffffffffffffffffffffffffffffffffffff161415610be9576040517f08c379a0000000000000000000000000000000000000000000000000000000008152600401610be0906122b9565b60405180910390fd5b3073ffffffffffffffffffffffffffffffffffffffff168273ffffffffffffffffffffffffffffffffffffffff161415610c58576040517f08c379a0000000000000000000000000000000000000000000000000000000008152600401610c4f906122b9565b60405180910390fd5b610c62338261128e565b610ca1576040517f08c379a0000000000000000000000000000000000000000000000000000000008152600401610c9890612279565b60405180910390fd5b610cac338383611597565b5050565b60036020528060005260406000206000915054906101000a900473ffffffffffffffffffffffffffffffffffffffff1681565b60606000610cf083610a2c565b90506000811415610d4d57600067ffffffffffffffff811115610d1657610d156126c2565b5b604051908082528060200260200182016040528015610d445781602001602082028036833780820191505090505b50915050610e67565b60008167ffffffffffffffff811115610d6957610d686126c2565b5b604051908082528060200260200182016040528015610d975781602001602082028036833780820191505090505b5090506000610da46107d7565b9050600080600190505b828111610e5e578673ffffffffffffffffffffffffffffffffffffffff166003600083815260200190815260200160002060009054906101000a900473ffffffffffffffffffffffffffffffffffffffff1673ffffffffffffffffffffffffffffffffffffffff161415610e4b5780848381518110610e3057610e2f612693565b5b6020026020010181815250508180610e4790612582565b9250505b8080610e5690612582565b915050610dae565b83955050505050505b919050565b610e78338686866114dc565b610e8157600080fd5b610ed185858585858080601f016020809104026020016040519081016040528093929190818152602001838380828437600081840152601f19601f820116905080830192505050505050506118f9565b5050505050565b6000610ee2611b56565b60006101ff4244604051602001610efa9291906120d4565b6040516020818303038152906040528051906020012060001c610f1d91906125d5565b9050600060019050600060089050600191505b6101008211610fea576000828461ffff161614610f7557606486610f5491906125d5565b848260098110610f6757610f66612693565b5b602002018181525050610f9f565b606487610f8291906125d5565b848260098110610f9557610f94612693565b5b6020020181815250505b606486610fac919061241c565b9550606487610fbb919061241c565b96506101008214610fd657600181610fd391906124a7565b90505b600282610fe3919061244d565b9150610f30565b60008092505b60098310156110495784836009811061100c5761100b612693565b5b60200201518161101c91906123c6565b90506008831461103657606481611033919061244d565b90505b828061104190612582565b935050610ff0565b809550505050505092915050565b60008054906101000a900473ffffffffffffffffffffffffffffffffffffffff1681565b6000611087338461128e565b80156110995750611098338361128e565b5b6110d8576040517f08c379a00000000000000000000000000000000000000000000000000000000081526004016110cf90612239565b60405180910390fd5b6000600184815481106110ee576110ed612693565b5b9060005260206000209060020201905060006001848154811061111457611113612693565b5b90600052602060002090600202019050600061113883600001548360000154610ed8565b905060008260010160109054906101000a900461ffff1661ffff16905060008460010160109054906101000a900461ffff1661ffff16905060008282101561119d5760018361118791906123c6565b9050600281611196919061241c565b90506111d9565b828211156111c8576001826111b291906123c6565b90506002816111c1919061241c565b90506111d8565b6001836111d591906123c6565b90505b5b6111e684898b8433611350565b965050505050505092915050565b6000600660008473ffffffffffffffffffffffffffffffffffffffff1673ffffffffffffffffffffffffffffffffffffffff16815260200190815260200160002060008373ffffffffffffffffffffffffffffffffffffffff1673ffffffffffffffffffffffffffffffffffffffff16815260200190815260200160002060009054906101000a900460ff16905092915050565b60075481565b60008273ffffffffffffffffffffffffffffffffffffffff166003600084815260200190815260200160002060009054906101000a900473ffffffffffffffffffffffffffffffffffffffff1673ffffffffffffffffffffffffffffffffffffffff1614905092915050565b816005600083815260200190815260200160002060006101000a81548173ffffffffffffffffffffffffffffffffffffffff021916908373ffffffffffffffffffffffffffffffffffffffff1602179055505050565b6000806040518060a001604052808881526020014267ffffffffffffffff1681526020018763ffffffff1681526020018663ffffffff1681526020018561ffff16815250905060018190806001815401808255809150506001900390600052602060002090600202016000909190919091506000820151816000015560208201518160010160006101000a81548167ffffffffffffffff021916908367ffffffffffffffff16021790555060408201518160010160086101000a81548163ffffffff021916908363ffffffff160217905550606082015181600101600c6101000a81548163ffffffff021916908363ffffffff16021790555060808201518160010160106101000a81548161ffff021916908361ffff160217905550505060006001808054905061148191906124a7565b90507f0a5311bd2a6608f08a180df2ee7c5946819a649b204b554bb8e39825b2c50ad5848289898c6040516114ba959493929190612167565b60405180910390a16114ce60008583611597565b809250505095945050505050565b60006114e8848361128e565b6114f157600080fd5b600073ffffffffffffffffffffffffffffffffffffffff168373ffffffffffffffffffffffffffffffffffffffff16141561152b57600080fd5b600180549050821061153c57600080fd5b8373ffffffffffffffffffffffffffffffffffffffff168573ffffffffffffffffffffffffffffffffffffffff16148061157c575061157b85836119b7565b5b8061158d575061158c84866111f4565b5b9050949350505050565b600073ffffffffffffffffffffffffffffffffffffffff168373ffffffffffffffffffffffffffffffffffffffff161461177b57600060016115d885610a2c565b6115e291906124a7565b90506000600460008481526020019081526020016000205490508181146116dd576000600260008773ffffffffffffffffffffffffffffffffffffffff1673ffffffffffffffffffffffffffffffffffffffff168152602001908152602001600020838154811061165657611655612693565b5b9060005260206000200154905080600260008873ffffffffffffffffffffffffffffffffffffffff1673ffffffffffffffffffffffffffffffffffffffff16815260200190815260200160002083815481106116b5576116b4612693565b5b9060005260206000200181905550816004600083815260200190815260200160002081905550505b600260008673ffffffffffffffffffffffffffffffffffffffff1673ffffffffffffffffffffffffffffffffffffffff16815260200190815260200160002080548061172c5761172b612664565b5b600190038181906000526020600020016000905590556005600084815260200190815260200160002060006101000a81549073ffffffffffffffffffffffffffffffffffffffff021916905550505b600260008373ffffffffffffffffffffffffffffffffffffffff1673ffffffffffffffffffffffffffffffffffffffff1681526020019081526020016000208190806001815401808255809150506001900390600052602060002001600090919091909150556001600260008473ffffffffffffffffffffffffffffffffffffffff1673ffffffffffffffffffffffffffffffffffffffff1681526020019081526020016000208054905061183091906124a7565b6004600083815260200190815260200160002081905550816003600083815260200190815260200160002060006101000a81548173ffffffffffffffffffffffffffffffffffffffff021916908373ffffffffffffffffffffffffffffffffffffffff160217905550808273ffffffffffffffffffffffffffffffffffffffff168473ffffffffffffffffffffffffffffffffffffffff167fddf252ad1be2c89b69c2b068fc378daa952ba7f163c4a11628f55a4df523b3ef60405160405180910390a4505050565b611904848484611597565b61191084848484611a23565b61191957600080fd5b50505050565b80600660003373ffffffffffffffffffffffffffffffffffffffff1673ffffffffffffffffffffffffffffffffffffffff16815260200190815260200160002060008473ffffffffffffffffffffffffffffffffffffffff1673ffffffffffffffffffffffffffffffffffffffff16815260200190815260200160002060006101000a81548160ff0219169083151502179055505050565b60008273ffffffffffffffffffffffffffffffffffffffff166005600084815260200190815260200160002060009054906101000a900473ffffffffffffffffffffffffffffffffffffffff1673ffffffffffffffffffffffffffffffffffffffff1614905092915050565b6000611a2e84611b3d565b611a3b5760019050611b35565b60008473ffffffffffffffffffffffffffffffffffffffff1663150b7a02338887876040518563ffffffff1660e01b8152600401611a7c949392919061211b565b602060405180830381600087803b158015611a9657600080fd5b505af1158015611aaa573d6000803e3d6000fd5b505050506040513d601f19601f82011682018060405250810190611ace9190611e2d565b90507f150b7a023d4804d13e8c85fb27262cb750cf6ba9f9dd3bb30d90f482ceeb4b1f7bffffffffffffffffffffffffffffffffffffffffffffffffffffffff1916817bffffffffffffffffffffffffffffffffffffffffffffffffffffffff1916149150505b949350505050565b600080823b905060008163ffffffff1611915050919050565b604051806101200160405280600990602082028036833780820191505090505090565b600081359050611b88816128cf565b92915050565b600081359050611b9d816128e6565b92915050565b600081359050611bb2816128fd565b92915050565b600081519050611bc7816128fd565b92915050565b60008083601f840112611be357611be26126f6565b5b8235905067ffffffffffffffff811115611c0057611bff6126f1565b5b602083019150836001820283011115611c1c57611c1b6126fb565b5b9250929050565b600081359050611c3281612914565b92915050565b600060208284031215611c4e57611c4d612705565b5b6000611c5c84828501611b79565b91505092915050565b60008060408385031215611c7c57611c7b612705565b5b6000611c8a85828601611b79565b9250506020611c9b85828601611b79565b9150509250929050565b600080600060608486031215611cbe57611cbd612705565b5b6000611ccc86828701611b79565b9350506020611cdd86828701611b79565b9250506040611cee86828701611c23565b9150509250925092565b600080600080600060808688031215611d1457611d13612705565b5b6000611d2288828901611b79565b9550506020611d3388828901611b79565b9450506040611d4488828901611c23565b935050606086013567ffffffffffffffff811115611d6557611d64612700565b5b611d7188828901611bcd565b92509250509295509295909350565b60008060408385031215611d9757611d96612705565b5b6000611da585828601611b79565b9250506020611db685828601611b8e565b9150509250929050565b60008060408385031215611dd757611dd6612705565b5b6000611de585828601611b79565b9250506020611df685828601611c23565b9150509250929050565b600060208284031215611e1657611e15612705565b5b6000611e2484828501611ba3565b91505092915050565b600060208284031215611e4357611e42612705565b5b6000611e5184828501611bb8565b91505092915050565b600060208284031215611e7057611e6f612705565b5b6000611e7e84828501611c23565b91505092915050565b60008060408385031215611e9e57611e9d612705565b5b6000611eac85828601611c23565b9250506020611ebd85828601611c23565b9150509250929050565b6000611ed3838361209f565b60208301905092915050565b611ee8816124db565b82525050565b6000611ef982612365565b611f038185612393565b9350611f0e83612355565b8060005b83811015611f3f578151611f268882611ec7565b9750611f3183612386565b925050600181019050611f12565b5085935050505092915050565b611f55816124ed565b82525050565b6000611f6682612370565b611f7081856123a4565b9350611f8081856020860161254f565b611f898161270a565b840191505092915050565b6000611f9f8261237b565b611fa981856123b5565b9350611fb981856020860161254f565b611fc28161270a565b840191505092915050565b6000611fda6021836123b5565b9150611fe58261271b565b604082019050919050565b6000611ffd6028836123b5565b91506120088261276a565b604082019050919050565b60006120206020836123b5565b915061202b826127b9565b602082019050919050565b60006120436026836123b5565b915061204e826127e2565b604082019050919050565b60006120666025836123b5565b915061207182612831565b604082019050919050565b60006120896022836123b5565b915061209482612880565b604082019050919050565b6120a881612545565b82525050565b6120b781612545565b82525050565b6120ce6120c982612545565b6125cb565b82525050565b60006120e082856120bd565b6020820191506120f082846120bd565b6020820191508190509392505050565b60006020820190506121156000830184611edf565b92915050565b60006080820190506121306000830187611edf565b61213d6020830186611edf565b61214a60408301856120ae565b818103606083015261215c8184611f5b565b905095945050505050565b600060a08201905061217c6000830188611edf565b61218960208301876120ae565b61219660408301866120ae565b6121a360608301856120ae565b6121b060808301846120ae565b9695505050505050565b600060208201905081810360008301526121d48184611eee565b905092915050565b60006020820190506121f16000830184611f4c565b92915050565b600060208201905081810360008301526122118184611f94565b905092915050565b6000602082019050818103600083015261223281611fcd565b9050919050565b6000602082019050818103600083015261225281611ff0565b9050919050565b6000602082019050818103600083015261227281612013565b9050919050565b6000602082019050818103600083015261229281612036565b9050919050565b600060208201905081810360008301526122b281612059565b9050919050565b600060208201905081810360008301526122d28161207c565b9050919050565b60006020820190506122ee60008301846120ae565b92915050565b600060c08201905061230960008301896120ae565b61231660208301886120ae565b61232360408301876120ae565b61233060608301866120ae565b61233d60808301856120ae565b61234a60a0830184611edf565b979650505050505050565b6000819050602082019050919050565b600081519050919050565b600081519050919050565b600081519050919050565b6000602082019050919050565b600082825260208201905092915050565b600082825260208201905092915050565b600082825260208201905092915050565b60006123d182612545565b91506123dc83612545565b9250827fffffffffffffffffffffffffffffffffffffffffffffffffffffffffffffffff0382111561241157612410612606565b5b828201905092915050565b600061242782612545565b915061243283612545565b92508261244257612441612635565b5b828204905092915050565b600061245882612545565b915061246383612545565b9250817fffffffffffffffffffffffffffffffffffffffffffffffffffffffffffffffff048311821515161561249c5761249b612606565b5b828202905092915050565b60006124b282612545565b91506124bd83612545565b9250828210156124d0576124cf612606565b5b828203905092915050565b60006124e682612525565b9050919050565b60008115159050919050565b60007fffffffff0000000000000000000000000000000000000000000000000000000082169050919050565b600073ffffffffffffffffffffffffffffffffffffffff82169050919050565b6000819050919050565b60005b8381101561256d578082015181840152602081019050612552565b8381111561257c576000848401525b50505050565b600061258d82612545565b91507fffffffffffffffffffffffffffffffffffffffffffffffffffffffffffffffff8214156125c0576125bf612606565b5b600182019050919050565b6000819050919050565b60006125e082612545565b91506125eb83612545565b9250826125fb576125fa612635565b5b828206905092915050565b7f4e487b7100000000000000000000000000000000000000000000000000000000600052601160045260246000fd5b7f4e487b7100000000000000000000000000000000000000000000000000000000600052601260045260246000fd5b7f4e487b7100000000000000000000000000000000000000000000000000000000600052603160045260246000fd5b7f4e487b7100000000000000000000000000000000000000000000000000000000600052603260045260246000fd5b7f4e487b7100000000000000000000000000000000000000000000000000000000600052604160045260246000fd5b600080fd5b600080fd5b600080fd5b600080fd5b600080fd5b6000601f19601f8301169050919050565b7f67656e30436f756e746572203c2047656e305f4372656174696f6e5f4c696d6960008201527f7400000000000000000000000000000000000000000000000000000000000000602082015250565b7f596f75206d757374206f776e20626f7468206361747320696e206f726465722060008201527f746f206272656564000000000000000000000000000000000000000000000000602082015250565b7f4552433732313a204973206e6f7420617070726f766564206f72206f776e6572600082015250565b7f596f75204d757374204f776e2054686520546f6b656e20596f7520417265205360008201527f656e64696e670000000000000000000000000000000000000000000000000000602082015250565b7f596f7520617265206e6f7420746865206f776e6572206f662074686520636f6e60008201527f7472616374000000000000000000000000000000000000000000000000000000602082015250565b7f43616e6e6f742053656e6420546f6b656e7320546f205468697320416464726560008201527f7373000000000000000000000000000000000000000000000000000000000000602082015250565b6128d8816124db565b81146128e357600080fd5b50565b6128ef816124ed565b81146128fa57600080fd5b50565b612906816124f9565b811461291157600080fd5b50565b61291d81612545565b811461292857600080fd5b5056fea264697066735822122054de6f08718fe7722da4bfc991a4e4ef18d14035e6468e007f737ce87c3a436e64736f6c63430008070033",
  "immutableReferences": {},
  "source": "pragma solidity >=0.4.22 <0.9.0;\n\nimport \"./IERC721.sol\";\nimport \"./IERC721Receiver.sol\";\nimport \"../node_modules/@openzeppelin/contracts/access/Ownable.sol\";\ncontract Catcontract is IERC721 {\n\nstring private  constant Name = \"Purrfect\";\nstring private constant Symbol = \"PURR\";\nuint16 private constant Gen0_Creation_Limit = 10;\nbytes4 internal constant MAGIC_ERC721_RECEIVED= bytes4(keccak256(\"onERC721Received(address,address,uint256,bytes)\"));\nbytes4 private constant _INTERFACE_ID_ERC721 = 0x80ac58cd;\nbytes4 private constant _INTERFACE_ID_ERC165 = 0x01ffc9a7;\naddress public contractOwner;\n\nevent Birth(address owner, uint256 catId, uint256 mumId, uint256 dadId, uint256 genes);\n\n\nmodifier onlyOwner{\n    require(contractOwner == msg.sender, \"You are not the owner of the contract\");\n    _;\n}\n\nstruct Cat {\n    uint256 genes;\n    uint64 birthTime;\n    uint32 mumId;\n    uint32 dadId;\n    uint16 generation;\n}\n\nconstructor(){\n    contractOwner = msg.sender;\n    uint256 gen = type(uint256).max;\n    _createCat(0, 0, 0, gen, address(0));//_createCat(0, 0, 0, gen-1, address(0))\n}\n\nCat[] cats;\n//        owner => amount\nmapping(address => uint256[]) ownerTokenBalance;\n\n//      tokenId => owner of cat\nmapping(uint256 => address) public catIndexToOwner;\n\n//      tokenId => index of owner token list\nmapping(uint256 => uint256) public ownedTokensIndex;\n\n// tokenId => another approved address \nmapping(uint256 => address) public catIndexToApproved;\n\nmapping(address => mapping(address => bool)) private operatorApprovals;\n\nuint256 public gen0Counter;\n\n\n\nfunction breed(uint256 _dadId, uint256 _mumId) public returns(uint256){\n\n    require(owns(msg.sender, _dadId) && owns(msg.sender, _mumId), \"You must own both cats in order to breed\");\n    Cat storage dad = cats[_dadId];\n    Cat storage mum = cats[_mumId];\n\n    uint256 newCatDna = mixDna(dad.genes, mum.genes);\n    \n    \n    uint256 mumGen = mum.generation;\n    uint256 dadGen = dad.generation;\n    uint256 kidGen = 0; \n\n    if(dadGen < mumGen){\n        kidGen = mumGen+1;\n        kidGen /= 2;\n    }else if(dadGen > mumGen){\n        kidGen = dadGen + 1;\n        kidGen /= 2;\n    }else{\n        kidGen = mumGen + 1;\n    }\n    \n    return _createCat(newCatDna, _mumId, _dadId, kidGen, msg.sender);\n}\n\n\nfunction mixDna(uint256 _dadDna, uint256 _mumDna) public view returns(uint256){\n    uint256[9] memory geneArray;\n    \n    //uint16 random = uint16(block.timestamp % 511);\n    uint16 random = uint16(uint256(keccak256(abi.encodePacked(block.timestamp, block.difficulty))) % 511);//binary between 000000000-111111111\n    uint256 i = 1;\n    uint256 index = 8;\n    \n    for(i=1; i <= 256; i=i*2) {  //1, 2, 4, 8, 16, 32, 64, 128, 256 = 9 pairs\n        if(random & i !=0){\n            geneArray[index] = _mumDna % 100;\n        }else{\n            geneArray[index] = _dadDna % 100;\n        }\n        _mumDna = _mumDna / 100;  //removing the last two digits by moving the decimal point\n        _dadDna = _dadDna / 100;\n        \n        if(i != 256){index = index-1;}\n    }\n    \n    uint256 newGene;\n    \n    for(i=0; i<9; i++){\n        newGene = newGene + geneArray[i];\n        if(i !=8 ){\n            newGene = newGene *100;\n        }\n    } \n    return newGene;\n}\n\nfunction createCatGen0(uint256 _genes)public onlyOwner{\n    require(gen0Counter < Gen0_Creation_Limit, \"gen0Counter < Gen0_Creation_Limit\");\n    gen0Counter++;\n\n    _createCat(_genes, 0, 0, 0, msg.sender);\n}\n\nfunction _createCat(\n    uint256 _genes,\n    uint256 _mumId,\n    uint256 _dadId,\n    uint256 _generation,\n    address _owner\n)internal returns(uint256){\n    Cat memory _cat = Cat({\n        genes: uint256(_genes),\n        birthTime: uint64(block.timestamp),\n        mumId: uint32(_mumId),\n        dadId: uint32(_dadId),\n        generation: uint16(_generation)\n    });\n\n    //uint256 newCatId = cats.push(_cat)-1;\n    cats.push(_cat);\n    uint256 newCatId = cats.length - 1;\n     \n\n    emit Birth(_owner, newCatId, _mumId, _dadId, _genes);\n\n    _transfer(address(0), _owner, newCatId);\n\n    return newCatId;\n}\n\n    //returning the values in uint256 due to front end preferences (easier to read)\n    function getCat(uint256 _tokenId) public view returns(\n        uint256 genes, \n        uint256 birthTime, \n        uint256 mumId, \n        uint256 dadId, \n        uint256 generation, \n        address owner \n        ){\n        return(\n            genes = cats[_tokenId].genes,\n            birthTime = cats[_tokenId].birthTime,\n            mumId = cats[_tokenId].mumId,\n            dadId = cats[_tokenId].dadId,\n            generation = cats[_tokenId].generation,\n            owner = catIndexToOwner[_tokenId]\n        );\n    }\n\n    function supportsInterface(bytes4 _interfaceId) external pure returns (bool){\n        return(_interfaceId ==_INTERFACE_ID_ERC721 || _interfaceId == _INTERFACE_ID_ERC165);\n    }\n\n    function balanceOf(address owner) public view override returns (uint256 balance){\n        return ownerTokenBalance[owner].length;\n        \n    }\n\n    function totalSupply() public view override returns (uint256 total){\n        total = cats.length;\n        return total; \n    }\n\n    function ownerOf(uint256 tokenId) external view override returns (address owner){\n        return catIndexToOwner[tokenId];\n    }\n\n\n    \n    function owns(address claimant, uint256 _tokenId) internal view returns (bool){\n        return catIndexToOwner[_tokenId] == claimant;\n    }\n\n    function approve(address to, uint256 _tokenId) external override {\n        require(owns(msg.sender, _tokenId));\n        _approve(to, _tokenId);\n        emit Approval(msg.sender, to, _tokenId);\n    }\n\n    function _approve(address approved, uint256 tokenId) internal {\n        catIndexToApproved[tokenId] = approved;\n    }\n\n    function setApprovalForAll(address operator, bool approved) external override{ \n        require(operator != msg.sender);\n        _setApprovalForAll(operator, approved);\n        emit ApprovalForAll(msg.sender, operator, approved);\n    }\n\n    function _setApprovalForAll(address _operator, bool _approved) internal{\n        operatorApprovals[msg.sender][_operator] = _approved;\n    }\n\n    function getApproved(uint256 _tokenId) external view override returns (address){\n        require(_tokenId < cats.length);//check that the token exists\n        return catIndexToApproved[_tokenId];\n    }\n\n    function isApprovedForAll(address _owner, address _operator) public override view returns (bool){\n        //returns the mapping status for these inputs\n        return operatorApprovals[_owner][_operator];\n    } \n    function safeTransferFrom(address _from, address _to, uint256 _tokenId) external override{\n        require(ownerOrApprovedCheck(msg.sender, _from, _to, _tokenId));\n        _safeTransfer(_from, _to, _tokenId, \"\");\n    }\n\n    function safeTransferFrom(address _from, address _to, uint256 _tokenId, bytes calldata data) external override{\n        require(ownerOrApprovedCheck(msg.sender, _from, _to, _tokenId));\n        _safeTransfer(_from, _to, _tokenId, data);\n    }\n\n    function _safeTransfer(address from, address to, uint256 tokenId, bytes memory data)internal {\n        _transfer(from, to, tokenId);\n        require(_checkERC721Support(from, to, tokenId, data));\n    }\n\n    function transferFrom(address _from, address _to, uint256 _tokenId) external override{\n        require(ownerOrApprovedCheck(msg.sender, _from, _to, _tokenId), \"ERC721: Is not approved or owner\");\n        _transfer(_from, _to, _tokenId);\n    }\n\n    function transfer(address to, uint256 tokenId) external override{\n        require(to != address(0), \"Cannot Send Tokens To This Address\");\n        require(to != address(this), \"Cannot Send Tokens To This Address\");\n        require(owns(msg.sender, tokenId), \"You Must Own The Token You Are Sending\");\n        _transfer(msg.sender, to, tokenId);\n    }\n\n    // function _transfer(address from, address _to, uint256 _tokenId) internal {\n    //     ownerTokenBalance[_to]++;\n    //     catIndexToOwner[_tokenId] = _to;\n\n    //     //(edge case senario) when we mint new cats we dont want to decrease the token count\n    //     if(from != address (0)) {\n    //         ownerTokenBalance[from]--;\n    //         //this makes sure that the approval history for that token is erased\n    //         delete catIndexToApproved[_tokenId];\n    //     }\n    //     emit Transfer(from, _to, _tokenId);\n    // }\n\n    function _transfer(address _from, address _to, uint256 _tokenId) internal {\n        if(_from != address(0)){\n      uint256 lastTokenIndex = balanceOf(_from) - 1;\n      uint256 tokenIndex = ownedTokensIndex[_tokenId];\n      if(tokenIndex != lastTokenIndex){\n        uint256 lastTokenId = ownerTokenBalance[_from][lastTokenIndex];\n        ownerTokenBalance[_from][tokenIndex] = lastTokenId;\n        ownedTokensIndex[lastTokenId] = tokenIndex;\n      }\n      ownerTokenBalance[_from].pop();\n      delete catIndexToApproved[_tokenId];\n    }\n      ownerTokenBalance[_to].push(_tokenId);\n      ownedTokensIndex[_tokenId] = ownerTokenBalance[_to].length - 1;\n      catIndexToOwner[_tokenId] = _to; \n      emit Transfer(_from, _to, _tokenId);\n    }\n\n    \n    function _checkERC721Support(address from, address to, uint256 tokenId, bytes memory data) internal returns(bool){\n        if( !isContract(to) ){\n            return true; //if it is not a contract return true\n        }\n        //call onERC721Recieved in the to contract\n        bytes4 returnData = IERC721Receiver(to).onERC721Received(msg.sender, from, tokenId, data);\n        return returnData == MAGIC_ERC721_RECEIVED;\n    }\n\n    function isContract(address _to) internal view returns(bool){\n        uint32 size;\n        assembly{\n            size := extcodesize(_to)\n        }\n\n        return size > 0;\n    }\n\n    function approvedFor(address claimant, uint256 tokenId) internal view returns(bool){\n        return catIndexToApproved[tokenId] == claimant;\n    }\n\n    function name() external pure override returns (string memory tokenName){    return Name;    }\n    function symbol() external pure override returns (string memory tokenSymbol){    return Symbol;  }\n\n    //to reduce code duplication, made an internal function with the require statements and returns true/false\n    function ownerOrApprovedCheck(address spender, address _from, address _to, uint256 _tokenId) internal view returns(bool){\n        require(owns(_from, _tokenId));\n        require(_to != address(0));\n        require(_tokenId < cats.length);\n        return(spender == _from || approvedFor(spender, _tokenId) || isApprovedForAll(_from, spender));\n\n    }\n\n    function ownedTokens(address _owner) public view returns(uint256[] memory ownerTokens) {\n    uint256 tokenCount = balanceOf(_owner);\n\n    if (tokenCount == 0) {\n        return new uint256[](0);\n    } else {\n        uint256[] memory result = new uint256[](tokenCount);\n        uint256 totalCats = totalSupply();\n        uint256 resultIndex = 0;\n\n        uint256 catId;\n\n        for (catId = 1; catId <= totalCats; catId++) {\n            if (catIndexToOwner[catId] == _owner) {\n                result[resultIndex] = catId;\n                resultIndex++;\n            }\n        }\n\n        return result;\n    }\n    \n    }\n}",
  "sourcePath": "/Users/OllieFrancis/Documents/Ethereum/Crypto-Cats-Dapp/contracts/CatContract.sol",
  "compiler": {
    "name": "solc",
    "version": "0.8.7+commit.e28d00a7.Emscripten.clang"
  },
  "schemaVersion": "3.4.2",
  "updatedAt": "2021-08-26T14:00:55.389Z",
  "networkType": "ethereum",
  "devdoc": {
    "kind": "dev",
    "methods": {
      "balanceOf(address)": {
        "details": "Returns the number of tokens in ``owner``'s account."
      },
      "getApproved(uint256)": {
        "details": "Throws if `_tokenId` is not a valid NFT.",
        "params": {
          "_tokenId": "The NFT to find the approved address for"
        },
        "returns": {
          "_0": "The approved address for this NFT, or the zero address if there is none"
        }
      },
      "isApprovedForAll(address,address)": {
        "params": {
          "_operator": "The address that acts on behalf of the owner",
          "_owner": "The address that owns the NFTs"
        },
        "returns": {
          "_0": "True if `_operator` is an approved operator for `_owner`, false otherwise"
        }
      },
      "ownerOf(uint256)": {
        "details": "Returns the owner of the `tokenId` token. Requirements: - `tokenId` must exist."
      },
      "safeTransferFrom(address,address,uint256)": {
        "details": "This works identically to the other function with an extra data parameter,  except this function just sets data to \"\".",
        "params": {
          "_from": "The current owner of the NFT",
          "_to": "The new owner",
          "_tokenId": "The NFT to transfer"
        }
      },
      "safeTransferFrom(address,address,uint256,bytes)": {
        "details": "Throws unless `msg.sender` is the current owner, an authorized  operator, or the approved address for this NFT. Throws if `_from` is  not the current owner. Throws if `_to` is the zero address. Throws if  `_tokenId` is not a valid NFT. When transfer is complete, this function  checks if `_to` is a smart contract (code size > 0). If so, it calls  `onERC721Received` on `_to` and throws if the return value is not  `bytes4(keccak256(\"onERC721Received(address,address,uint256,bytes)\"))`.",
        "params": {
          "_from": "The current owner of the NFT",
          "_to": "The new owner",
          "_tokenId": "The NFT to transfer",
          "data": "Additional data with no specified format, sent in call to `_to`"
        }
      },
      "transferFrom(address,address,uint256)": {
        "details": "Throws unless `msg.sender` is the current owner, an authorized  operator, or the approved address for this NFT. Throws if `_from` is  not the current owner. Throws if `_to` is the zero address. Throws if  `_tokenId` is not a valid NFT.",
        "params": {
          "_from": "The current owner of the NFT",
          "_to": "The new owner",
          "_tokenId": "The NFT to transfer"
        }
      }
    },
    "version": 1
  },
  "userdoc": {
    "kind": "user",
    "methods": {
      "getApproved(uint256)": {
        "notice": "Get the approved address for a single NFT"
      },
      "isApprovedForAll(address,address)": {
        "notice": "Query if an address is an authorized operator for another address"
      },
      "safeTransferFrom(address,address,uint256)": {
        "notice": "Transfers the ownership of an NFT from one address to another address"
      },
      "safeTransferFrom(address,address,uint256,bytes)": {
        "notice": "Transfers the ownership of an NFT from one address to another address"
      },
      "transferFrom(address,address,uint256)": {
        "notice": "Transfer ownership of an NFT -- THE CALLER IS RESPONSIBLE  TO CONFIRM THAT `_to` IS CAPABLE OF RECEIVING NFTS OR ELSE  THEY MAY BE PERMANENTLY LOST"
      }
    },
    "version": 1
  }
}