{
  "contractName": "Catcontract",
  "abi": [
    {
      "inputs": [],
      "stateMutability": "nonpayable",
      "type": "constructor"
    },
    {
      "anonymous": false,
      "inputs": [
        {
          "indexed": true,
          "internalType": "address",
          "name": "owner",
          "type": "address"
        },
        {
          "indexed": true,
          "internalType": "address",
          "name": "approved",
          "type": "address"
        },
        {
          "indexed": true,
          "internalType": "uint256",
          "name": "tokenId",
          "type": "uint256"
        }
      ],
      "name": "Approval",
      "type": "event"
    },
    {
      "anonymous": false,
      "inputs": [
        {
          "indexed": true,
          "internalType": "address",
          "name": "owner",
          "type": "address"
        },
        {
          "indexed": true,
          "internalType": "address",
          "name": "operator",
          "type": "address"
        },
        {
          "indexed": false,
          "internalType": "bool",
          "name": "approved",
          "type": "bool"
        }
      ],
      "name": "ApprovalForAll",
      "type": "event"
    },
    {
      "anonymous": false,
      "inputs": [
        {
          "indexed": false,
          "internalType": "address",
          "name": "owner",
          "type": "address"
        },
        {
          "indexed": false,
          "internalType": "uint256",
          "name": "catId",
          "type": "uint256"
        },
        {
          "indexed": false,
          "internalType": "uint256",
          "name": "mumId",
          "type": "uint256"
        },
        {
          "indexed": false,
          "internalType": "uint256",
          "name": "dadId",
          "type": "uint256"
        },
        {
          "indexed": false,
          "internalType": "uint256",
          "name": "genes",
          "type": "uint256"
        }
      ],
      "name": "Birth",
      "type": "event"
    },
    {
      "anonymous": false,
      "inputs": [
        {
          "indexed": true,
          "internalType": "address",
          "name": "from",
          "type": "address"
        },
        {
          "indexed": true,
          "internalType": "address",
          "name": "to",
          "type": "address"
        },
        {
          "indexed": true,
          "internalType": "uint256",
          "name": "tokenId",
          "type": "uint256"
        }
      ],
      "name": "Transfer",
      "type": "event"
    },
    {
      "inputs": [
        {
          "internalType": "uint256",
          "name": "",
          "type": "uint256"
        }
      ],
      "name": "catIndexToApproved",
      "outputs": [
        {
          "internalType": "address",
          "name": "",
          "type": "address"
        }
      ],
      "stateMutability": "view",
      "type": "function",
      "constant": true
    },
    {
      "inputs": [
        {
          "internalType": "uint256",
          "name": "",
          "type": "uint256"
        }
      ],
      "name": "catIndexToOwner",
      "outputs": [
        {
          "internalType": "address",
          "name": "",
          "type": "address"
        }
      ],
      "stateMutability": "view",
      "type": "function",
      "constant": true
    },
    {
      "inputs": [],
      "name": "contractOwner",
      "outputs": [
        {
          "internalType": "address",
          "name": "",
          "type": "address"
        }
      ],
      "stateMutability": "view",
      "type": "function",
      "constant": true
    },
    {
      "inputs": [],
      "name": "gen0Counter",
      "outputs": [
        {
          "internalType": "uint256",
          "name": "",
          "type": "uint256"
        }
      ],
      "stateMutability": "view",
      "type": "function",
      "constant": true
    },
    {
      "inputs": [
        {
          "internalType": "uint256",
          "name": "_dadId",
          "type": "uint256"
        },
        {
          "internalType": "uint256",
          "name": "_mumId",
          "type": "uint256"
        }
      ],
      "name": "breed",
      "outputs": [],
      "stateMutability": "nonpayable",
      "type": "function"
    },
    {
      "inputs": [
        {
          "internalType": "uint256",
          "name": "_genes",
          "type": "uint256"
        }
      ],
      "name": "createCatGen0",
      "outputs": [],
      "stateMutability": "nonpayable",
      "type": "function"
    },
    {
      "inputs": [
        {
          "internalType": "uint256",
          "name": "_tokenId",
          "type": "uint256"
        }
      ],
      "name": "getCat",
      "outputs": [
        {
          "internalType": "uint256",
          "name": "genes",
          "type": "uint256"
        },
        {
          "internalType": "uint256",
          "name": "birthTime",
          "type": "uint256"
        },
        {
          "internalType": "uint256",
          "name": "mumId",
          "type": "uint256"
        },
        {
          "internalType": "uint256",
          "name": "dadId",
          "type": "uint256"
        },
        {
          "internalType": "uint256",
          "name": "generation",
          "type": "uint256"
        },
        {
          "internalType": "address",
          "name": "owner",
          "type": "address"
        }
      ],
      "stateMutability": "view",
      "type": "function",
      "constant": true
    },
    {
      "inputs": [
        {
          "internalType": "bytes4",
          "name": "_interfaceId",
          "type": "bytes4"
        }
      ],
      "name": "supportsInterface",
      "outputs": [
        {
          "internalType": "bool",
          "name": "",
          "type": "bool"
        }
      ],
      "stateMutability": "pure",
      "type": "function",
      "constant": true
    },
    {
      "inputs": [
        {
          "internalType": "address",
          "name": "owner",
          "type": "address"
        }
      ],
      "name": "balanceOf",
      "outputs": [
        {
          "internalType": "uint256",
          "name": "balance",
          "type": "uint256"
        }
      ],
      "stateMutability": "view",
      "type": "function",
      "constant": true
    },
    {
      "inputs": [],
      "name": "totalSupply",
      "outputs": [
        {
          "internalType": "uint256",
          "name": "total",
          "type": "uint256"
        }
      ],
      "stateMutability": "view",
      "type": "function",
      "constant": true
    },
    {
      "inputs": [
        {
          "internalType": "uint256",
          "name": "tokenId",
          "type": "uint256"
        }
      ],
      "name": "ownerOf",
      "outputs": [
        {
          "internalType": "address",
          "name": "owner",
          "type": "address"
        }
      ],
      "stateMutability": "view",
      "type": "function",
      "constant": true
    },
    {
      "inputs": [
        {
          "internalType": "address",
          "name": "to",
          "type": "address"
        },
        {
          "internalType": "uint256",
          "name": "tokenId",
          "type": "uint256"
        }
      ],
      "name": "transfer",
      "outputs": [],
      "stateMutability": "nonpayable",
      "type": "function"
    },
    {
      "inputs": [
        {
          "internalType": "address",
          "name": "to",
          "type": "address"
        },
        {
          "internalType": "uint256",
          "name": "_tokenId",
          "type": "uint256"
        }
      ],
      "name": "approve",
      "outputs": [],
      "stateMutability": "nonpayable",
      "type": "function"
    },
    {
      "inputs": [
        {
          "internalType": "address",
          "name": "operator",
          "type": "address"
        },
        {
          "internalType": "bool",
          "name": "approved",
          "type": "bool"
        }
      ],
      "name": "setApprovalForAll",
      "outputs": [],
      "stateMutability": "nonpayable",
      "type": "function"
    },
    {
      "inputs": [
        {
          "internalType": "uint256",
          "name": "_tokenId",
          "type": "uint256"
        }
      ],
      "name": "getApproved",
      "outputs": [
        {
          "internalType": "address",
          "name": "",
          "type": "address"
        }
      ],
      "stateMutability": "view",
      "type": "function",
      "constant": true
    },
    {
      "inputs": [
        {
          "internalType": "address",
          "name": "_owner",
          "type": "address"
        },
        {
          "internalType": "address",
          "name": "_operator",
          "type": "address"
        }
      ],
      "name": "isApprovedForAll",
      "outputs": [
        {
          "internalType": "bool",
          "name": "",
          "type": "bool"
        }
      ],
      "stateMutability": "view",
      "type": "function",
      "constant": true
    },
    {
      "inputs": [
        {
          "internalType": "address",
          "name": "_from",
          "type": "address"
        },
        {
          "internalType": "address",
          "name": "_to",
          "type": "address"
        },
        {
          "internalType": "uint256",
          "name": "_tokenId",
          "type": "uint256"
        }
      ],
      "name": "safeTransferFrom",
      "outputs": [],
      "stateMutability": "nonpayable",
      "type": "function"
    },
    {
      "inputs": [
        {
          "internalType": "address",
          "name": "_from",
          "type": "address"
        },
        {
          "internalType": "address",
          "name": "_to",
          "type": "address"
        },
        {
          "internalType": "uint256",
          "name": "_tokenId",
          "type": "uint256"
        },
        {
          "internalType": "bytes",
          "name": "data",
          "type": "bytes"
        }
      ],
      "name": "safeTransferFrom",
      "outputs": [],
      "stateMutability": "nonpayable",
      "type": "function"
    },
    {
      "inputs": [
        {
          "internalType": "address",
          "name": "_from",
          "type": "address"
        },
        {
          "internalType": "address",
          "name": "_to",
          "type": "address"
        },
        {
          "internalType": "uint256",
          "name": "_tokenId",
          "type": "uint256"
        }
      ],
      "name": "transferFrom",
      "outputs": [],
      "stateMutability": "nonpayable",
      "type": "function"
    },
    {
      "inputs": [],
      "name": "name",
      "outputs": [
        {
          "internalType": "string",
          "name": "tokenName",
          "type": "string"
        }
      ],
      "stateMutability": "pure",
      "type": "function",
      "constant": true
    },
    {
      "inputs": [],
      "name": "symbol",
      "outputs": [
        {
          "internalType": "string",
          "name": "tokenSymbol",
          "type": "string"
        }
      ],
      "stateMutability": "pure",
      "type": "function",
      "constant": true
    },
    {
      "inputs": [
        {
          "internalType": "address",
          "name": "_owner",
          "type": "address"
        }
      ],
      "name": "ownedTokens",
      "outputs": [
        {
          "internalType": "uint256[]",
          "name": "ownerTokens",
          "type": "uint256[]"
        }
      ],
      "stateMutability": "view",
      "type": "function",
      "constant": true
    }
  ],
  "bytecode": "0x60806040523480156200001157600080fd5b50336000806101000a81548173ffffffffffffffffffffffffffffffffffffffff021916908373ffffffffffffffffffffffffffffffffffffffff16021790555060007fffffffffffffffffffffffffffffffffffffffffffffffffffffffffffffffff90506200008f60008060008460006200009760201b60201c565b50506200059f565b6000806040518060a001604052808881526020014267ffffffffffffffff1681526020018763ffffffff1681526020018663ffffffff1681526020018561ffff16815250905060018190806001815401808255809150506001900390600052602060002090600202016000909190919091506000820151816000015560208201518160010160006101000a81548167ffffffffffffffff021916908367ffffffffffffffff16021790555060408201518160010160086101000a81548163ffffffff021916908363ffffffff160217905550606082015181600101600c6101000a81548163ffffffff021916908363ffffffff16021790555060808201518160010160106101000a81548161ffff021916908361ffff1602179055505050600060018080549050620001ca91906200047a565b90507f0a5311bd2a6608f08a180df2ee7c5946819a649b204b554bb8e39825b2c50ad5848289898c604051620002059594939291906200041d565b60405180910390a162000221600085836200022f60201b60201c565b809250505095945050505050565b600260008373ffffffffffffffffffffffffffffffffffffffff1673ffffffffffffffffffffffffffffffffffffffff1681526020019081526020016000206000815480929190620002819062000522565b9190505550816003600083815260200190815260200160002060006101000a81548173ffffffffffffffffffffffffffffffffffffffff021916908373ffffffffffffffffffffffffffffffffffffffff160217905550600073ffffffffffffffffffffffffffffffffffffffff168373ffffffffffffffffffffffffffffffffffffffff16146200039b57600260008473ffffffffffffffffffffffffffffffffffffffff1673ffffffffffffffffffffffffffffffffffffffff16815260200190815260200160002060008154809291906200035f90620004f3565b91905055506004600082815260200190815260200160002060006101000a81549073ffffffffffffffffffffffffffffffffffffffff02191690555b808273ffffffffffffffffffffffffffffffffffffffff168473ffffffffffffffffffffffffffffffffffffffff167fddf252ad1be2c89b69c2b068fc378daa952ba7f163c4a11628f55a4df523b3ef60405160405180910390a4505050565b6200040681620004b5565b82525050565b6200041781620004e9565b82525050565b600060a082019050620004346000830188620003fb565b6200044360208301876200040c565b6200045260408301866200040c565b6200046160608301856200040c565b6200047060808301846200040c565b9695505050505050565b60006200048782620004e9565b91506200049483620004e9565b925082821015620004aa57620004a962000570565b5b828203905092915050565b6000620004c282620004c9565b9050919050565b600073ffffffffffffffffffffffffffffffffffffffff82169050919050565b6000819050919050565b60006200050082620004e9565b9150600082141562000517576200051662000570565b5b600182039050919050565b60006200052f82620004e9565b91507fffffffffffffffffffffffffffffffffffffffffffffffffffffffffffffffff82141562000565576200056462000570565b5b600182019050919050565b7f4e487b7100000000000000000000000000000000000000000000000000000000600052601160045260246000fd5b612a1080620005af6000396000f3fe608060405234801561001057600080fd5b50600436106101415760003560e01c806370a08231116100b8578063b12ab40f1161007c578063b12ab40f1461039d578063b88d4fde146103cd578063ce606ee0146103e9578063d9ecad7b14610407578063e985e9c514610423578063ef5e94aa1461045357610141565b806370a08231146102e757806395d89b4114610317578063a22cb46514610335578063a9059cbb14610351578063abadce781461036d57610141565b806312a55c961161010a57806312a55c961461021057806318160ddd1461022c57806323b872dd1461024a57806342842e0e146102665780634da2b48e146102825780636352211e146102b757610141565b8062fef1041461014657806301ffc9a71461017657806306fdde03146101a6578063081812fc146101c4578063095ea7b3146101f4575b600080fd5b610160600480360381019061015b9190611de4565b610471565b60405161016d9190612097565b60405180910390f35b610190600480360381019061018b9190611d8a565b6104a4565b60405161019d91906121e6565b60405180910390f35b6101ae610544565b6040516101bb9190612201565b60405180910390f35b6101de60048036038101906101d99190611de4565b610581565b6040516101eb9190612097565b60405180910390f35b61020e60048036038101906102099190611d1d565b6105cf565b005b61022a60048036038101906102259190611de4565b61064b565b005b61023461074d565b60405161024191906122e3565b60405180910390f35b610264600480360381019061025f9190611c02565b61075a565b005b610280600480360381019061027b9190611c02565b61077f565b005b61029c60048036038101906102979190611de4565b6107f3565b6040516102ae969594939291906122fe565b60405180910390f35b6102d160048036038101906102cc9190611de4565b61096e565b6040516102de9190612097565b60405180910390f35b61030160048036038101906102fc9190611b95565b6109ab565b60405161030e91906122e3565b60405180910390f35b61031f6109f4565b60405161032c9190612201565b60405180910390f35b61034f600480360381019061034a9190611cdd565b610a31565b005b61036b60048036038101906103669190611d1d565b610add565b005b61038760048036038101906103829190611de4565b610c14565b6040516103949190612097565b60405180910390f35b6103b760048036038101906103b29190611b95565b610c47565b6040516103c491906121c4565b60405180910390f35b6103e760048036038101906103e29190611c55565b610ec6565b005b6103f1610f32565b6040516103fe9190612097565b60405180910390f35b610421600480360381019061041c9190611e3e565b610f56565b005b61043d60048036038101906104389190611bc2565b6110e5565b60405161044a91906121e6565b60405180910390f35b61045b611179565b60405161046891906122e3565b60405180910390f35b60046020528060005260406000206000915054906101000a900473ffffffffffffffffffffffffffffffffffffffff1681565b60006380ac58cd60e01b7bffffffffffffffffffffffffffffffffffffffffffffffffffffffff1916827bffffffffffffffffffffffffffffffffffffffffffffffffffffffff1916148061053d57506301ffc9a760e01b7bffffffffffffffffffffffffffffffffffffffffffffffffffffffff1916827bffffffffffffffffffffffffffffffffffffffffffffffffffffffff1916145b9050919050565b60606040518060400160405280600881526020017f5075727266656374000000000000000000000000000000000000000000000000815250905090565b6000600180549050821061059457600080fd5b6004600083815260200190815260200160002060009054906101000a900473ffffffffffffffffffffffffffffffffffffffff169050919050565b6105d9338261117f565b6105e257600080fd5b6105ec82826111eb565b808273ffffffffffffffffffffffffffffffffffffffff163373ffffffffffffffffffffffffffffffffffffffff167f8c5be1e5ebec7d5bd14f71427d1e84f3dd0314c0f7b2291e5b200ac8c7c3b92560405160405180910390a45050565b3373ffffffffffffffffffffffffffffffffffffffff1660008054906101000a900473ffffffffffffffffffffffffffffffffffffffff1673ffffffffffffffffffffffffffffffffffffffff16146106d9576040517f08c379a00000000000000000000000000000000000000000000000000000000081526004016106d090612283565b60405180910390fd5b600a61ffff1660065410610722576040517f08c379a000000000000000000000000000000000000000000000000000000000815260040161071990612223565b60405180910390fd5b600660008154809291906107359061260c565b919050555061074981600080600033611241565b5050565b6000600180549050905090565b610766338484846113cd565b61076f57600080fd5b61077a838383611509565b505050565b3073ffffffffffffffffffffffffffffffffffffffff1663b88d4fde8484846040518463ffffffff1660e01b81526004016107bc93929190612127565b600060405180830381600087803b1580156107d657600080fd5b505af11580156107ea573d6000803e3d6000fd5b50505050505050565b600080600080600080600187815481106108105761080f61273f565b5b906000526020600020906002020160000154955085600188815481106108395761083861273f565b5b906000526020600020906002020160010160009054906101000a900467ffffffffffffffff1667ffffffffffffffff16955085600189815481106108805761087f61273f565b5b906000526020600020906002020160010160089054906101000a900463ffffffff1663ffffffff1695508560018a815481106108bf576108be61273f565b5b9060005260206000209060020201600101600c9054906101000a900463ffffffff1663ffffffff1695508560018b815481106108fe576108fd61273f565b5b906000526020600020906002020160010160109054906101000a900461ffff1661ffff16955085600360008d815260200190815260200160002060009054906101000a900473ffffffffffffffffffffffffffffffffffffffff1695509550955095509550955091939550919395565b60006003600083815260200190815260200160002060009054906101000a900473ffffffffffffffffffffffffffffffffffffffff169050919050565b6000600260008373ffffffffffffffffffffffffffffffffffffffff1673ffffffffffffffffffffffffffffffffffffffff168152602001908152602001600020549050919050565b60606040518060400160405280600481526020017f5055525200000000000000000000000000000000000000000000000000000000815250905090565b3373ffffffffffffffffffffffffffffffffffffffff168273ffffffffffffffffffffffffffffffffffffffff161415610a6a57600080fd5b610a7482826116d0565b8173ffffffffffffffffffffffffffffffffffffffff163373ffffffffffffffffffffffffffffffffffffffff167f17307eab39ab6107e8899845ad3d59bd9653f200f220920489ca2b5937696c3183604051610ad191906121e6565b60405180910390a35050565b600073ffffffffffffffffffffffffffffffffffffffff168273ffffffffffffffffffffffffffffffffffffffff161415610b4d576040517f08c379a0000000000000000000000000000000000000000000000000000000008152600401610b44906122c3565b60405180910390fd5b3073ffffffffffffffffffffffffffffffffffffffff168273ffffffffffffffffffffffffffffffffffffffff161415610bbc576040517f08c379a0000000000000000000000000000000000000000000000000000000008152600401610bb3906122c3565b60405180910390fd5b610bc6338261117f565b610c05576040517f08c379a0000000000000000000000000000000000000000000000000000000008152600401610bfc90612263565b60405180910390fd5b610c10338383611509565b5050565b60036020528060005260406000206000915054906101000a900473ffffffffffffffffffffffffffffffffffffffff1681565b606060003073ffffffffffffffffffffffffffffffffffffffff166370a08231846040518263ffffffff1660e01b8152600401610c849190612097565b60206040518083038186803b158015610c9c57600080fd5b505afa158015610cb0573d6000803e3d6000fd5b505050506040513d601f19601f82011682018060405250810190610cd49190611e11565b90506000811415610d3157600067ffffffffffffffff811115610cfa57610cf961276e565b5b604051908082528060200260200182016040528015610d285781602001602082028036833780820191505090505b50915050610ec1565b60008167ffffffffffffffff811115610d4d57610d4c61276e565b5b604051908082528060200260200182016040528015610d7b5781602001602082028036833780820191505090505b50905060003073ffffffffffffffffffffffffffffffffffffffff166318160ddd6040518163ffffffff1660e01b815260040160206040518083038186803b158015610dc657600080fd5b505afa158015610dda573d6000803e3d6000fd5b505050506040513d601f19601f82011682018060405250810190610dfe9190611e11565b9050600080600190505b828111610eb8578673ffffffffffffffffffffffffffffffffffffffff166003600083815260200190815260200160002060009054906101000a900473ffffffffffffffffffffffffffffffffffffffff1673ffffffffffffffffffffffffffffffffffffffff161415610ea55780848381518110610e8a57610e8961273f565b5b6020026020010181815250508180610ea19061260c565b9250505b8080610eb09061260c565b915050610e08565b83955050505050505b919050565b610ed2338686866113cd565b610edb57600080fd5b610f2b85858585858080601f016020809104026020016040519081016040528093929190818152602001838380828437600081840152601f19601f82011690508083019250505050505050611768565b5050505050565b60008054906101000a900473ffffffffffffffffffffffffffffffffffffffff1681565b610f60338361117f565b8015610f725750610f71338261117f565b5b610fb1576040517f08c379a0000000000000000000000000000000000000000000000000000000008152600401610fa890612243565b60405180910390fd5b81811415610ff4576040517f08c379a0000000000000000000000000000000000000000000000000000000008152600401610feb906122a3565b60405180910390fd5b6000611000838361178e565b9050600080600184815481106110195761101861273f565b5b906000526020600020906002020160010160109054906101000a900461ffff1661ffff1690506000600186815481106110555761105461273f565b5b906000526020600020906002020160010160109054906101000a900461ffff1661ffff1690508181141561109757818061108e9061260c565b925092506110cf565b818110156110b35780806110aa9061260c565b915092506110ce565b600282826110c191906123d0565b6110cb9190612426565b92505b5b6110dc8486888633611241565b50505050505050565b6000600560008473ffffffffffffffffffffffffffffffffffffffff1673ffffffffffffffffffffffffffffffffffffffff16815260200190815260200160002060008373ffffffffffffffffffffffffffffffffffffffff1673ffffffffffffffffffffffffffffffffffffffff16815260200190815260200160002060009054906101000a900460ff16905092915050565b60065481565b60008273ffffffffffffffffffffffffffffffffffffffff166003600084815260200190815260200160002060009054906101000a900473ffffffffffffffffffffffffffffffffffffffff1673ffffffffffffffffffffffffffffffffffffffff1614905092915050565b816004600083815260200190815260200160002060006101000a81548173ffffffffffffffffffffffffffffffffffffffff021916908373ffffffffffffffffffffffffffffffffffffffff1602179055505050565b6000806040518060a001604052808881526020014267ffffffffffffffff1681526020018763ffffffff1681526020018663ffffffff1681526020018561ffff16815250905060018190806001815401808255809150506001900390600052602060002090600202016000909190919091506000820151816000015560208201518160010160006101000a81548167ffffffffffffffff021916908367ffffffffffffffff16021790555060408201518160010160086101000a81548163ffffffff021916908363ffffffff160217905550606082015181600101600c6101000a81548163ffffffff021916908363ffffffff16021790555060808201518160010160106101000a81548161ffff021916908361ffff160217905550505060006001808054905061137291906124ec565b90507f0a5311bd2a6608f08a180df2ee7c5946819a649b204b554bb8e39825b2c50ad5848289898c6040516113ab959493929190612171565b60405180910390a16113bf60008583611509565b809250505095945050505050565b60006113d9848361117f565b6113e257600080fd5b600073ffffffffffffffffffffffffffffffffffffffff168373ffffffffffffffffffffffffffffffffffffffff16141561141c57600080fd5b600180549050821061142d57600080fd5b8373ffffffffffffffffffffffffffffffffffffffff168573ffffffffffffffffffffffffffffffffffffffff16148061146d575061146c85836118ea565b5b806114ff57503073ffffffffffffffffffffffffffffffffffffffff1663e985e9c585876040518363ffffffff1660e01b81526004016114ae9291906120b2565b60206040518083038186803b1580156114c657600080fd5b505afa1580156114da573d6000803e3d6000fd5b505050506040513d601f19601f820116820180604052508101906114fe9190611d5d565b5b9050949350505050565b600260008373ffffffffffffffffffffffffffffffffffffffff1673ffffffffffffffffffffffffffffffffffffffff16815260200190815260200160002060008154809291906115599061260c565b9190505550816003600083815260200190815260200160002060006101000a81548173ffffffffffffffffffffffffffffffffffffffff021916908373ffffffffffffffffffffffffffffffffffffffff160217905550600073ffffffffffffffffffffffffffffffffffffffff168373ffffffffffffffffffffffffffffffffffffffff161461167057600260008473ffffffffffffffffffffffffffffffffffffffff1673ffffffffffffffffffffffffffffffffffffffff1681526020019081526020016000206000815480929190611634906125e2565b91905055506004600082815260200190815260200160002060006101000a81549073ffffffffffffffffffffffffffffffffffffffff02191690555b808273ffffffffffffffffffffffffffffffffffffffff168473ffffffffffffffffffffffffffffffffffffffff167fddf252ad1be2c89b69c2b068fc378daa952ba7f163c4a11628f55a4df523b3ef60405160405180910390a4505050565b80600560003373ffffffffffffffffffffffffffffffffffffffff1673ffffffffffffffffffffffffffffffffffffffff16815260200190815260200160002060008473ffffffffffffffffffffffffffffffffffffffff1673ffffffffffffffffffffffffffffffffffffffff16815260200190815260200160002060006101000a81548160ff0219169083151502179055505050565b611773848484611509565b61177f84848484611956565b61178857600080fd5b50505050565b6000611798611a89565b60006101ff426117a8919061267f565b905060006008905060005b6101008160ff16116118715760008160ff16841661ffff1614611802576064866117dd91906126b0565b61ffff168483600981106117f4576117f361273f565b5b602002018181525050611830565b60648761180f91906126b0565b61ffff168483600981106118265761182561273f565b5b6020020181815250505b60648661183d9190612426565b955060648761184c9190612426565b965060018261185b91906124ec565b915060028161186a91906124b1565b90506117b3565b50600080600090505b60098160ff1610156118dc57848160ff166009811061189c5761189b61273f565b5b6020020151826118ac91906123d0565b915060088160ff16146118c9576064826118c69190612457565b91505b80806118d490612655565b91505061187a565b508094505050505092915050565b60008273ffffffffffffffffffffffffffffffffffffffff166004600084815260200190815260200160002060009054906101000a900473ffffffffffffffffffffffffffffffffffffffff1673ffffffffffffffffffffffffffffffffffffffff1614905092915050565b600061196184611a70565b61196e5760019050611a68565b60008473ffffffffffffffffffffffffffffffffffffffff1663150b7a02338887876040518563ffffffff1660e01b81526004016119af94939291906120db565b602060405180830381600087803b1580156119c957600080fd5b505af11580156119dd573d6000803e3d6000fd5b505050506040513d601f19601f82011682018060405250810190611a019190611db7565b90507f150b7a023d4804d13e8c85fb27262cb750cf6ba9f9dd3bb30d90f482ceeb4b1f7bffffffffffffffffffffffffffffffffffffffffffffffffffffffff1916817bffffffffffffffffffffffffffffffffffffffffffffffffffffffff1916149150505b949350505050565b600080823b905060008163ffffffff1611915050919050565b604051806101200160405280600990602082028036833780820191505090505090565b600081359050611abb8161297e565b92915050565b600081359050611ad081612995565b92915050565b600081519050611ae581612995565b92915050565b600081359050611afa816129ac565b92915050565b600081519050611b0f816129ac565b92915050565b60008083601f840112611b2b57611b2a6127a2565b5b8235905067ffffffffffffffff811115611b4857611b4761279d565b5b602083019150836001820283011115611b6457611b636127a7565b5b9250929050565b600081359050611b7a816129c3565b92915050565b600081519050611b8f816129c3565b92915050565b600060208284031215611bab57611baa6127b1565b5b6000611bb984828501611aac565b91505092915050565b60008060408385031215611bd957611bd86127b1565b5b6000611be785828601611aac565b9250506020611bf885828601611aac565b9150509250929050565b600080600060608486031215611c1b57611c1a6127b1565b5b6000611c2986828701611aac565b9350506020611c3a86828701611aac565b9250506040611c4b86828701611b6b565b9150509250925092565b600080600080600060808688031215611c7157611c706127b1565b5b6000611c7f88828901611aac565b9550506020611c9088828901611aac565b9450506040611ca188828901611b6b565b935050606086013567ffffffffffffffff811115611cc257611cc16127ac565b5b611cce88828901611b15565b92509250509295509295909350565b60008060408385031215611cf457611cf36127b1565b5b6000611d0285828601611aac565b9250506020611d1385828601611ac1565b9150509250929050565b60008060408385031215611d3457611d336127b1565b5b6000611d4285828601611aac565b9250506020611d5385828601611b6b565b9150509250929050565b600060208284031215611d7357611d726127b1565b5b6000611d8184828501611ad6565b91505092915050565b600060208284031215611da057611d9f6127b1565b5b6000611dae84828501611aeb565b91505092915050565b600060208284031215611dcd57611dcc6127b1565b5b6000611ddb84828501611b00565b91505092915050565b600060208284031215611dfa57611df96127b1565b5b6000611e0884828501611b6b565b91505092915050565b600060208284031215611e2757611e266127b1565b5b6000611e3584828501611b80565b91505092915050565b60008060408385031215611e5557611e546127b1565b5b6000611e6385828601611b6b565b9250506020611e7485828601611b6b565b9150509250929050565b6000611e8a8383612079565b60208301905092915050565b611e9f81612520565b82525050565b6000611eb08261236f565b611eba818561239d565b9350611ec58361235f565b8060005b83811015611ef6578151611edd8882611e7e565b9750611ee883612390565b925050600181019050611ec9565b5085935050505092915050565b611f0c81612532565b82525050565b6000611f1d8261237a565b611f2781856123ae565b9350611f378185602086016125af565b611f40816127b6565b840191505092915050565b6000611f5682612385565b611f6081856123bf565b9350611f708185602086016125af565b611f79816127b6565b840191505092915050565b6000611f916021836123bf565b9150611f9c826127c7565b604082019050919050565b6000611fb46028836123bf565b9150611fbf82612816565b604082019050919050565b6000611fd76026836123bf565b9150611fe282612865565b604082019050919050565b6000611ffa6000836123ae565b9150612005826128b4565b600082019050919050565b600061201d6025836123bf565b9150612028826128b7565b604082019050919050565b6000612040601a836123bf565b915061204b82612906565b602082019050919050565b60006120636022836123bf565b915061206e8261292f565b604082019050919050565b61208281612598565b82525050565b61209181612598565b82525050565b60006020820190506120ac6000830184611e96565b92915050565b60006040820190506120c76000830185611e96565b6120d46020830184611e96565b9392505050565b60006080820190506120f06000830187611e96565b6120fd6020830186611e96565b61210a6040830185612088565b818103606083015261211c8184611f12565b905095945050505050565b600060808201905061213c6000830186611e96565b6121496020830185611e96565b6121566040830184612088565b818103606083015261216781611fed565b9050949350505050565b600060a0820190506121866000830188611e96565b6121936020830187612088565b6121a06040830186612088565b6121ad6060830185612088565b6121ba6080830184612088565b9695505050505050565b600060208201905081810360008301526121de8184611ea5565b905092915050565b60006020820190506121fb6000830184611f03565b92915050565b6000602082019050818103600083015261221b8184611f4b565b905092915050565b6000602082019050818103600083015261223c81611f84565b9050919050565b6000602082019050818103600083015261225c81611fa7565b9050919050565b6000602082019050818103600083015261227c81611fca565b9050919050565b6000602082019050818103600083015261229c81612010565b9050919050565b600060208201905081810360008301526122bc81612033565b9050919050565b600060208201905081810360008301526122dc81612056565b9050919050565b60006020820190506122f86000830184612088565b92915050565b600060c0820190506123136000830189612088565b6123206020830188612088565b61232d6040830187612088565b61233a6060830186612088565b6123476080830185612088565b61235460a0830184611e96565b979650505050505050565b6000819050602082019050919050565b600081519050919050565b600081519050919050565b600081519050919050565b6000602082019050919050565b600082825260208201905092915050565b600082825260208201905092915050565b600082825260208201905092915050565b60006123db82612598565b91506123e683612598565b9250827fffffffffffffffffffffffffffffffffffffffffffffffffffffffffffffffff0382111561241b5761241a6126e1565b5b828201905092915050565b600061243182612598565b915061243c83612598565b92508261244c5761244b612710565b5b828204905092915050565b600061246282612598565b915061246d83612598565b9250817fffffffffffffffffffffffffffffffffffffffffffffffffffffffffffffffff04831182151516156124a6576124a56126e1565b5b828202905092915050565b60006124bc826125a2565b91506124c7836125a2565b92508160ff04831182151516156124e1576124e06126e1565b5b828202905092915050565b60006124f782612598565b915061250283612598565b925082821015612515576125146126e1565b5b828203905092915050565b600061252b82612578565b9050919050565b60008115159050919050565b60007fffffffff0000000000000000000000000000000000000000000000000000000082169050919050565b600061ffff82169050919050565b600073ffffffffffffffffffffffffffffffffffffffff82169050919050565b6000819050919050565b600060ff82169050919050565b60005b838110156125cd5780820151818401526020810190506125b2565b838111156125dc576000848401525b50505050565b60006125ed82612598565b91506000821415612601576126006126e1565b5b600182039050919050565b600061261782612598565b91507fffffffffffffffffffffffffffffffffffffffffffffffffffffffffffffffff82141561264a576126496126e1565b5b600182019050919050565b6000612660826125a2565b915060ff821415612674576126736126e1565b5b600182019050919050565b600061268a8261256a565b91506126958361256a565b9250826126a5576126a4612710565b5b828206905092915050565b60006126bb82612598565b91506126c683612598565b9250826126d6576126d5612710565b5b828206905092915050565b7f4e487b7100000000000000000000000000000000000000000000000000000000600052601160045260246000fd5b7f4e487b7100000000000000000000000000000000000000000000000000000000600052601260045260246000fd5b7f4e487b7100000000000000000000000000000000000000000000000000000000600052603260045260246000fd5b7f4e487b7100000000000000000000000000000000000000000000000000000000600052604160045260246000fd5b600080fd5b600080fd5b600080fd5b600080fd5b600080fd5b6000601f19601f8301169050919050565b7f67656e30436f756e746572203c2047656e305f4372656174696f6e5f4c696d6960008201527f7400000000000000000000000000000000000000000000000000000000000000602082015250565b7f596f75206d757374206f776e20626f7468206361747320696e206f726465722060008201527f746f206272656564000000000000000000000000000000000000000000000000602082015250565b7f596f75204d757374204f776e2054686520546f6b656e20596f7520417265205360008201527f656e64696e670000000000000000000000000000000000000000000000000000602082015250565b50565b7f596f7520617265206e6f7420746865206f776e6572206f662074686520636f6e60008201527f7472616374000000000000000000000000000000000000000000000000000000602082015250565b7f546865206361742063616e277420627265656420697473656c66000000000000600082015250565b7f43616e6e6f742053656e6420546f6b656e7320546f205468697320416464726560008201527f7373000000000000000000000000000000000000000000000000000000000000602082015250565b61298781612520565b811461299257600080fd5b50565b61299e81612532565b81146129a957600080fd5b50565b6129b58161253e565b81146129c057600080fd5b50565b6129cc81612598565b81146129d757600080fd5b5056fea2646970667358221220b6177f84becc6fc4b64c63cb128ef67933616ae2fcf79ec6f4b3437d9039003364736f6c63430008060033",
  "immutableReferences": {},
  "source": "pragma solidity >=0.4.22 <0.9.0;\n\nimport \"./IERC721.sol\";\nimport \"./IERC721Receiver.sol\";\nimport \"../node_modules/@openzeppelin/contracts/access/Ownable.sol\";\ncontract Catcontract is IERC721 {\n\nstring private  constant Name = \"Purrfect\";\nstring private constant Symbol = \"PURR\";\nuint16 private constant Gen0_Creation_Limit = 10;\nbytes4 internal constant MAGIC_ERC721_RECEIVED= bytes4(keccak256(\"onERC721Received(address,address,uint256,bytes)\"));\nbytes4 private constant _INTERFACE_ID_ERC721 = 0x80ac58cd;\nbytes4 private constant _INTERFACE_ID_ERC165 = 0x01ffc9a7;\naddress public contractOwner;\n\nevent Birth(address owner, uint256 catId, uint256 mumId, uint256 dadId, uint256 genes);\n\n\nmodifier onlyOwner{\n    require(contractOwner == msg.sender, \"You are not the owner of the contract\");\n    _;\n}\n\nstruct Cat {\n    uint256 genes;\n    uint64 birthTime;\n    uint32 mumId;\n    uint32 dadId;\n    uint16 generation;\n}\n\nconstructor(){\n    contractOwner = msg.sender;\n    uint256 gen = type(uint256).max;\n    _createCat(0, 0, 0, gen, address(0));//_createCat(0, 0, 0, gen-1, address(0))\n}\n\nCat[] cats;\n//        owner => amount\nmapping(address => uint256) ownerTokenBalance;\n\n//      tokenId => owner of cat\nmapping(uint256 => address) public catIndexToOwner;\n\n// tokenId => another approved address \nmapping(uint256 => address) public catIndexToApproved;\n\nmapping(address => mapping(address => bool)) private operatorApprovals;\n\nuint256 public gen0Counter;\n\n\n\nfunction breed(uint256 _dadId, uint256 _mumId) public {\n    //check ownership\n    //check you got the dna\n    //figure out the generation\n    //create a new cat with new properties, give it to msg.sender\n    require(owns(msg.sender, _dadId) && owns(msg.sender, _mumId), \"You must own both cats in order to breed\");\n    require(_mumId != _dadId, \"The cat can't breed itself\");\n    uint256 newCatDna = mixDna(_dadId, _mumId);\n    \n    uint256 newGen; \n    uint256 mumGen = cats[_mumId].generation;\n    uint256 dadGen = cats[_dadId].generation;\n\n    if(dadGen == mumGen){\n        newGen = mumGen++;\n    }else if(dadGen < mumGen){\n        newGen = dadGen++;\n    }else{\n        newGen = (dadGen + mumGen) / 2;\n    }\n    \n    _createCat(newCatDna, _mumId, _dadId, newGen, msg.sender);\n}\n\nfunction mixDna(uint256 _dadDNA, uint256 _mumDNA) internal view returns(uint256){\n    uint256[9] memory geneArray;\n    //sudo random number\n    uint16 random = uint16(block.timestamp)%511; //binary between 000000000-111111111\n    \n    uint256 index = 8;\n    for(uint8 i = 0; i <= 256; i=i*2){ //1, 2, 4, 8, 16, 32, 64, 128, 256 = 9 pairs\n        if(random & i != 0){\n            geneArray[index] = uint16( _mumDNA % 100);\n        }else{\n            geneArray[index] = uint16( _dadDNA % 100);\n        }\n            _mumDNA = _mumDNA / 100;//removing the last two digits by moving the decimal point\n            _dadDNA = _dadDNA / 100;\n            index = index -1; \n    }\n    uint256 newGene;\n    for(uint8 i = 0; i < 9; i++){\n        newGene = newGene + geneArray[i];\n        if(i != 8){\n            newGene = newGene *100;\n        }\n    }\n    return newGene;\n\n}\n\nfunction createCatGen0(uint256 _genes)public onlyOwner{\n    require(gen0Counter < Gen0_Creation_Limit, \"gen0Counter < Gen0_Creation_Limit\");\n    gen0Counter++;\n\n    _createCat(_genes, 0, 0, 0, msg.sender);\n}\n\nfunction _createCat(\n    uint256 _genes,\n    uint256 _mumId,\n    uint256 _dadId,\n    uint256 _generation,\n    address _owner\n)internal returns(uint256){\n    Cat memory _cat = Cat({\n        genes: uint256(_genes),\n        birthTime: uint64(block.timestamp),\n        mumId: uint32(_mumId),\n        dadId: uint32(_dadId),\n        generation: uint16(_generation)\n    });\n\n    //uint256 newCatId = cats.push(_cat)-1;\n    cats.push(_cat);\n    uint256 newCatId = cats.length - 1;\n     \n\n    emit Birth(_owner, newCatId, _mumId, _dadId, _genes);\n\n    _transfer(address(0), _owner, newCatId);\n\n    return newCatId;\n}\n\n    //returning the values in uint256 due to front end preferences (easier to read)\n    function getCat(uint256 _tokenId) public view returns(\n        uint256 genes, \n        uint256 birthTime, \n        uint256 mumId, \n        uint256 dadId, \n        uint256 generation, \n        address owner \n        ){\n        return(\n            genes = cats[_tokenId].genes,\n            birthTime = cats[_tokenId].birthTime,\n            mumId = cats[_tokenId].mumId,\n            dadId = cats[_tokenId].dadId,\n            generation = cats[_tokenId].generation,\n            owner = catIndexToOwner[_tokenId]\n        );\n    }\n\n    function supportsInterface(bytes4 _interfaceId) external pure returns (bool){\n        return(_interfaceId ==_INTERFACE_ID_ERC721 || _interfaceId == _INTERFACE_ID_ERC165);\n    }\n\n    function balanceOf(address owner) external view override returns (uint256 balance){\n        balance = ownerTokenBalance[owner];\n        return balance;\n    }\n\n    function totalSupply() external view override returns (uint256 total){\n        total = cats.length;\n        return total; \n    }\n\n    function ownerOf(uint256 tokenId) external view override returns (address owner){\n        return catIndexToOwner[tokenId];\n    }\n\n\n    function transfer(address to, uint256 tokenId) external override{\n        require(to != address(0), \"Cannot Send Tokens To This Address\");\n        require(to != address(this), \"Cannot Send Tokens To This Address\");\n        require(owns(msg.sender, tokenId), \"You Must Own The Token You Are Sending\");\n        _transfer(msg.sender, to, tokenId);\n    }\n\n    function _transfer(address from, address _to, uint256 _tokenId) internal {\n        ownerTokenBalance[_to]++;\n        catIndexToOwner[_tokenId] = _to;\n\n        //(edge case senario) when we mint new cats we dont want to decrease the token count\n        if(from != address (0)) {\n            ownerTokenBalance[from]--;\n            //this makes sure that the approval history for that token is erased\n            delete catIndexToApproved[_tokenId];\n        }\n        emit Transfer(from, _to, _tokenId);\n    }\n\n    function owns(address claimant, uint256 _tokenId) internal view returns (bool){\n        return catIndexToOwner[_tokenId] == claimant;\n    }\n\n    function approve(address to, uint256 _tokenId) external override {\n        require(owns(msg.sender, _tokenId));\n        _approve(to, _tokenId);\n        emit Approval(msg.sender, to, _tokenId);\n    }\n\n    function _approve(address approved, uint256 tokenId) internal {\n        catIndexToApproved[tokenId] = approved;\n    }\n\n    function setApprovalForAll(address operator, bool approved) external override{ \n        require(operator != msg.sender);\n        _setApprovalForAll(operator, approved);\n        emit ApprovalForAll(msg.sender, operator, approved);\n    }\n\n    function _setApprovalForAll(address _operator, bool _approved) internal{\n        operatorApprovals[msg.sender][_operator] = _approved;\n    }\n\n    function getApproved(uint256 _tokenId) external view override returns (address){\n        require(_tokenId < cats.length);//check that the token exists\n        return catIndexToApproved[_tokenId];\n    }\n\n    function isApprovedForAll(address _owner, address _operator) external override view returns (bool){\n        //returns the mapping status for these inputs\n        return operatorApprovals[_owner][_operator];\n    } \n    function safeTransferFrom(address _from, address _to, uint256 _tokenId) external override{\n        this.safeTransferFrom(_from, _to, _tokenId, \"\");\n    }\n\n    function safeTransferFrom(address _from, address _to, uint256 _tokenId, bytes calldata data) external override{\n        require(ownerOrApprovedCheck(msg.sender, _from, _to, _tokenId));\n        _safeTransfer(_from, _to, _tokenId, data);\n    }\n\n    function _safeTransfer(address from, address to, uint256 tokenId, bytes memory data)internal {\n        _transfer(from, to, tokenId);\n        require(_checkERC721Support(from, to, tokenId, data));\n    }\n\n    function transferFrom(address _from, address _to, uint256 _tokenId) external override{\n        require(ownerOrApprovedCheck(msg.sender, _from, _to, _tokenId));\n        _transfer(_from, _to, _tokenId);\n    }\n\n    function _checkERC721Support(address from, address to, uint256 tokenId, bytes memory data) internal returns(bool){\n        if( !isContract(to) ){\n            return true; //if it is not a contract return true\n        }\n        //call onERC721Recieved in the to contract\n        bytes4 returnData = IERC721Receiver(to).onERC721Received(msg.sender, from, tokenId, data);\n        return returnData == MAGIC_ERC721_RECEIVED;\n    }\n\n    function isContract(address _to) internal view returns(bool){\n        uint32 size;\n        assembly{\n            size := extcodesize(_to)\n        }\n\n        return size > 0;\n    }\n\n    function approvedFor(address claimant, uint256 tokenId) internal view returns(bool){\n        return catIndexToApproved[tokenId] == claimant;\n    }\n\n    function name() external pure override returns (string memory tokenName){    return Name;    }\n    function symbol() external pure override returns (string memory tokenSymbol){    return Symbol;  }\n\n    //to reduce code duplication, made an internal function with the require statements and returns true/false\n    function ownerOrApprovedCheck(address spender, address _from, address _to, uint256 _tokenId) internal view returns(bool){\n        require(owns(_from, _tokenId));\n        require(_to != address(0));\n        require(_tokenId < cats.length);\n        return(spender == _from || approvedFor(spender, _tokenId) || this.isApprovedForAll(_from, spender));\n\n    }\n\n    function ownedTokens(address _owner) public view returns(uint256[] memory ownerTokens) {\n    uint256 tokenCount = this.balanceOf(_owner);\n\n    if (tokenCount == 0) {\n        return new uint256[](0);\n    } else {\n        uint256[] memory result = new uint256[](tokenCount);\n        uint256 totalCats = this.totalSupply();\n        uint256 resultIndex = 0;\n\n        uint256 catId;\n\n        for (catId = 1; catId <= totalCats; catId++) {\n            if (catIndexToOwner[catId] == _owner) {\n                result[resultIndex] = catId;\n                resultIndex++;\n            }\n        }\n\n        return result;\n    }\n    \n    }\n}",
  "sourcePath": "/Users/OllieFrancis/Documents/Ethereum/Crypto-Cats-Dapp/contracts/CatContract.sol",
  "compiler": {
    "name": "solc",
    "version": "0.8.6+commit.11564f7e.Emscripten.clang"
  },
  "schemaVersion": "3.4.2",
  "updatedAt": "2021-08-09T09:28:48.751Z",
  "networkType": "ethereum",
  "devdoc": {
    "kind": "dev",
    "methods": {
      "balanceOf(address)": {
        "details": "Returns the number of tokens in ``owner``'s account."
      },
      "getApproved(uint256)": {
        "details": "Throws if `_tokenId` is not a valid NFT.",
        "params": {
          "_tokenId": "The NFT to find the approved address for"
        },
        "returns": {
          "_0": "The approved address for this NFT, or the zero address if there is none"
        }
      },
      "isApprovedForAll(address,address)": {
        "params": {
          "_operator": "The address that acts on behalf of the owner",
          "_owner": "The address that owns the NFTs"
        },
        "returns": {
          "_0": "True if `_operator` is an approved operator for `_owner`, false otherwise"
        }
      },
      "ownerOf(uint256)": {
        "details": "Returns the owner of the `tokenId` token. Requirements: - `tokenId` must exist."
      },
      "safeTransferFrom(address,address,uint256)": {
        "details": "This works identically to the other function with an extra data parameter,  except this function just sets data to \"\".",
        "params": {
          "_from": "The current owner of the NFT",
          "_to": "The new owner",
          "_tokenId": "The NFT to transfer"
        }
      },
      "safeTransferFrom(address,address,uint256,bytes)": {
        "details": "Throws unless `msg.sender` is the current owner, an authorized  operator, or the approved address for this NFT. Throws if `_from` is  not the current owner. Throws if `_to` is the zero address. Throws if  `_tokenId` is not a valid NFT. When transfer is complete, this function  checks if `_to` is a smart contract (code size > 0). If so, it calls  `onERC721Received` on `_to` and throws if the return value is not  `bytes4(keccak256(\"onERC721Received(address,address,uint256,bytes)\"))`.",
        "params": {
          "_from": "The current owner of the NFT",
          "_to": "The new owner",
          "_tokenId": "The NFT to transfer",
          "data": "Additional data with no specified format, sent in call to `_to`"
        }
      },
      "transferFrom(address,address,uint256)": {
        "details": "Throws unless `msg.sender` is the current owner, an authorized  operator, or the approved address for this NFT. Throws if `_from` is  not the current owner. Throws if `_to` is the zero address. Throws if  `_tokenId` is not a valid NFT.",
        "params": {
          "_from": "The current owner of the NFT",
          "_to": "The new owner",
          "_tokenId": "The NFT to transfer"
        }
      }
    },
    "version": 1
  },
  "userdoc": {
    "kind": "user",
    "methods": {
      "getApproved(uint256)": {
        "notice": "Get the approved address for a single NFT"
      },
      "isApprovedForAll(address,address)": {
        "notice": "Query if an address is an authorized operator for another address"
      },
      "safeTransferFrom(address,address,uint256)": {
        "notice": "Transfers the ownership of an NFT from one address to another address"
      },
      "safeTransferFrom(address,address,uint256,bytes)": {
        "notice": "Transfers the ownership of an NFT from one address to another address"
      },
      "transferFrom(address,address,uint256)": {
        "notice": "Transfer ownership of an NFT -- THE CALLER IS RESPONSIBLE  TO CONFIRM THAT `_to` IS CAPABLE OF RECEIVING NFTS OR ELSE  THEY MAY BE PERMANENTLY LOST"
      }
    },
    "version": 1
  }
}