{
  "contractName": "Marketplace",
  "abi": [
    {
      "inputs": [
        {
          "internalType": "address",
          "name": "_catContractAddress",
          "type": "address"
        }
      ],
      "stateMutability": "nonpayable",
      "type": "constructor"
    },
    {
      "anonymous": false,
      "inputs": [
        {
          "indexed": false,
          "internalType": "string",
          "name": "TxType",
          "type": "string"
        },
        {
          "indexed": false,
          "internalType": "address",
          "name": "owner",
          "type": "address"
        },
        {
          "indexed": false,
          "internalType": "uint256",
          "name": "tokenId",
          "type": "uint256"
        }
      ],
      "name": "MarketTransaction",
      "type": "event"
    },
    {
      "inputs": [
        {
          "internalType": "address",
          "name": "_catContractAddress",
          "type": "address"
        }
      ],
      "name": "setKittyContract",
      "outputs": [],
      "stateMutability": "nonpayable",
      "type": "function"
    },
    {
      "inputs": [
        {
          "internalType": "uint256",
          "name": "_tokenId",
          "type": "uint256"
        }
      ],
      "name": "getOffer",
      "outputs": [
        {
          "internalType": "address",
          "name": "seller",
          "type": "address"
        },
        {
          "internalType": "uint256",
          "name": "price",
          "type": "uint256"
        },
        {
          "internalType": "uint256",
          "name": "index",
          "type": "uint256"
        },
        {
          "internalType": "uint256",
          "name": "tokenId",
          "type": "uint256"
        },
        {
          "internalType": "bool",
          "name": "active",
          "type": "bool"
        }
      ],
      "stateMutability": "view",
      "type": "function",
      "constant": true
    },
    {
      "inputs": [],
      "name": "getAllTokenOnSale",
      "outputs": [
        {
          "internalType": "uint256[]",
          "name": "listOfOffers",
          "type": "uint256[]"
        }
      ],
      "stateMutability": "view",
      "type": "function",
      "constant": true
    },
    {
      "inputs": [
        {
          "internalType": "uint256",
          "name": "_price",
          "type": "uint256"
        },
        {
          "internalType": "uint256",
          "name": "_tokenId",
          "type": "uint256"
        }
      ],
      "name": "createOffer",
      "outputs": [],
      "stateMutability": "nonpayable",
      "type": "function"
    },
    {
      "inputs": [
        {
          "internalType": "uint256",
          "name": "_tokenId",
          "type": "uint256"
        }
      ],
      "name": "removeOffer",
      "outputs": [],
      "stateMutability": "nonpayable",
      "type": "function"
    },
    {
      "inputs": [
        {
          "internalType": "uint256",
          "name": "_tokenId",
          "type": "uint256"
        }
      ],
      "name": "buyKitty",
      "outputs": [],
      "stateMutability": "payable",
      "type": "function",
      "payable": true
    }
  ],
  "bytecode": "0x60806040523480156200001157600080fd5b50604051620016bf380380620016bf833981810160405281019062000037919062000095565b806000806101000a81548173ffffffffffffffffffffffffffffffffffffffff021916908373ffffffffffffffffffffffffffffffffffffffff160217905550506200011a565b6000815190506200008f8162000100565b92915050565b600060208284031215620000ae57620000ad620000fb565b5b6000620000be848285016200007e565b91505092915050565b6000620000d482620000db565b9050919050565b600073ffffffffffffffffffffffffffffffffffffffff82169050919050565b600080fd5b6200010b81620000c7565b81146200011757600080fd5b50565b611595806200012a6000396000f3fe6080604052600436106100555760003560e01c80631afed8751461005a5780634579268a1461008357806349b3709f146100c457806362b7f94e146100ef57806395a0f9c714610118578063ae5310f614610141575b600080fd5b34801561006657600080fd5b50610081600480360381019061007c9190610d60565b61015d565b005b34801561008f57600080fd5b506100aa60048036038101906100a59190610d33565b61049a565b6040516100bb959493929190610fd9565b60405180910390f35b3480156100d057600080fd5b506100d9610512565b6040516100e6919061102c565b60405180910390f35b3480156100fb57600080fd5b5061011660048036038101906101119190610cac565b610676565b005b34801561012457600080fd5b5061013f600480360381019061013a9190610d33565b6106b9565b005b61015b60048036038101906101569190610d33565b610856565b005b6101673382610b30565b61017057600080fd5b600015156002600083815260200190815260200160002060040160009054906101000a900460ff161515146101da576040517f08c379a00000000000000000000000000000000000000000000000000000000081526004016101d19061108e565b60405180910390fd5b60008054906101000a900473ffffffffffffffffffffffffffffffffffffffff1673ffffffffffffffffffffffffffffffffffffffff1663e985e9c533306040518363ffffffff1660e01b8152600401610235929190610fb0565b60206040518083038186803b15801561024d57600080fd5b505afa158015610261573d6000803e3d6000fd5b505050506040513d601f19601f820116820180604052508101906102859190610d06565b6102c4576040517f08c379a00000000000000000000000000000000000000000000000000000000081526004016102bb906110ae565b60405180910390fd5b60006040518060a001604052803373ffffffffffffffffffffffffffffffffffffffff1681526020018481526020016001805490508152602001838152602001600115158152509050806002600084815260200190815260200160002060008201518160000160006101000a81548173ffffffffffffffffffffffffffffffffffffffff021916908373ffffffffffffffffffffffffffffffffffffffff16021790555060208201518160010155604082015181600201556060820151816003015560808201518160040160006101000a81548160ff021916908315150217905550905050600181908060018154018082558091505060019003906000526020600020906005020160009091909190915060008201518160000160006101000a81548173ffffffffffffffffffffffffffffffffffffffff021916908373ffffffffffffffffffffffffffffffffffffffff16021790555060208201518160010155604082015181600201556060820151816003015560808201518160040160006101000a81548160ff02191690831515021790555050507fd99e4fad9ad6313b1feb588fa8e605e3a9873172f2024330c35dd2b4041a4386338360405161048d9291906110ce565b60405180910390a1505050565b6000806000806000806002600088815260200190815260200160002090508060000160009054906101000a900473ffffffffffffffffffffffffffffffffffffffff168160010154826002015483600301548460040160009054906101000a900460ff16955095509550955095505091939590929450565b60606000600180549050141561057357600067ffffffffffffffff81111561053d5761053c61132c565b5b60405190808252806020026020018201604052801561056b5781602001602082028036833780820191505090505b509050610673565b600060018054905067ffffffffffffffff8111156105945761059361132c565b5b6040519080825280602002602001820160405280156105c25781602001602082028036833780820191505090505b50905060005b60018054905081101561066d5760011515600182815481106105ed576105ec6112fd565b5b906000526020600020906005020160040160009054906101000a900460ff161515141561065a5760018181548110610628576106276112fd565b5b90600052602060002090600502016003015482828151811061064d5761064c6112fd565b5b6020026020010181815250505b808061066590611285565b9150506105c8565b81925050505b90565b806000806101000a81548173ffffffffffffffffffffffffffffffffffffffff021916908373ffffffffffffffffffffffffffffffffffffffff16021790555050565b3373ffffffffffffffffffffffffffffffffffffffff166002600083815260200190815260200160002060000160009054906101000a900473ffffffffffffffffffffffffffffffffffffffff1673ffffffffffffffffffffffffffffffffffffffff161461075d576040517f08c379a00000000000000000000000000000000000000000000000000000000081526004016107549061106e565b60405180910390fd5b60026000828152602001908152602001600020600080820160006101000a81549073ffffffffffffffffffffffffffffffffffffffff02191690556001820160009055600282016000905560038201600090556004820160006101000a81549060ff02191690555050600060016002600084815260200190815260200160002060020154815481106107f2576107f16112fd565b5b906000526020600020906005020160040160006101000a81548160ff0219169083151502179055507fd99e4fad9ad6313b1feb588fa8e605e3a9873172f2024330c35dd2b4041a4386338260405161084b929190611166565b60405180910390a150565b6000600260008381526020019081526020016000206040518060a00160405290816000820160009054906101000a900473ffffffffffffffffffffffffffffffffffffffff1673ffffffffffffffffffffffffffffffffffffffff1673ffffffffffffffffffffffffffffffffffffffff1681526020016001820154815260200160028201548152602001600382015481526020016004820160009054906101000a900460ff16151515158152505090508060200151341461094d576040517f08c379a00000000000000000000000000000000000000000000000000000000081526004016109449061110a565b60405180910390fd5b600115156002600084815260200190815260200160002060040160009054906101000a900460ff161515146109b7576040517f08c379a00000000000000000000000000000000000000000000000000000000081526004016109ae9061104e565b60405180910390fd5b6109bf610c11565b9050600060018260400151815481106109db576109da6112fd565b5b906000526020600020906005020160040160006101000a81548160ff021916908315150217905550600081602001511115610a6057806000015173ffffffffffffffffffffffffffffffffffffffff166108fc82602001519081150290604051600060405180830381858888f19350505050158015610a5e573d6000803e3d6000fd5b505b60008054906101000a900473ffffffffffffffffffffffffffffffffffffffff1673ffffffffffffffffffffffffffffffffffffffff166323b872dd826000015133856040518463ffffffff1660e01b8152600401610ac193929190610f79565b600060405180830381600087803b158015610adb57600080fd5b505af1158015610aef573d6000803e3d6000fd5b505050507fd99e4fad9ad6313b1feb588fa8e605e3a9873172f2024330c35dd2b4041a43863383604051610b2492919061112a565b60405180910390a15050565b60008273ffffffffffffffffffffffffffffffffffffffff1660008054906101000a900473ffffffffffffffffffffffffffffffffffffffff1673ffffffffffffffffffffffffffffffffffffffff16636352211e846040518263ffffffff1660e01b8152600401610ba291906111a2565b60206040518083038186803b158015610bba57600080fd5b505afa158015610bce573d6000803e3d6000fd5b505050506040513d601f19601f82011682018060405250810190610bf29190610cd9565b73ffffffffffffffffffffffffffffffffffffffff1614905092915050565b6040518060a00160405280600073ffffffffffffffffffffffffffffffffffffffff1681526020016000815260200160008152602001600081526020016000151581525090565b600081359050610c678161151a565b92915050565b600081519050610c7c8161151a565b92915050565b600081519050610c9181611531565b92915050565b600081359050610ca681611548565b92915050565b600060208284031215610cc257610cc161135b565b5b6000610cd084828501610c58565b91505092915050565b600060208284031215610cef57610cee61135b565b5b6000610cfd84828501610c6d565b91505092915050565b600060208284031215610d1c57610d1b61135b565b5b6000610d2a84828501610c82565b91505092915050565b600060208284031215610d4957610d4861135b565b5b6000610d5784828501610c97565b91505092915050565b60008060408385031215610d7757610d7661135b565b5b6000610d8585828601610c97565b9250506020610d9685828601610c97565b9150509250929050565b6000610dac8383610f5b565b60208301905092915050565b610dc18161124f565b82525050565b610dd081611207565b82525050565b6000610de1826111cd565b610deb81856111e5565b9350610df6836111bd565b8060005b83811015610e27578151610e0e8882610da0565b9750610e19836111d8565b925050600181019050610dfa565b5085935050505092915050565b610e3d81611219565b82525050565b6000610e506010836111f6565b9150610e5b82611360565b602082019050919050565b6000610e736025836111f6565b9150610e7e82611389565b604082019050919050565b6000610e966022836111f6565b9150610ea1826113d8565b604082019050919050565b6000610eb9603c836111f6565b9150610ec482611427565b604082019050919050565b6000610edc600c836111f6565b9150610ee782611476565b602082019050919050565b6000610eff6016836111f6565b9150610f0a8261149f565b602082019050919050565b6000610f226003836111f6565b9150610f2d826114c8565b602082019050919050565b6000610f45600c836111f6565b9150610f50826114f1565b602082019050919050565b610f6481611245565b82525050565b610f7381611245565b82525050565b6000606082019050610f8e6000830186610db8565b610f9b6020830185610dc7565b610fa86040830184610f6a565b949350505050565b6000604082019050610fc56000830185610dc7565b610fd26020830184610dc7565b9392505050565b600060a082019050610fee6000830188610dc7565b610ffb6020830187610f6a565b6110086040830186610f6a565b6110156060830185610f6a565b6110226080830184610e34565b9695505050505050565b600060208201905081810360008301526110468184610dd6565b905092915050565b6000602082019050818103600083015261106781610e43565b9050919050565b6000602082019050818103600083015261108781610e66565b9050919050565b600060208201905081810360008301526110a781610e89565b9050919050565b600060208201905081810360008301526110c781610eac565b9050919050565b600060608201905081810360008301526110e781610ecf565b90506110f66020830185610dc7565b6111036040830184610f6a565b9392505050565b6000602082019050818103600083015261112381610ef2565b9050919050565b6000606082019050818103600083015261114381610f15565b90506111526020830185610dc7565b61115f6040830184610f6a565b9392505050565b6000606082019050818103600083015261117f81610f38565b905061118e6020830185610dc7565b61119b6040830184610f6a565b9392505050565b60006020820190506111b76000830184610f6a565b92915050565b6000819050602082019050919050565b600081519050919050565b6000602082019050919050565b600082825260208201905092915050565b600082825260208201905092915050565b600061121282611225565b9050919050565b60008115159050919050565b600073ffffffffffffffffffffffffffffffffffffffff82169050919050565b6000819050919050565b600061125a82611261565b9050919050565b600061126c82611273565b9050919050565b600061127e82611225565b9050919050565b600061129082611245565b91507fffffffffffffffffffffffffffffffffffffffffffffffffffffffffffffffff8214156112c3576112c26112ce565b5b600182019050919050565b7f4e487b7100000000000000000000000000000000000000000000000000000000600052601160045260246000fd5b7f4e487b7100000000000000000000000000000000000000000000000000000000600052603260045260246000fd5b7f4e487b7100000000000000000000000000000000000000000000000000000000600052604160045260246000fd5b600080fd5b7f4e6f20616374697665206f726465727300000000000000000000000000000000600082015250565b7f596f75206e65656420746f206265207468652073656c6c6572206f662074686160008201527f7420636174000000000000000000000000000000000000000000000000000000602082015250565b7f54686572652069732063757272656e746c7920616e20616374697665206f666660008201527f6572000000000000000000000000000000000000000000000000000000000000602082015250565b7f546865206d61726b6574706c61636520636f6e7472616374206d75737420626560008201527f20617070726f76656420746f2063726561746520616e206f6666657200000000602082015250565b7f437265617465206f666665720000000000000000000000000000000000000000600082015250565b7f54686520707269636520646f65736e74206d6174636800000000000000000000600082015250565b7f4275790000000000000000000000000000000000000000000000000000000000600082015250565b7f52656d6f7665206f666665720000000000000000000000000000000000000000600082015250565b61152381611207565b811461152e57600080fd5b50565b61153a81611219565b811461154557600080fd5b50565b61155181611245565b811461155c57600080fd5b5056fea264697066735822122006ba6999733f98dec3de6c39868abe8fbe4a3ec0cc42c29c44913ddba3508b4664736f6c63430008060033",
  "immutableReferences": {},
  "source": "pragma solidity >=0.4.22 <0.9.0;\n\nimport \"./Catcontract.sol\";\nimport \"./ICatMarketplace.sol\";\n\ncontract Marketplace is ICatMarketPlace{\n\n    Catcontract private _catContract;\n\n    struct Offer{\n     address payable seller;\n     uint256 price;\n     uint256 index;\n     uint256 tokenId;\n     bool active;\n\n }\n    Offer[] offers;\n          //tokenId => Offer\n    mapping(uint256 => Offer) tokenIdToOffer;\n\n\n    function setKittyContract(address _catContractAddress) external override{\n        _catContract = Catcontract(_catContractAddress);\n    }\n\n    constructor(address _catContractAddress){\n        _catContract = Catcontract(_catContractAddress);\n        \n    }\n    \n\n    function getOffer(uint256 _tokenId) external override view returns ( address seller, uint256 price, uint256 index, uint256 tokenId, bool active){\n        Offer storage offer = tokenIdToOffer[_tokenId];\n        return (\n            offer.seller,\n            offer.price,\n            offer.index,\n            offer.tokenId,\n            offer.active\n                );\n    }\n\n    function getAllTokenOnSale() external override view  returns(uint256[] memory listOfOffers){\n        if(offers.length == 0){\n            return new uint256[](0);//return empty array\n        }else{\n            uint256[] memory result = new uint256[](offers.length);\n            uint256 offerId;\n            for(offerId = 0; offerId < offers.length; offerId++){\n                if(offers[offerId].active == true){\n                    result[offerId] = offers[offerId].tokenId;\n                }\n            }\n            return result;\n        }\n    }\n\n    //* Requirement: There can only be one active offer for a token at a time.\n    //* Requirement: Marketplace contract (this) needs to be an approved operator when the offer is created.\n\n    function ownerOfCat(address theAddress, uint256 theTokenId) internal view returns (bool){\n        return (_catContract.ownerOf(theTokenId)== theAddress);\n    }\n     \n    function createOffer(uint256 _price, uint256 _tokenId) public override{\n        require(ownerOfCat(msg.sender, _tokenId));\n        require(tokenIdToOffer[_tokenId].active == false, \"There is currently an active offer\");\n        require(_catContract.isApprovedForAll(msg.sender, address(this)), \"The marketplace contract must be approved to create an offer\");\n\n        Offer memory _offer = Offer({\n            seller: payable(msg.sender),\n            price: _price,\n            index: offers.length,\n            tokenId: _tokenId,\n            active: true\n        });\n\n        tokenIdToOffer[_tokenId] = _offer;\n        offers.push(_offer);\n\n        emit MarketTransaction(\"Create offer\", msg.sender, _tokenId);\n    }\n\n    /**\n    * Removes an existing offer.\n    * Emits the MarketTransaction event with txType \"Remove offer\"\n    * Requirement: Only the seller of _tokenId can remove an offer.\n     */\n    function removeOffer(uint256 _tokenId) external override{\n        require(tokenIdToOffer[_tokenId].seller == msg.sender, \"You need to be the seller of that cat\");\n\n        delete tokenIdToOffer[_tokenId];\n        offers[tokenIdToOffer[_tokenId].index].active = false;\n\n        emit MarketTransaction(\"Remove offer\", msg.sender, _tokenId);\n    }\n\n    /**\n    * Executes the purchase of _tokenId.\n    * Sends the funds to the seller and transfers the token using transferFrom in Kittycontract.\n    * Emits the MarketTransaction event with txType \"Buy\".\n    * Requirement: The msg.value needs to equal the price of _tokenId\n    * Requirement: There must be an active offer for _tokenId\n     */\n    function buyKitty(uint256 _tokenId) external override payable{\n        Offer memory offer = tokenIdToOffer[_tokenId];\n        require(msg.value == offer.price, \"The price doesnt match\");\n        require(tokenIdToOffer[_tokenId].active == true, \"No active orders\");\n\n        delete offer;\n        offers[offer.index].active = false;\n\n        if(offer.price > 0 ){//this is push, todo: make it pull\n            offer.seller.transfer(offer.price);\n        }\n\n        _catContract.transferFrom(offer.seller, msg.sender, _tokenId);\n\n        emit MarketTransaction(\"Buy\", msg.sender, _tokenId);\n\n    }\n\n}",
  "sourcePath": "/Users/OllieFrancis/Documents/Ethereum/Crypto-Cats-Dapp/contracts/CatMarketplace.sol",
  "compiler": {
    "name": "solc",
    "version": "0.8.6+commit.11564f7e.Emscripten.clang"
  },
  "schemaVersion": "3.4.2",
  "updatedAt": "2021-08-06T10:46:17.478Z",
  "networkType": "ethereum",
  "devdoc": {
    "kind": "dev",
    "methods": {},
    "version": 1
  },
  "userdoc": {
    "kind": "user",
    "methods": {
      "buyKitty(uint256)": {
        "notice": "Executes the purchase of _tokenId. Sends the funds to the seller and transfers the token using transferFrom in Kittycontract. Emits the MarketTransaction event with txType \"Buy\". Requirement: The msg.value needs to equal the price of _tokenId Requirement: There must be an active offer for _tokenId"
      },
      "createOffer(uint256,uint256)": {
        "notice": "Creates a new offer for _tokenId for the price _price. Emits the MarketTransaction event with txType \"Create offer\" Requirement: Only the owner of _tokenId can create an offer. Requirement: There can only be one active offer for a token at a time. Requirement: Marketplace contract (this) needs to be an approved operator when the offer is created."
      },
      "getAllTokenOnSale()": {
        "notice": "Get all tokenId's that are currently for sale. Returns an empty array if none exist."
      },
      "getOffer(uint256)": {
        "notice": "Get the details about a offer for _tokenId. Throws an error if there is no active offer for _tokenId."
      },
      "removeOffer(uint256)": {
        "notice": "Removes an existing offer. Emits the MarketTransaction event with txType \"Remove offer\" Requirement: Only the seller of _tokenId can remove an offer."
      }
    },
    "version": 1
  }
}