{
  "contractName": "Marketplace",
  "abi": [
    {
      "inputs": [
        {
          "internalType": "address",
          "name": "_catContractAddress",
          "type": "address"
        }
      ],
      "stateMutability": "nonpayable",
      "type": "constructor"
    },
    {
      "anonymous": false,
      "inputs": [
        {
          "indexed": false,
          "internalType": "string",
          "name": "TxType",
          "type": "string"
        },
        {
          "indexed": false,
          "internalType": "address",
          "name": "owner",
          "type": "address"
        },
        {
          "indexed": false,
          "internalType": "uint256",
          "name": "tokenId",
          "type": "uint256"
        }
      ],
      "name": "MarketTransaction",
      "type": "event"
    },
    {
      "inputs": [
        {
          "internalType": "address",
          "name": "_catContractAddress",
          "type": "address"
        }
      ],
      "name": "setKittyContract",
      "outputs": [],
      "stateMutability": "nonpayable",
      "type": "function"
    },
    {
      "inputs": [],
      "name": "getContractAddress",
      "outputs": [
        {
          "internalType": "address",
          "name": "",
          "type": "address"
        }
      ],
      "stateMutability": "view",
      "type": "function",
      "constant": true
    },
    {
      "inputs": [
        {
          "internalType": "uint256",
          "name": "_tokenId",
          "type": "uint256"
        }
      ],
      "name": "getOffer",
      "outputs": [
        {
          "internalType": "address",
          "name": "seller",
          "type": "address"
        },
        {
          "internalType": "uint256",
          "name": "price",
          "type": "uint256"
        },
        {
          "internalType": "uint256",
          "name": "index",
          "type": "uint256"
        },
        {
          "internalType": "uint256",
          "name": "tokenId",
          "type": "uint256"
        },
        {
          "internalType": "bool",
          "name": "active",
          "type": "bool"
        }
      ],
      "stateMutability": "view",
      "type": "function",
      "constant": true
    },
    {
      "inputs": [],
      "name": "getAllTokenOnSale",
      "outputs": [
        {
          "internalType": "uint256[]",
          "name": "listOfOffers",
          "type": "uint256[]"
        }
      ],
      "stateMutability": "view",
      "type": "function",
      "constant": true
    },
    {
      "inputs": [
        {
          "internalType": "uint256",
          "name": "_price",
          "type": "uint256"
        },
        {
          "internalType": "uint256",
          "name": "_tokenId",
          "type": "uint256"
        }
      ],
      "name": "createOffer",
      "outputs": [],
      "stateMutability": "nonpayable",
      "type": "function"
    },
    {
      "inputs": [
        {
          "internalType": "uint256",
          "name": "_tokenId",
          "type": "uint256"
        }
      ],
      "name": "removeOffer",
      "outputs": [],
      "stateMutability": "nonpayable",
      "type": "function"
    },
    {
      "inputs": [
        {
          "internalType": "uint256",
          "name": "_tokenId",
          "type": "uint256"
        }
      ],
      "name": "buyKitty",
      "outputs": [],
      "stateMutability": "payable",
      "type": "function",
      "payable": true
    }
  ],
  "bytecode": "0x60806040523480156200001157600080fd5b5060405162001b9f38038062001b9f8339818101604052810190620000379190620000a9565b62000048816200004f60201b60201c565b506200012e565b806000806101000a81548173ffffffffffffffffffffffffffffffffffffffff021916908373ffffffffffffffffffffffffffffffffffffffff16021790555050565b600081519050620000a38162000114565b92915050565b600060208284031215620000c257620000c16200010f565b5b6000620000d28482850162000092565b91505092915050565b6000620000e882620000ef565b9050919050565b600073ffffffffffffffffffffffffffffffffffffffff82169050919050565b600080fd5b6200011f81620000db565b81146200012b57600080fd5b50565b611a61806200013e6000396000f3fe6080604052600436106100705760003560e01c806349b3709f1161004e57806349b3709f1461010a57806362b7f94e1461013557806395a0f9c71461015e578063ae5310f61461018757610070565b80631afed8751461007557806332a2c5d01461009e5780634579268a146100c9575b600080fd5b34801561008157600080fd5b5061009c60048036038101906100979190610fc8565b6101a3565b005b3480156100aa57600080fd5b506100b3610516565b6040516100c09190611296565b60405180910390f35b3480156100d557600080fd5b506100f060048036038101906100eb9190610f9b565b61051e565b604051610101959493929190611311565b60405180910390f35b34801561011657600080fd5b5061011f6105fa565b60405161012c9190611364565b60405180910390f35b34801561014157600080fd5b5061015c60048036038101906101579190610f14565b61075e565b005b34801561016a57600080fd5b5061018560048036038101906101809190610f9b565b6107a1565b005b6101a1600480360381019061019c9190610f9b565b61093e565b005b6101ad3382610b01565b6101ec576040517f08c379a00000000000000000000000000000000000000000000000000000000081526004016101e39061153a565b60405180910390fd5b600015156002600083815260200190815260200160002060040160009054906101000a900460ff16151514610256576040517f08c379a000000000000000000000000000000000000000000000000000000000815260040161024d906113e6565b60405180910390fd5b60008054906101000a900473ffffffffffffffffffffffffffffffffffffffff1673ffffffffffffffffffffffffffffffffffffffff1663e985e9c533306040518363ffffffff1660e01b81526004016102b19291906112b1565b60206040518083038186803b1580156102c957600080fd5b505afa1580156102dd573d6000803e3d6000fd5b505050506040513d601f19601f820116820180604052508101906103019190610f6e565b610340576040517f08c379a000000000000000000000000000000000000000000000000000000000815260040161033790611406565b60405180910390fd5b60006040518060a001604052803373ffffffffffffffffffffffffffffffffffffffff1681526020018481526020016001805490508152602001838152602001600115158152509050806002600084815260200190815260200160002060008201518160000160006101000a81548173ffffffffffffffffffffffffffffffffffffffff021916908373ffffffffffffffffffffffffffffffffffffffff16021790555060208201518160010155604082015181600201556060820151816003015560808201518160040160006101000a81548160ff021916908315150217905550905050600181908060018154018082558091505060019003906000526020600020906005020160009091909190915060008201518160000160006101000a81548173ffffffffffffffffffffffffffffffffffffffff021916908373ffffffffffffffffffffffffffffffffffffffff16021790555060208201518160010155604082015181600201556060820151816003015560808201518160040160006101000a81548160ff02191690831515021790555050507fd99e4fad9ad6313b1feb588fa8e605e3a9873172f2024330c35dd2b4041a43863383604051610509929190611426565b60405180910390a1505050565b600030905090565b600080600080600080600260008881526020019081526020016000209050600115158160040160009054906101000a900460ff16151514610594576040517f08c379a000000000000000000000000000000000000000000000000000000000815260040161058b90611386565b60405180910390fd5b8060000160009054906101000a900473ffffffffffffffffffffffffffffffffffffffff169550858160010154955085826002015495508583600301549550858460040160009054906101000a900460ff16955095509550955095505091939590929450565b60606000600180549050141561065b57600067ffffffffffffffff811115610625576106246116b9565b5b6040519080825280602002602001820160405280156106535781602001602082028036833780820191505090505b50905061075b565b600060018054905067ffffffffffffffff81111561067c5761067b6116b9565b5b6040519080825280602002602001820160405280156106aa5781602001602082028036833780820191505090505b50905060005b6001805490508110156107555760011515600182815481106106d5576106d461168a565b5b906000526020600020906005020160040160009054906101000a900460ff161515141561074257600181815481106107105761070f61168a565b5b9060005260206000209060050201600301548282815181106107355761073461168a565b5b6020026020010181815250505b808061074d90611612565b9150506106b0565b81925050505b90565b806000806101000a81548173ffffffffffffffffffffffffffffffffffffffff021916908373ffffffffffffffffffffffffffffffffffffffff16021790555050565b3373ffffffffffffffffffffffffffffffffffffffff166002600083815260200190815260200160002060000160009054906101000a900473ffffffffffffffffffffffffffffffffffffffff1673ffffffffffffffffffffffffffffffffffffffff1614610845576040517f08c379a000000000000000000000000000000000000000000000000000000000815260040161083c906113c6565b60405180910390fd5b60026000828152602001908152602001600020600080820160006101000a81549073ffffffffffffffffffffffffffffffffffffffff02191690556001820160009055600282016000905560038201600090556004820160006101000a81549060ff02191690555050600060016002600084815260200190815260200160002060020154815481106108da576108d961168a565b5b906000526020600020906005020160040160006101000a81548160ff0219169083151502179055507fd99e4fad9ad6313b1feb588fa8e605e3a9873172f2024330c35dd2b4041a438633826040516109339291906114be565b60405180910390a150565b6000600260008381526020019081526020016000206040518060a00160405290816000820160009054906101000a900473ffffffffffffffffffffffffffffffffffffffff1673ffffffffffffffffffffffffffffffffffffffff1673ffffffffffffffffffffffffffffffffffffffff1681526020016001820154815260200160028201548152602001600382015481526020016004820160009054906101000a900460ff161515151581525050905080602001513414610a35576040517f08c379a0000000000000000000000000000000000000000000000000000000008152600401610a2c90611462565b60405180910390fd5b3373ffffffffffffffffffffffffffffffffffffffff16816000015173ffffffffffffffffffffffffffffffffffffffff161415610aa8576040517f08c379a0000000000000000000000000000000000000000000000000000000008152600401610a9f9061151a565b60405180910390fd5b600115158160800151151514610af3576040517f08c379a0000000000000000000000000000000000000000000000000000000008152600401610aea906113a6565b60405180910390fd5b610afd8233610be2565b5050565b60008273ffffffffffffffffffffffffffffffffffffffff1660008054906101000a900473ffffffffffffffffffffffffffffffffffffffff1673ffffffffffffffffffffffffffffffffffffffff16636352211e846040518263ffffffff1660e01b8152600401610b73919061155a565b60206040518083038186803b158015610b8b57600080fd5b505afa158015610b9f573d6000803e3d6000fd5b505050506040513d601f19601f82011682018060405250810190610bc39190610f41565b73ffffffffffffffffffffffffffffffffffffffff1614905092915050565b6000600260008481526020019081526020016000206040518060a00160405290816000820160009054906101000a900473ffffffffffffffffffffffffffffffffffffffff1673ffffffffffffffffffffffffffffffffffffffff1673ffffffffffffffffffffffffffffffffffffffff1681526020016001820154815260200160028201548152602001600382015481526020016004820160009054906101000a900460ff161515151581525050905060008160000151905060008260200151905060008273ffffffffffffffffffffffffffffffffffffffff1682604051610ccb90611281565b60006040518083038185875af1925050503d8060008114610d08576040519150601f19603f3d011682016040523d82523d6000602084013e610d0d565b606091505b5050905080610d51576040517f08c379a0000000000000000000000000000000000000000000000000000000008152600401610d48906114fa565b60405180910390fd5b60006001856040015181548110610d6b57610d6a61168a565b5b906000526020600020906005020160040160006101000a81548160ff021916908315150217905550600084602001511115610df057836000015173ffffffffffffffffffffffffffffffffffffffff166108fc85602001519081150290604051600060405180830381858888f19350505050158015610dee573d6000803e3d6000fd5b505b60008054906101000a900473ffffffffffffffffffffffffffffffffffffffff1673ffffffffffffffffffffffffffffffffffffffff166323b872dd8487896040518463ffffffff1660e01b8152600401610e4d939291906112da565b600060405180830381600087803b158015610e6757600080fd5b505af1158015610e7b573d6000803e3d6000fd5b505050507fd99e4fad9ad6313b1feb588fa8e605e3a9873172f2024330c35dd2b4041a43863387604051610eb0929190611482565b60405180910390a1505050505050565b600081359050610ecf816119e6565b92915050565b600081519050610ee4816119e6565b92915050565b600081519050610ef9816119fd565b92915050565b600081359050610f0e81611a14565b92915050565b600060208284031215610f2a57610f296116e8565b5b6000610f3884828501610ec0565b91505092915050565b600060208284031215610f5757610f566116e8565b5b6000610f6584828501610ed5565b91505092915050565b600060208284031215610f8457610f836116e8565b5b6000610f9284828501610eea565b91505092915050565b600060208284031215610fb157610fb06116e8565b5b6000610fbf84828501610eff565b91505092915050565b60008060408385031215610fdf57610fde6116e8565b5b6000610fed85828601610eff565b9250506020610ffe85828601610eff565b9150509250929050565b60006110148383611263565b60208301905092915050565b611029816115ca565b82525050565b600061103a82611585565b611044818561159d565b935061104f83611575565b8060005b838110156110805781516110678882611008565b975061107283611590565b925050600181019050611053565b5085935050505092915050565b611096816115dc565b82525050565b60006110a96034836115b9565b91506110b4826116ed565b604082019050919050565b60006110cc6010836115b9565b91506110d78261173c565b602082019050919050565b60006110ef6025836115b9565b91506110fa82611765565b604082019050919050565b60006111126022836115b9565b915061111d826117b4565b604082019050919050565b6000611135603c836115b9565b915061114082611803565b604082019050919050565b6000611158600c836115b9565b915061116382611852565b602082019050919050565b600061117b6016836115b9565b91506111868261187b565b602082019050919050565b600061119e6003836115b9565b91506111a9826118a4565b602082019050919050565b60006111c1600c836115b9565b91506111cc826118cd565b602082019050919050565b60006111e4602f836115b9565b91506111ef826118f6565b604082019050919050565b60006112076000836115ae565b915061121282611945565b600082019050919050565b600061122a6026836115b9565b915061123582611948565b604082019050919050565b600061124d6025836115b9565b915061125882611997565b604082019050919050565b61126c81611608565b82525050565b61127b81611608565b82525050565b600061128c826111fa565b9150819050919050565b60006020820190506112ab6000830184611020565b92915050565b60006040820190506112c66000830185611020565b6112d36020830184611020565b9392505050565b60006060820190506112ef6000830186611020565b6112fc6020830185611020565b6113096040830184611272565b949350505050565b600060a0820190506113266000830188611020565b6113336020830187611272565b6113406040830186611272565b61134d6060830185611272565b61135a608083018461108d565b9695505050505050565b6000602082019050818103600083015261137e818461102f565b905092915050565b6000602082019050818103600083015261139f8161109c565b9050919050565b600060208201905081810360008301526113bf816110bf565b9050919050565b600060208201905081810360008301526113df816110e2565b9050919050565b600060208201905081810360008301526113ff81611105565b9050919050565b6000602082019050818103600083015261141f81611128565b9050919050565b6000606082019050818103600083015261143f8161114b565b905061144e6020830185611020565b61145b6040830184611272565b9392505050565b6000602082019050818103600083015261147b8161116e565b9050919050565b6000606082019050818103600083015261149b81611191565b90506114aa6020830185611020565b6114b76040830184611272565b9392505050565b600060608201905081810360008301526114d7816111b4565b90506114e66020830185611020565b6114f36040830184611272565b9392505050565b60006020820190508181036000830152611513816111d7565b9050919050565b600060208201905081810360008301526115338161121d565b9050919050565b6000602082019050818103600083015261155381611240565b9050919050565b600060208201905061156f6000830184611272565b92915050565b6000819050602082019050919050565b600081519050919050565b6000602082019050919050565b600082825260208201905092915050565b600081905092915050565b600082825260208201905092915050565b60006115d5826115e8565b9050919050565b60008115159050919050565b600073ffffffffffffffffffffffffffffffffffffffff82169050919050565b6000819050919050565b600061161d82611608565b91507fffffffffffffffffffffffffffffffffffffffffffffffffffffffffffffffff8214156116505761164f61165b565b5b600182019050919050565b7f4e487b7100000000000000000000000000000000000000000000000000000000600052601160045260246000fd5b7f4e487b7100000000000000000000000000000000000000000000000000000000600052603260045260246000fd5b7f4e487b7100000000000000000000000000000000000000000000000000000000600052604160045260246000fd5b600080fd5b7f4d61726b6574706c6163653a205468657265206973206e6f206163746976652060008201527f6f6666657220666f72207468697320746f6b656e000000000000000000000000602082015250565b7f4e6f20616374697665206f726465727300000000000000000000000000000000600082015250565b7f596f75206e65656420746f206265207468652073656c6c6572206f662074686160008201527f7420636174000000000000000000000000000000000000000000000000000000602082015250565b7f54686572652069732063757272656e746c7920616e20616374697665206f666660008201527f6572000000000000000000000000000000000000000000000000000000000000602082015250565b7f546865206d61726b6574706c61636520636f6e7472616374206d75737420626560008201527f20617070726f76656420746f2063726561746520616e206f6666657200000000602082015250565b7f437265617465206f666665720000000000000000000000000000000000000000600082015250565b7f54686520707269636520646f65736e74206d6174636800000000000000000000600082015250565b7f4275790000000000000000000000000000000000000000000000000000000000600082015250565b7f52656d6f7665206f666665720000000000000000000000000000000000000000600082015250565b7f4d61726b6574706c6163653a204661696c656420746f2073656e642066756e6460008201527f7320746f207468652073656c6c65720000000000000000000000000000000000602082015250565b50565b7f4d61726b6574706c6163653a2043616e6e6f7420627920796f7572206f776e2060008201527f746f6b656e210000000000000000000000000000000000000000000000000000602082015250565b7f596f75206d757374206f776e207468652063617420796f752077616e7420746f60008201527f2073656c6c000000000000000000000000000000000000000000000000000000602082015250565b6119ef816115ca565b81146119fa57600080fd5b50565b611a06816115dc565b8114611a1157600080fd5b50565b611a1d81611608565b8114611a2857600080fd5b5056fea2646970667358221220d572bcb5a346bd536f3367713a42e4e830bcb82c6a02b4a363d15eb4ebab2aee64736f6c63430008070033",
  "immutableReferences": {},
  "source": "pragma solidity >=0.4.22 <0.9.0;\n\nimport \"./Catcontract.sol\";\nimport \"./ICatMarketplace.sol\";\n\ncontract Marketplace is ICatMarketPlace{\n\n    Catcontract private _catContract;\n    \n\n    struct Offer{\n     address payable seller;\n     uint256 price;\n     uint256 index;\n     uint256 tokenId;\n     bool active;\n\n    }\n\n    Offer[] offers;\n          //tokenId => Offer\n    mapping(uint256 => Offer) tokenIdToOffer;\n\n    \n    \n    constructor(address _catContractAddress){\n        setKittyContract(_catContractAddress);\n        //_catContract = Catcontract(_catContractAddress);\n    }\n\n    function setKittyContract(address _catContractAddress) public override {\n        _catContract = Catcontract(_catContractAddress);\n    }\n\n   \n    function getContractAddress() external view returns(address){\n        return address(this);\n    }\n    \n\n    function getOffer(uint256 _tokenId) external override view returns ( address seller, uint256 price, uint256 index, uint256 tokenId, bool active){\n        Offer storage offer = tokenIdToOffer[_tokenId];\n\n        require(offer.active == true, \"Marketplace: There is no active offer for this token\");\n        \n        return (\n            seller = offer.seller,\n            price = offer.price,\n            index = offer.index,\n            tokenId = offer.tokenId,\n            active = offer.active\n                );\n    }\n\n    function getAllTokenOnSale() external override view  returns(uint256[] memory listOfOffers){\n        if(offers.length == 0){\n            return new uint256[](0);//return empty array\n        }else{\n            uint256[] memory result = new uint256[](offers.length);\n            uint256 offerId;\n            for(offerId = 0; offerId < offers.length; offerId++){\n                if(offers[offerId].active == true){\n                    result[offerId] = offers[offerId].tokenId;\n                }\n            }\n            return result;\n        }\n    }\n\n    //* Requirement: There can only be one active offer for a token at a time.\n    //* Requirement: Marketplace contract (this) needs to be an approved operator when the offer is created.\n\n    function ownerOfCat(address theAddress, uint256 theTokenId) internal view returns (bool){\n        return (_catContract.ownerOf(theTokenId)== theAddress);\n    }\n     \n    function createOffer(uint256 _price, uint256 _tokenId) public override{\n        require(ownerOfCat(msg.sender, _tokenId), \"You must own the cat you want to sell\");\n        require(tokenIdToOffer[_tokenId].active == false, \"There is currently an active offer\");\n        require(_catContract.isApprovedForAll(msg.sender, address(this)), \"The marketplace contract must be approved to create an offer\");\n\n        Offer memory _offer = Offer({\n            seller: payable(msg.sender),\n            price: _price,\n            index: offers.length,\n            tokenId: _tokenId,\n            active: true\n        });\n\n        tokenIdToOffer[_tokenId] = _offer;\n        offers.push(_offer);\n\n        emit MarketTransaction(\"Create offer\", msg.sender, _tokenId);\n    }\n\n    /**\n    * Removes an existing offer.\n    * Emits the MarketTransaction event with txType \"Remove offer\"\n    * Requirement: Only the seller of _tokenId can remove an offer.\n     */\n    function removeOffer(uint256 _tokenId) external override{\n        require(tokenIdToOffer[_tokenId].seller == msg.sender, \"You need to be the seller of that cat\");\n\n        delete tokenIdToOffer[_tokenId];\n        offers[tokenIdToOffer[_tokenId].index].active = false;\n\n        emit MarketTransaction(\"Remove offer\", msg.sender, _tokenId);\n    }\n\n    /**\n    * Executes the purchase of _tokenId.\n    * Sends the funds to the seller and transfers the token using transferFrom in Kittycontract.\n    * Emits the MarketTransaction event with txType \"Buy\".\n    * Requirement: The msg.value needs to equal the price of _tokenId\n    * Requirement: There must be an active offer for _tokenId\n     */\n    function buyKitty(uint256 _tokenId) external override payable{\n        Offer memory offer = tokenIdToOffer[_tokenId];\n        require(msg.value == offer.price, \"The price doesnt match\");\n        require(offer.seller != msg.sender, \"Marketplace: Cannot by your own token!\");\n        require(offer.active == true, \"No active orders\");\n        _buyKitty(_tokenId, msg.sender);\n    \n    }\n\n    function _buyKitty(uint256 _tokenId, address _buyer) internal {\n        Offer memory offer = tokenIdToOffer[_tokenId];\n        address seller = offer.seller;\n        uint256 price = offer.price;\n        (bool success, ) = payable(seller).call{value: price}(\"\");\n        require(success, \"Marketplace: Failed to send funds to the seller\");\n        offers[offer.index].active = false;\n\n        if(offer.price > 0 ){//this is push, todo: make it pull\n            offer.seller.transfer(offer.price);\n        }\n\n        _catContract.transferFrom(seller, _buyer, _tokenId);\n\n        emit MarketTransaction(\"Buy\", msg.sender, _tokenId);\n    }\n}",
  "sourcePath": "/Users/OllieFrancis/Documents/Ethereum/Crypto-Cats-Dapp/contracts/CatMarketplace.sol",
  "compiler": {
    "name": "solc",
    "version": "0.8.7+commit.e28d00a7.Emscripten.clang"
  },
  "schemaVersion": "3.4.2",
  "updatedAt": "2021-08-26T11:14:37.743Z",
  "networkType": "ethereum",
  "devdoc": {
    "kind": "dev",
    "methods": {},
    "version": 1
  },
  "userdoc": {
    "kind": "user",
    "methods": {
      "buyKitty(uint256)": {
        "notice": "Executes the purchase of _tokenId. Sends the funds to the seller and transfers the token using transferFrom in Kittycontract. Emits the MarketTransaction event with txType \"Buy\". Requirement: The msg.value needs to equal the price of _tokenId Requirement: There must be an active offer for _tokenId"
      },
      "createOffer(uint256,uint256)": {
        "notice": "Creates a new offer for _tokenId for the price _price. Emits the MarketTransaction event with txType \"Create offer\" Requirement: Only the owner of _tokenId can create an offer. Requirement: There can only be one active offer for a token at a time. Requirement: Marketplace contract (this) needs to be an approved operator when the offer is created."
      },
      "getAllTokenOnSale()": {
        "notice": "Get all tokenId's that are currently for sale. Returns an empty array if none exist."
      },
      "getOffer(uint256)": {
        "notice": "Get the details about a offer for _tokenId. Throws an error if there is no active offer for _tokenId."
      },
      "removeOffer(uint256)": {
        "notice": "Removes an existing offer. Emits the MarketTransaction event with txType \"Remove offer\" Requirement: Only the seller of _tokenId can remove an offer."
      }
    },
    "version": 1
  }
}