{
  "contractName": "Marketplace",
  "abi": [
    {
      "inputs": [
        {
          "internalType": "address",
          "name": "_catContractAddress",
          "type": "address"
        }
      ],
      "stateMutability": "nonpayable",
      "type": "constructor"
    },
    {
      "anonymous": false,
      "inputs": [
        {
          "indexed": false,
          "internalType": "string",
          "name": "TxType",
          "type": "string"
        },
        {
          "indexed": false,
          "internalType": "address",
          "name": "owner",
          "type": "address"
        },
        {
          "indexed": false,
          "internalType": "uint256",
          "name": "tokenId",
          "type": "uint256"
        }
      ],
      "name": "MarketTransaction",
      "type": "event"
    },
    {
      "inputs": [
        {
          "internalType": "address",
          "name": "_catContractAddress",
          "type": "address"
        }
      ],
      "name": "setKittyContract",
      "outputs": [],
      "stateMutability": "nonpayable",
      "type": "function"
    },
    {
      "inputs": [],
      "name": "getContractAddress",
      "outputs": [
        {
          "internalType": "address",
          "name": "",
          "type": "address"
        }
      ],
      "stateMutability": "view",
      "type": "function",
      "constant": true
    },
    {
      "inputs": [
        {
          "internalType": "uint256",
          "name": "_tokenId",
          "type": "uint256"
        }
      ],
      "name": "getOffer",
      "outputs": [
        {
          "internalType": "address",
          "name": "seller",
          "type": "address"
        },
        {
          "internalType": "uint256",
          "name": "price",
          "type": "uint256"
        },
        {
          "internalType": "uint256",
          "name": "index",
          "type": "uint256"
        },
        {
          "internalType": "uint256",
          "name": "tokenId",
          "type": "uint256"
        },
        {
          "internalType": "bool",
          "name": "active",
          "type": "bool"
        }
      ],
      "stateMutability": "view",
      "type": "function",
      "constant": true
    },
    {
      "inputs": [],
      "name": "getAllTokenOnSale",
      "outputs": [
        {
          "internalType": "uint256[]",
          "name": "listOfOffers",
          "type": "uint256[]"
        }
      ],
      "stateMutability": "view",
      "type": "function",
      "constant": true
    },
    {
      "inputs": [
        {
          "internalType": "uint256",
          "name": "_price",
          "type": "uint256"
        },
        {
          "internalType": "uint256",
          "name": "_tokenId",
          "type": "uint256"
        }
      ],
      "name": "createOffer",
      "outputs": [],
      "stateMutability": "nonpayable",
      "type": "function"
    },
    {
      "inputs": [
        {
          "internalType": "uint256",
          "name": "_tokenId",
          "type": "uint256"
        }
      ],
      "name": "removeOffer",
      "outputs": [],
      "stateMutability": "nonpayable",
      "type": "function"
    },
    {
      "inputs": [
        {
          "internalType": "uint256",
          "name": "_tokenId",
          "type": "uint256"
        }
      ],
      "name": "buyKitty",
      "outputs": [],
      "stateMutability": "payable",
      "type": "function",
      "payable": true
    }
  ],
  "bytecode": "0x60806040523480156200001157600080fd5b5060405162001bec38038062001bec8339818101604052810190620000379190620000a9565b62000048816200004f60201b60201c565b506200012e565b806000806101000a81548173ffffffffffffffffffffffffffffffffffffffff021916908373ffffffffffffffffffffffffffffffffffffffff16021790555050565b600081519050620000a38162000114565b92915050565b600060208284031215620000c257620000c16200010f565b5b6000620000d28482850162000092565b91505092915050565b6000620000e882620000ef565b9050919050565b600073ffffffffffffffffffffffffffffffffffffffff82169050919050565b600080fd5b6200011f81620000db565b81146200012b57600080fd5b50565b611aae806200013e6000396000f3fe6080604052600436106100705760003560e01c806349b3709f1161004e57806349b3709f1461010a57806362b7f94e1461013557806395a0f9c71461015e578063ae5310f61461018757610070565b80631afed8751461007557806332a2c5d01461009e5780634579268a146100c9575b600080fd5b34801561008157600080fd5b5061009c60048036038101906100979190611015565b6101a3565b005b3480156100aa57600080fd5b506100b361034f565b6040516100c091906112e3565b60405180910390f35b3480156100d557600080fd5b506100f060048036038101906100eb9190610fe8565b610357565b60405161010195949392919061135e565b60405180910390f35b34801561011657600080fd5b5061011f610433565b60405161012c91906113b1565b60405180910390f35b34801561014157600080fd5b5061015c60048036038101906101579190610f61565b610597565b005b34801561016a57600080fd5b5061018560048036038101906101809190610fe8565b6105da565b005b6101a1600480360381019061019c9190610fe8565b610777565b005b6101ad338261093a565b6101ec576040517f08c379a00000000000000000000000000000000000000000000000000000000081526004016101e390611587565b60405180910390fd5b600015156002600083815260200190815260200160002060040160009054906101000a900460ff16151514610256576040517f08c379a000000000000000000000000000000000000000000000000000000000815260040161024d90611433565b60405180910390fd5b60008054906101000a900473ffffffffffffffffffffffffffffffffffffffff1673ffffffffffffffffffffffffffffffffffffffff1663e985e9c533306040518363ffffffff1660e01b81526004016102b19291906112fe565b60206040518083038186803b1580156102c957600080fd5b505afa1580156102dd573d6000803e3d6000fd5b505050506040513d601f19601f820116820180604052508101906103019190610fbb565b610340576040517f08c379a000000000000000000000000000000000000000000000000000000000815260040161033790611453565b60405180910390fd5b61034b828233610a1b565b5050565b600030905090565b600080600080600080600260008881526020019081526020016000209050600115158160040160009054906101000a900460ff161515146103cd576040517f08c379a00000000000000000000000000000000000000000000000000000000081526004016103c4906113d3565b60405180910390fd5b8060000160009054906101000a900473ffffffffffffffffffffffffffffffffffffffff169550858160010154955085826002015495508583600301549550858460040160009054906101000a900460ff16955095509550955095505091939590929450565b60606000600180549050141561049457600067ffffffffffffffff81111561045e5761045d611706565b5b60405190808252806020026020018201604052801561048c5781602001602082028036833780820191505090505b509050610594565b600060018054905067ffffffffffffffff8111156104b5576104b4611706565b5b6040519080825280602002602001820160405280156104e35781602001602082028036833780820191505090505b50905060005b60018054905081101561058e57600115156001828154811061050e5761050d6116d7565b5b906000526020600020906005020160040160009054906101000a900460ff161515141561057b5760018181548110610549576105486116d7565b5b90600052602060002090600502016003015482828151811061056e5761056d6116d7565b5b6020026020010181815250505b80806105869061165f565b9150506104e9565b81925050505b90565b806000806101000a81548173ffffffffffffffffffffffffffffffffffffffff021916908373ffffffffffffffffffffffffffffffffffffffff16021790555050565b3373ffffffffffffffffffffffffffffffffffffffff166002600083815260200190815260200160002060000160009054906101000a900473ffffffffffffffffffffffffffffffffffffffff1673ffffffffffffffffffffffffffffffffffffffff161461067e576040517f08c379a000000000000000000000000000000000000000000000000000000000815260040161067590611413565b60405180910390fd5b60026000828152602001908152602001600020600080820160006101000a81549073ffffffffffffffffffffffffffffffffffffffff02191690556001820160009055600282016000905560038201600090556004820160006101000a81549060ff0219169055505060006001600260008481526020019081526020016000206002015481548110610713576107126116d7565b5b906000526020600020906005020160040160006101000a81548160ff0219169083151502179055507fd99e4fad9ad6313b1feb588fa8e605e3a9873172f2024330c35dd2b4041a4386338260405161076c92919061150b565b60405180910390a150565b6000600260008381526020019081526020016000206040518060a00160405290816000820160009054906101000a900473ffffffffffffffffffffffffffffffffffffffff1673ffffffffffffffffffffffffffffffffffffffff1673ffffffffffffffffffffffffffffffffffffffff1681526020016001820154815260200160028201548152602001600382015481526020016004820160009054906101000a900460ff16151515158152505090508060200151341461086e576040517f08c379a0000000000000000000000000000000000000000000000000000000008152600401610865906114af565b60405180910390fd5b3373ffffffffffffffffffffffffffffffffffffffff16816000015173ffffffffffffffffffffffffffffffffffffffff1614156108e1576040517f08c379a00000000000000000000000000000000000000000000000000000000081526004016108d890611567565b60405180910390fd5b60011515816080015115151461092c576040517f08c379a0000000000000000000000000000000000000000000000000000000008152600401610923906113f3565b60405180910390fd5b6109368233610bf2565b5050565b60008273ffffffffffffffffffffffffffffffffffffffff1660008054906101000a900473ffffffffffffffffffffffffffffffffffffffff1673ffffffffffffffffffffffffffffffffffffffff16636352211e846040518263ffffffff1660e01b81526004016109ac91906115a7565b60206040518083038186803b1580156109c457600080fd5b505afa1580156109d8573d6000803e3d6000fd5b505050506040513d601f19601f820116820180604052508101906109fc9190610f8e565b73ffffffffffffffffffffffffffffffffffffffff1614905092915050565b60006040518060a001604052808373ffffffffffffffffffffffffffffffffffffffff1681526020018581526020016001805490508152602001848152602001600115158152509050806002600085815260200190815260200160002060008201518160000160006101000a81548173ffffffffffffffffffffffffffffffffffffffff021916908373ffffffffffffffffffffffffffffffffffffffff16021790555060208201518160010155604082015181600201556060820151816003015560808201518160040160006101000a81548160ff021916908315150217905550905050600181908060018154018082558091505060019003906000526020600020906005020160009091909190915060008201518160000160006101000a81548173ffffffffffffffffffffffffffffffffffffffff021916908373ffffffffffffffffffffffffffffffffffffffff16021790555060208201518160010155604082015181600201556060820151816003015560808201518160040160006101000a81548160ff02191690831515021790555050507fd99e4fad9ad6313b1feb588fa8e605e3a9873172f2024330c35dd2b4041a43863384604051610be4929190611473565b60405180910390a150505050565b6000600260008481526020019081526020016000206040518060a00160405290816000820160009054906101000a900473ffffffffffffffffffffffffffffffffffffffff1673ffffffffffffffffffffffffffffffffffffffff1673ffffffffffffffffffffffffffffffffffffffff1681526020016001820154815260200160028201548152602001600382015481526020016004820160009054906101000a900460ff161515151581525050905060008160000151905060008260200151905060008273ffffffffffffffffffffffffffffffffffffffff1682604051610cdb906112ce565b60006040518083038185875af1925050503d8060008114610d18576040519150601f19603f3d011682016040523d82523d6000602084013e610d1d565b606091505b5050905080610d61576040517f08c379a0000000000000000000000000000000000000000000000000000000008152600401610d5890611547565b60405180910390fd5b6001600360008881526020019081526020016000205481548110610d8857610d876116d7565b5b9060005260206000209060050201600080820160006101000a81549073ffffffffffffffffffffffffffffffffffffffff02191690556001820160009055600282016000905560038201600090556004820160006101000a81549060ff02191690555050610df4610ec6565b935060008054906101000a900473ffffffffffffffffffffffffffffffffffffffff1673ffffffffffffffffffffffffffffffffffffffff166323b872dd8487896040518463ffffffff1660e01b8152600401610e5393929190611327565b600060405180830381600087803b158015610e6d57600080fd5b505af1158015610e81573d6000803e3d6000fd5b505050507fd99e4fad9ad6313b1feb588fa8e605e3a9873172f2024330c35dd2b4041a43863387604051610eb69291906114cf565b60405180910390a1505050505050565b6040518060a00160405280600073ffffffffffffffffffffffffffffffffffffffff1681526020016000815260200160008152602001600081526020016000151581525090565b600081359050610f1c81611a33565b92915050565b600081519050610f3181611a33565b92915050565b600081519050610f4681611a4a565b92915050565b600081359050610f5b81611a61565b92915050565b600060208284031215610f7757610f76611735565b5b6000610f8584828501610f0d565b91505092915050565b600060208284031215610fa457610fa3611735565b5b6000610fb284828501610f22565b91505092915050565b600060208284031215610fd157610fd0611735565b5b6000610fdf84828501610f37565b91505092915050565b600060208284031215610ffe57610ffd611735565b5b600061100c84828501610f4c565b91505092915050565b6000806040838503121561102c5761102b611735565b5b600061103a85828601610f4c565b925050602061104b85828601610f4c565b9150509250929050565b600061106183836112b0565b60208301905092915050565b61107681611617565b82525050565b6000611087826115d2565b61109181856115ea565b935061109c836115c2565b8060005b838110156110cd5781516110b48882611055565b97506110bf836115dd565b9250506001810190506110a0565b5085935050505092915050565b6110e381611629565b82525050565b60006110f6603483611606565b91506111018261173a565b604082019050919050565b6000611119601083611606565b915061112482611789565b602082019050919050565b600061113c602583611606565b9150611147826117b2565b604082019050919050565b600061115f602283611606565b915061116a82611801565b604082019050919050565b6000611182603c83611606565b915061118d82611850565b604082019050919050565b60006111a5600c83611606565b91506111b08261189f565b602082019050919050565b60006111c8601683611606565b91506111d3826118c8565b602082019050919050565b60006111eb600383611606565b91506111f6826118f1565b602082019050919050565b600061120e600c83611606565b91506112198261191a565b602082019050919050565b6000611231602f83611606565b915061123c82611943565b604082019050919050565b60006112546000836115fb565b915061125f82611992565b600082019050919050565b6000611277602683611606565b915061128282611995565b604082019050919050565b600061129a602583611606565b91506112a5826119e4565b604082019050919050565b6112b981611655565b82525050565b6112c881611655565b82525050565b60006112d982611247565b9150819050919050565b60006020820190506112f8600083018461106d565b92915050565b6000604082019050611313600083018561106d565b611320602083018461106d565b9392505050565b600060608201905061133c600083018661106d565b611349602083018561106d565b61135660408301846112bf565b949350505050565b600060a082019050611373600083018861106d565b61138060208301876112bf565b61138d60408301866112bf565b61139a60608301856112bf565b6113a760808301846110da565b9695505050505050565b600060208201905081810360008301526113cb818461107c565b905092915050565b600060208201905081810360008301526113ec816110e9565b9050919050565b6000602082019050818103600083015261140c8161110c565b9050919050565b6000602082019050818103600083015261142c8161112f565b9050919050565b6000602082019050818103600083015261144c81611152565b9050919050565b6000602082019050818103600083015261146c81611175565b9050919050565b6000606082019050818103600083015261148c81611198565b905061149b602083018561106d565b6114a860408301846112bf565b9392505050565b600060208201905081810360008301526114c8816111bb565b9050919050565b600060608201905081810360008301526114e8816111de565b90506114f7602083018561106d565b61150460408301846112bf565b9392505050565b6000606082019050818103600083015261152481611201565b9050611533602083018561106d565b61154060408301846112bf565b9392505050565b6000602082019050818103600083015261156081611224565b9050919050565b600060208201905081810360008301526115808161126a565b9050919050565b600060208201905081810360008301526115a08161128d565b9050919050565b60006020820190506115bc60008301846112bf565b92915050565b6000819050602082019050919050565b600081519050919050565b6000602082019050919050565b600082825260208201905092915050565b600081905092915050565b600082825260208201905092915050565b600061162282611635565b9050919050565b60008115159050919050565b600073ffffffffffffffffffffffffffffffffffffffff82169050919050565b6000819050919050565b600061166a82611655565b91507fffffffffffffffffffffffffffffffffffffffffffffffffffffffffffffffff82141561169d5761169c6116a8565b5b600182019050919050565b7f4e487b7100000000000000000000000000000000000000000000000000000000600052601160045260246000fd5b7f4e487b7100000000000000000000000000000000000000000000000000000000600052603260045260246000fd5b7f4e487b7100000000000000000000000000000000000000000000000000000000600052604160045260246000fd5b600080fd5b7f4d61726b6574706c6163653a205468657265206973206e6f206163746976652060008201527f6f6666657220666f72207468697320746f6b656e000000000000000000000000602082015250565b7f4e6f20616374697665206f726465727300000000000000000000000000000000600082015250565b7f596f75206e65656420746f206265207468652073656c6c6572206f662074686160008201527f7420636174000000000000000000000000000000000000000000000000000000602082015250565b7f54686572652069732063757272656e746c7920616e20616374697665206f666660008201527f6572000000000000000000000000000000000000000000000000000000000000602082015250565b7f546865206d61726b6574706c61636520636f6e7472616374206d75737420626560008201527f20617070726f76656420746f2063726561746520616e206f6666657200000000602082015250565b7f437265617465206f666665720000000000000000000000000000000000000000600082015250565b7f54686520707269636520646f65736e74206d6174636800000000000000000000600082015250565b7f4275790000000000000000000000000000000000000000000000000000000000600082015250565b7f52656d6f7665206f666665720000000000000000000000000000000000000000600082015250565b7f4d61726b6574706c6163653a204661696c656420746f2073656e642066756e6460008201527f7320746f207468652073656c6c65720000000000000000000000000000000000602082015250565b50565b7f4d61726b6574706c6163653a2043616e6e6f7420627920796f7572206f776e2060008201527f746f6b656e210000000000000000000000000000000000000000000000000000602082015250565b7f596f75206d757374206f776e207468652063617420796f752077616e7420746f60008201527f2073656c6c000000000000000000000000000000000000000000000000000000602082015250565b611a3c81611617565b8114611a4757600080fd5b50565b611a5381611629565b8114611a5e57600080fd5b50565b611a6a81611655565b8114611a7557600080fd5b5056fea26469706673582212207b359141aecfcd10c51c6c95919838a0b391d34d6277863ddc518ed3af1e73e964736f6c63430008070033",
  "immutableReferences": {},
  "source": "pragma solidity >=0.4.22 <0.9.0;\n\nimport \"./Catcontract.sol\";\nimport \"./ICatMarketplace.sol\";\n\ncontract Marketplace is ICatMarketPlace{\n\n    Catcontract private _catContract;\n    \n\n    struct Offer{\n     address payable seller;\n     uint256 price;\n     uint256 index;\n     uint256 tokenId;\n     bool active;\n\n    }\n\n    Offer[] offers;\n          //tokenId => Offer\n    mapping(uint256 => Offer) tokenIdToOffer;\n    mapping (uint256 => uint256) tokenIdToOfferId;\n    \n    \n    constructor(address _catContractAddress){\n        setKittyContract(_catContractAddress);\n        //_catContract = Catcontract(_catContractAddress);\n    }\n\n    function setKittyContract(address _catContractAddress) public override {\n        _catContract = Catcontract(_catContractAddress);\n    }\n\n   \n    function getContractAddress() external view returns(address){\n        return address(this);\n    }\n    \n\n    function getOffer(uint256 _tokenId) external override view returns ( address seller, uint256 price, uint256 index, uint256 tokenId, bool active){\n        Offer storage offer = tokenIdToOffer[_tokenId];\n\n        require(offer.active == true, \"Marketplace: There is no active offer for this token\");\n        \n        return (\n            seller = offer.seller,\n            price = offer.price,\n            index = offer.index,\n            tokenId = offer.tokenId,\n            active = offer.active\n                );\n    }\n\n    function getAllTokenOnSale() external override view  returns(uint256[] memory listOfOffers){\n        if(offers.length == 0){\n            return new uint256[](0);//return empty array\n        }else{\n            uint256[] memory result = new uint256[](offers.length);\n            uint256 offerId;\n            for(offerId = 0; offerId < offers.length; offerId++){\n                if(offers[offerId].active == true){\n                    result[offerId] = offers[offerId].tokenId;\n                }\n            }\n            return result;\n        }\n    }\n\n    //* Requirement: There can only be one active offer for a token at a time.\n    //* Requirement: Marketplace contract (this) needs to be an approved operator when the offer is created.\n\n    function ownerOfCat(address theAddress, uint256 theTokenId) internal view returns (bool){\n        return (_catContract.ownerOf(theTokenId)== theAddress);\n    }\n\n    function createOffer(uint256 _price, uint256 _tokenId) public override{\n        require(ownerOfCat(msg.sender, _tokenId), \"You must own the cat you want to sell\");\n        require(tokenIdToOffer[_tokenId].active == false, \"There is currently an active offer\");\n        require(_catContract.isApprovedForAll(msg.sender, address(this)), \"The marketplace contract must be approved to create an offer\");\n        _createOffer(_price, _tokenId, msg.sender);\n    }\n     \n    function _createOffer(uint256 _price, uint256 _tokenId, address _seller) internal{\n        \n        Offer memory _offer = Offer({\n            seller: payable(_seller),\n            price: _price,\n            index: offers.length,\n            tokenId: _tokenId,\n            active: true\n        });\n\n        tokenIdToOffer[_tokenId] = _offer;\n        offers.push(_offer);\n\n        emit MarketTransaction(\"Create offer\", msg.sender, _tokenId);\n    }\n\n    /**\n    * Removes an existing offer.\n    * Emits the MarketTransaction event with txType \"Remove offer\"\n    * Requirement: Only the seller of _tokenId can remove an offer.\n     */\n    function removeOffer(uint256 _tokenId) external override{\n        require(tokenIdToOffer[_tokenId].seller == msg.sender, \"You need to be the seller of that cat\");\n\n        delete tokenIdToOffer[_tokenId];\n        offers[tokenIdToOffer[_tokenId].index].active = false;\n\n        emit MarketTransaction(\"Remove offer\", msg.sender, _tokenId);\n    }\n\n    /**\n    * Executes the purchase of _tokenId.\n    * Sends the funds to the seller and transfers the token using transferFrom in Kittycontract.\n    * Emits the MarketTransaction event with txType \"Buy\".\n    * Requirement: The msg.value needs to equal the price of _tokenId\n    * Requirement: There must be an active offer for _tokenId\n     */\n    function buyKitty(uint256 _tokenId) external override payable{\n        Offer memory offer = tokenIdToOffer[_tokenId];\n        require(msg.value == offer.price, \"The price doesnt match\");\n        require(offer.seller != msg.sender, \"Marketplace: Cannot by your own token!\");\n        require(offer.active == true, \"No active orders\");\n        _buyKitty(_tokenId, msg.sender);\n    \n    }\n\n    function _buyKitty(uint256 _tokenId, address _buyer) internal {\n        Offer memory offer = tokenIdToOffer[_tokenId];\n        address seller = offer.seller;\n        uint256 price = offer.price;\n        (bool success, ) = payable(seller).call{value: price}(\"\");\n        require(success, \"Marketplace: Failed to send funds to the seller\");\n        delete offers[tokenIdToOfferId[_tokenId]];\n        delete offer;\n        // offers[offer.index].active = false; === recently deleted this \n\n        // if(offer.price > 0 ){//this is push, todo: make it pull\n        //     offer.seller.transfer(price);\n        // }\n        \n        _catContract.transferFrom(seller, _buyer, _tokenId);\n\n        emit MarketTransaction(\"Buy\", msg.sender, _tokenId);\n    }\n}",
  "sourcePath": "/Users/OllieFrancis/Documents/Ethereum/Crypto-Cats-Dapp/contracts/CatMarketplace.sol",
  "compiler": {
    "name": "solc",
    "version": "0.8.7+commit.e28d00a7.Emscripten.clang"
  },
  "schemaVersion": "3.4.2",
  "updatedAt": "2021-09-16T11:34:02.431Z",
  "networkType": "ethereum",
  "devdoc": {
    "kind": "dev",
    "methods": {},
    "version": 1
  },
  "userdoc": {
    "kind": "user",
    "methods": {
      "buyKitty(uint256)": {
        "notice": "Executes the purchase of _tokenId. Sends the funds to the seller and transfers the token using transferFrom in Kittycontract. Emits the MarketTransaction event with txType \"Buy\". Requirement: The msg.value needs to equal the price of _tokenId Requirement: There must be an active offer for _tokenId"
      },
      "createOffer(uint256,uint256)": {
        "notice": "Creates a new offer for _tokenId for the price _price. Emits the MarketTransaction event with txType \"Create offer\" Requirement: Only the owner of _tokenId can create an offer. Requirement: There can only be one active offer for a token at a time. Requirement: Marketplace contract (this) needs to be an approved operator when the offer is created."
      },
      "getAllTokenOnSale()": {
        "notice": "Get all tokenId's that are currently for sale. Returns an empty array if none exist."
      },
      "getOffer(uint256)": {
        "notice": "Get the details about a offer for _tokenId. Throws an error if there is no active offer for _tokenId."
      },
      "removeOffer(uint256)": {
        "notice": "Removes an existing offer. Emits the MarketTransaction event with txType \"Remove offer\" Requirement: Only the seller of _tokenId can remove an offer."
      }
    },
    "version": 1
  }
}